:020000040000FA
:060000000A128A11122809
:10000800FE00030E83120313B9000408BA000A089D
:10001800BB007F08BC000A168A11422E0A128A11F8
:1000280015288317D030FD001330FE002830FF005C
:10003800903084000A168A1120220A128A11D030C0
:100048008400E4300A128A11F8270A128A118316EA
:100058000313EB01EC01ED01EE0183133E30840044
:1000680053300A128A11F8270A128A1183010A12D8
:100078008A15312B831603132C088039FF007F085B
:10008800B6002C08B1003107FF007F08BC00AB1F89
:100098004E284F2850283C143C080319542855284A
:1000A80064283C0A031D59285A2862280030AC00ED
:1000B8000030AB000030AA000030A900AB176C2854
:1000C8000030AC000030AB000030AA000030A900BE
:1000D80030088039FF007F08B6063008B1003107C4
:1000E800FF007F08B700AF1F7A287B287C283714C9
:1000F80037080319802881289028370A031D852886
:1001080086288E280030B0000030AF000030AE00E6
:100118000030AD00AF1798280030B0000030AF00B5
:100128000030AE000030AD00370803199C289D2828
:10013800A2283C08031DA128A228AB280030AC0047
:100148000030AB000030AA000030A9009E2B29081F
:10015800FF007F08A0002F080A168A118F220A12B2
:100168008A11831603132108C2002008C100410820
:10017800B100B201B301B4013408BB003308BA00BE
:100188003208B9003108B8004208B100B201B30121
:10019800B4013408C0003308BF003208BE0031087B
:1001A800BD002A08FF007F08A0002E080A168A1141
:1001B8008F220A128A11831603132108C20020080D
:1001C800C1004108B100B201B301B4013108B80758
:1001D800320803110318013E0319F328B90733083D
:1001E80003110318013E0319FA28BA07340803114A
:1001F8000318013E03190129BB074208B100B201E7
:10020800B301B4013108BD07320803110318013ED8
:1002180003190F29BE07330803110318013E0319F8
:100228001629BF07340803110318013E03191D29B5
:10023800C0072B08FF007F08A0002D080A168A11A6
:100248008F220A128A11831603132108C20020087C
:10025800C1004108B100B201B301B4013108B807C7
:10026800320803110318013E03193B29B907330863
:1002780003110318013E03194229BA073408031170
:100288000318013E03194929BB074208B100B2010E
:10029800B301B4013108BD07320803110318013E48
:1002A80003195729BE07330803110318013E031920
:1002B8005E29BF07340803110318013E0319652995
:1002C800C0070830B1000310B80DB90DBA0DBB0D49
:1002D800B10B67292A08FF007F08A0002D080A161D
:1002E8008A118F220A128A11831603132108C20069
:1002F8002008C1004108B1004208B200B301B401AE
:100308003108B807320803110318013E03198D2973
:10031800B907330803110318013E03199429BA07D2
:10032800340803110318013E03199B29BB07290848
:10033800FF007F08A0002E080A168A118F220A12D1
:100348008A11831603132108C2002008C10041083E
:10035800B1004208B200B301B4013108B80732084D
:1003680003110318013E0319BA29B9073308031109
:100378000318013E0319C129BA07340803110318E9
:10038800013E0319C829BB070830B1000310B80D96
:10039800B90DBA0DBB0DB10BCA292908FF007F089A
:1003A800A0002D080A168A118F220A128A118316B4
:1003B80003132108C2002008C1004108B100420807
:1003C800B200B301B4013108B807320803110318A9
:1003D800013E0319F029B907330803110318013E38
:1003E8000319F729BA07340803110318013E031942
:1003F800FE29BB072A08FF007F08A0002F080A165D
:100408008A118F220A128A11831603132108C20047
:100418002008C1004108B1004208B200B301B4018C
:100428003108BD07320803110318013E03191D2ABC
:10043800BE07330803110318013E0319242ABF0716
:10044800340803110318013E03192B2AC0072B088F
:10045800FF007F08A0002E080A168A118F220A12B0
:100468008A11831603132108C2002008C10041081D
:10047800B1004208B200B301B4013108BD07320827
:1004880003110318013E03194A2ABE073308031152
:100498000318013E0319512ABF0734080311031832
:1004A800013E0319582AC0072B08FF007F08A00047
:1004B8002F080A168A118F220A128A11831603132B
:1004C8002108C2002008C1004108B1004208B2005A
:1004D800B301B40108300310B10DB20DB30DB40D62
:1004E800FF3E031D6F2A3108BD07320803110318A8
:1004F800013E0319802ABE07330803110318013E81
:100508000319872ABF07340803110318013E03198A
:100518008E2AC0073808B1003908B2003A08B3007B
:100528003B08B40018300310B40CB30CB20CB10C77
:10053800FF3E031D972A3108BD073208031103182F
:10054800013E0319A82ABE07330803110318013E08
:100558000319AF2ABF07340803110318013E031912
:10056800B62AC0070830B1000310B80DB90DBA0D8E
:10057800BB0DB10BB82A3C083707B100B201B20D68
:100588003108823EC10032080318013EFF3EC20016
:10059800EA2A0130B1000310BD0DBE0DBF0DC00D1C
:1005A800B10BCF2ABB1FD92ADA2ADB2A3D14013026
:1005B800B1000310B80DB90DBA0DBB0DB10BDD2A92
:1005C800FF30C1070318C20AFF30C207BF1FED2A58
:1005D800EE2ACD2AB701BB1FF22AF32A0F2BFF30D0
:1005E8003805B100FF303905B200FF303A05B300D5
:1005F8007F303B05B4003408330432043104031956
:10060800062B072B0A2BB701B70A0F2B3D1C0D2B06
:100618000E2B0F2B072B37080319132B142B452BE5
:100628000130BD07003003180130BE070030031841
:100638000130BF07003003180130C007401C252BCC
:10064800262B452B3D08B1003E08B2003F08B300F9
:100658004008B4000130B500340DB40CB30CB20C32
:10066800B10CB50B302B3408C0003308BF0032087A
:10067800BE003108BD000130C1070318C20A0030AE
:10068800C2074208803AFF0080307F02031D4E2BCC
:10069800FF304102031C512B522B5D2B7F308316F8
:1006A8000313C0008030BF000030BE000030BD0022
:1006B800922B831603134208803AFF0080307F0292
:1006C800031D682B0130410203186B2B6C2B782B10
:1006D800003083160313C0000030BF000030BE0096
:1006E8000030BD00B601922B831603134108FF00AA
:1006F8007F08BC00FF30BD05FF30BE057F30BF0559
:100708000030C0053C1C892B8A2B8B2BBF173C085B
:10071800B1000310310CFF007F08C0003608FF004D
:100728007F08C0044008AC003F08AB003E08AA00A0
:100738003D08A90008008312031323088039FF002D
:100748007F08A8002308F9007907FF007F08AE009A
:10075800A21FAF2BB02BB12B2E142E080319B52BCB
:10076800B62BC52B2E0A031DBA2BBB2BC32B00306F
:10077800A3000030A2000030A1000030A000A217A2
:10078800CD2B0030A3000030A2000030A1000030C3
:10079800A00027088039FF007F08A8062708F9006D
:1007A8007907FF007F08AD00A61FDB2BDC2BDD2BB4
:1007B8002D142D080319E12BE22BF12B2D0A031D13
:1007C800E62BE72BEF2B0030A7000030A600003007
:1007D800A5000030A400A617F92B0030A7000030B0
:1007E800A6000030A5000030A4002D080319FD2B39
:1007F800FE2B032C2E08031D022C032C0C2C00307E
:10080800A3000030A2000030A1000030A000FF2E9D
:100818002008FF007F08F00026080A168A116822BF
:100828000A128A11710883120313B4007008B30006
:100838003308F900FA01FB01FC017C08AC007B08D5
:10084800AB007A08AA007908A9003408F900FA016F
:10085800FB01FC017C08B2007B08B1007A08B000FB
:100868007908AF002108FF007F08F00025080A1664
:100878008A1168220A128A11710883120313B400BC
:100888007008B3003308F900FA01FB01FC0179088C
:10089800A9077A0803110318013E0319542CAA0763
:1008A8007B0803110318013E03195B2CAB077C0876
:1008B80003110318013E0319622CAC073408F90030
:1008C800FA01FB01FC017908AF077A080311031844
:1008D800013E0319702CB0077B0803110318013E71
:1008E8000319772CB1077C0803110318013E03197B
:1008F8007E2CB2072208FF007F08F00024080A16A1
:100908008A1168220A128A11710883120313B4002B
:100918007008B3003308F900FA01FB01FC017908FB
:10092800A9077A0803110318013E03199C2CAA078A
:100938007B0803110318013E0319A32CAB077C089D
:1009480003110318013E0319AA2CAC073408F90057
:10095800FA01FB01FC017908AF077A0803110318B3
:10096800013E0319B82CB0077B0803110318013E98
:100978000319BF2CB1077C0803110318013E0319A2
:10098800C62CB2070830F9000310A90DAA0DAB0D4B
:10099800AC0DF90BC82C2108FF007F08F0002408D3
:1009A8000A168A1168220A128A117108831203131F
:1009B800B4007008B3003308F9003408FA00FB01EA
:1009C800FC017908A9077A0803110318013E0319E5
:1009D800EE2CAA077B0803110318013E0319F52C16
:1009E800AB077C0803110318013E0319FC2CAC0764
:1009F8002008FF007F08F00025080A168A116822DF
:100A08000A128A11710883120313B4007008B30024
:100A18003308F9003408FA00FB01FC017908A9073A
:100A28007A0803110318013E03191B2DAA077B0836
:100A380003110318013E0319222DAB077C0803118B
:100A48000318013E0319292DAC070830F9000310DB
:100A5800A90DAA0DAB0DAC0DF90B2B2D2008FF002D
:100A68007F08F00024080A168A1168220A128A11DF
:100A7800710883120313B4007008B3003308F90037
:100A88003408FA00FB01FC017908A9077A08031168
:100A98000318013E0319512DAA077B0803110318F7
:100AA800013E0319582DAB077C0803110318013EBA
:100AB80003195F2DAC072108FF007F08F000260806
:100AC8000A168A1168220A128A11710883120313FE
:100AD800B4007008B3003308F9003408FA00FB01C9
:100AE800FC017908AF077A0803110318013E0319BE
:100AF8007E2DB0077B0803110318013E0319852DCD
:100B0800B1077C0803110318013E03198C2DB207A5
:100B18002208FF007F08F00025080A168A116822BB
:100B28000A128A11710883120313B4007008B30003
:100B38003308F9003408FA00FB01FC017908AF0713
:100B48007A0803110318013E0319AB2DB0077B087F
:100B580003110318013E0319B22DB1077C080311D4
:100B68000318013E0319B92DB2072208FF007F08B8
:100B7800F00026080A168A1168220A128A117108DA
:100B880083120313B4007008B3003308F900340863
:100B9800FA00FB01FC0108300310F90DFA0DFB0DFA
:100BA800FC0DFF3E031DD02D7908AF077A0803110D
:100BB8000318013E0319E12DB0077B080311031840
:100BC800013E0319E82DB1077C0803110318013E03
:100BD8000319EF2DB2072908F9002A08FA002B0893
:100BE800FB002C08FC0018300310FC0CFB0CFA0C62
:100BF800F90CFF3E031DF82D7908AF077A08031199
:100C08000318013E0319092EB0077B0803110318C6
:100C1800013E0319102EB1077C0803110318013E89
:100C28000319172EB2070830F9000310A90DAA0DF1
:100C3800AB0DAC0DF90B192E2E082D07F900FA0192
:100C4800FA0D7908823EB3007A080318013EFF3E88
:100C5800B4004B2E0130F9000310AF0DB00DB10DEB
:100C6800B20DF90B302EAC1F3A2E3B2E3C2E2F1412
:100C78000130F9000310A90DAA0DAB0DAC0DF90B4D
:100C88003E2EFF30B3070318B40AFF30B407B11F74
:100C98004E2E4F2E2E2EAD01AC1F532E542E702EDD
:100CA800FF302905F900FF302A05FA00FF302B052F
:100CB800FB007F302C05FC007C087B047A04790457
:100CC8000319672E682E6B2EAD01AD0A702E2F1CEE
:100CD8006E2E6F2E702E682E2D080319742E752E09
:100CE800A62E0130AF07003003180130B0070030DE
:100CF80003180130B107003003180130B207321C65
:100D0800862E872EA62E2F08F9003008FA00310803
:100D1800FB003208FC000130FD007C0DFC0CFB0CD4
:100D2800FA0CF90CFD0B912E7C08B2007B08B1007F
:100D38007A08B0007908AF000130B3070318B40A85
:100D48000030B4073408803AFF0080307F02031D6A
:100D5800AF2EFF303302031CB22EB32EBE2E7F30CF
:100D680083120313B2008030B1000030B0000030AD
:100D7800AF00F32E831203133408803AFF0080304B
:100D88007F02031DC92E013033020318CC2ECD2E4D
:100D9800D92E003083120313B2000030B1000030A6
:100DA800B0000030AF00A801F32E831203133308FC
:100DB800FF007F08AE00FF30AF05FF30B0057F3081
:100DC800B1050030B2052E1CEA2EEB2EEC2EB11721
:100DD8002E08F9000310790CFF007F08B2002808DC
:100DE800FF007F08B2043208A3003108A2003008CF
:100DF800A1002F08A000080083160313AD01AE015F
:100E08000030A3000130A2008630A100A030A0006D
:100E18002B08A4002C08A500A601A7010A168A1110
:100E2800C7260A128A11831603132108AC0020086A
:100E3800AB007B30FF007F0883160317D00010300B
:100E480083160313A4002730A5002C08A7002B083D
:100E5800A6000A168A1168230A128A118316031338
:100E68002408303EFF007F0883160317D100103096
:100E780083160313A0002730A1002C08A3002B0819
:100E8800A2000A168A11AE230A128A1183160313C6
:100E98002108B1002008B000E830A4000330A50004
:100EA8003108A7003008A6000A168A1168230A121A
:100EB8008A11831603132408303EFF007F08831627
:100EC8000317D200E83083160313A0000330A100F3
:100ED8003108A3003008A2000A168A11AE230A12AC
:100EE8008A11831603132108B1002008B00064306A
:100EF800A4000030A5003108A7003008A6000A1693
:100F08008A1168230A128A11831603132408303EB3
:100F1800FF007F0883160317D3006430831603137A
:100F2800A0000030A1003108A3003008A2000A1672
:100F38008A11AE230A128A11831603132108B100FD
:100F48002008B0000A30A4000030A5003108A7002E
:100F58003008A6000A168A1168230A128A11831615
:100F680003132408303EFF007F0883160317D400BC
:100F78000A3083160313A0000030A1003108A30033
:100F88003008A2000A168A11AE230A128A118316A3
:100F980003132008303EFF007F0883160317D5008F
:100FA8007D30FF007F08D6000D30FF007F08D70096
:100FB80083160313AF012F08D03E8400831700085F
:100FC80083120313990083160313981CEC2FED2F3B
:100FD800E72F0130FF007F08AF0708302F02031CFE
:100FE800F62FF72FDF2F080064008001840A04061B
:080FF800031900340406F92F6F
:10100800031083160313670D680DFF007F08EA00BD
:101018006A08031D102811281A280030E80000303B
:10102800E7000030E6000030E500972865088316E1
:101038000317E40083160313660883160317E500F5
:1010480083160313670883160317E6008316031332
:10105800680883160317E7001F300310E70CE60C37
:10106800E50CE40CFF3E031D31286408FF007F08EF
:1010780083160313E900E717FF30E505FF30E6059F
:10108800FF30E7050030E8059630EA02EA1F4D28F0
:101098004E2868286A08803A973E0318542855282D
:1010A8005628112801300310E80CE70CE60CE50C73
:1010B800FF3E031D57280130FF007F08EA07031D84
:1010C800662867285628872820306A02031C6D285E
:1010D8006E2882281128013083160317E4000310B4
:1010E80083160313E50DE60DE70DE80D83160317C8
:1010F800E40B7328013083160313EA026A08031D00
:10110800862887286F28690803198B288C28972830
:10111800E509E609E709E809E50A0319E60A0319F2
:10112800E70A0319E80A080083120313A400240835
:1011380003199F28A028B428FA1FA328A428B42894
:101148007709A6007809A7007909A8007A09A900F3
:10115800A60A0319A70A0319A80A0319A90ABC2889
:101168007A08A9007908A8007808A7007708A600D7
:101178007A08790478047704031DC328C428CD2885
:101188000030FA000030F9000030F8000030F700B5
:1011980053299630FF007F08A500DF280130FF00A3
:1011A8007F08A50701300310A90CA80CA70CA60CF2
:1011B800FF3E031DD728FE302905031DE428E52836
:1011C800D22801290130FF007F08A5070130A607B2
:1011D800003003180130A707003003180130A807B2
:1011E800003003180130A90701300310A90CA80C1E
:1011F800A70CA60CFF3E031DF928FF302905031D87
:1012080006290729E62813290130A5020130A00084
:101218000310A60DA70DA80DA90DA00B0C29A81B3E
:10122800162917291D290230250203181C291D29F2
:1012380008292518202921292929FF30A605FF304A
:10124800A7057F30A805FF30A9050310A50C2508C0
:10125800A000A101A201A30118300310A00DA10D47
:10126800A20DA30DFF3E031D31292008A604210865
:10127800A7042208A8042308A90424080319452957
:1012880046294B29FA1F49294A294B29A917290810
:10129800FA002808F9002708F8002608F7000800CF
:1012A800831603134A088039FF007F08D4004A08D0
:1012B800CB004B07FF007F08DB00C91F64296529A5
:1012C80066295B145B0803196A296B297B295B0A69
:1012D800031D6F29702978290030CA000030C90021
:1012E8000030C8000030C700C917CA018329003080
:1012F800CA000030C9000030C8000030C7004608E6
:101308008039FF007F08D4064608CB004B07FF0052
:101318007F08DC00C51F9129922993295C145C0879
:10132800031997299829A8295C0A031D9C299D2936
:10133800A5290030C6000030C5000030C4000030C8
:10134800C300C517C601B0290030C6000030C5006B
:101358000030C4000030C300460845044404430478
:10136800031DB729B829D1290030CA000030C900A7
:101378000030C8000030C7008030C9047F30CA047C
:101388005408FF007F08CA044A08C6004908C50077
:101398004808C4004708C300302B5B08031DD52943
:1013A800D629DF290030C6000030C5000030C4004F
:1013B8000030C300302B5B08CB00CC014C08CE00BA
:1013C8005C084B02CD00031CCE034D087F3ED500C0
:1013D8004E080318013E003ED6004A08D3004908CB
:1013E800D2004808D1004708D0000030CA000030B9
:1013F800C9000030C8000030C7000030DA000030F3
:10140800D9000030D8000030D700DC01552A5C082C
:1014180003190F2A102A302A0130CB000310D00DEF
:10142800D10DD20DD30DCB0B122A0130CB000310F6
:10143800C70DC80DC90DCA0DCB0B1B2ADA1F252AEB
:10144800262A272A47140130CB000310D70DD80DC0
:10145800D90DDA0DCB0B292A46085302031D3E2A63
:1014680045085202031D3E2A44085102031D3E2A24
:1014780043085002031C412A422A512A5A1743089A
:10148800D0024408031C440FD1024508031C450F31
:10149800D2024608031C460FD3020130FF007F0822
:1014A800DC071A305C02031C5A2A5B2A0B2A5308F1
:1014B8005204510450040319622A632A822A5714D9
:1014C800822A0130CB000310C70DC80DC90DCA0D03
:1014D800CB0B672ADA1F712A722A732A4714013044
:1014E800CB000310D70DD80DD90DDA0DCB0B752A0B
:1014F800FF30D5070318D60AFF30D607C91F852A3B
:10150800862A652ADC01DA1F8A2A8B2AA72AFF3055
:101518005705CB00FF305805CC00FF305905CD00EA
:101528007F305A05CE004E084D044C044B04031975
:101538009E2A9F2AA22ADC01DC0AA72A471CA52A80
:10154800A62AA72A9F2A5C080319AB2AAC2ADD2AF7
:101558000130C707003003180130C80700300318EE
:101568000130C907003003180130CA074A1CBD2AD8
:10157800BE2ADD2A4708CB004808CC004908CD0020
:101588004A08CE000130CF004E0DCE0CCD0CCC0C4D
:10159800CB0CCF0BC82A4E08CA004D08C9004C080E
:1015A800C8004B08C7000130D5070318D60A003019
:1015B800D6075608803AFF0080307F02031DE62ACE
:1015C800FF305502031CE92AEA2AF82AFF3083165D
:1015D8000313D5000030D6000030CA000030C9001F
:1015E8000030C8000030C700831603135608803A3D
:1015F800FF0080307F02031D032B013055020318C2
:10160800062B072B142B83160313D501D6010030A4
:10161800CA000030C9000030C8000030C700D4013B
:10162800831603135508FF007F08DB005B1C1D2B86
:101638001E2B202BC917242B7F30FF007F08C905DC
:101648005B08CB0003104B0CFF007F08CA0054084E
:10165800FF007F08CA04C829080000308312031756
:101668009B0000309A0000309900003098008316E3
:10167800031306108312031306140A168A1105228F
:101688000A128A150A168A110E220A128A150030C1
:101698000A168A1103250A128A1583160313A9014B
:1016A80000300A168A11B8220A128A1501300A1661
:1016B8008A11D5250A128A15153083160317EA00F0
:1016C8004B30E900BD30E800E80B682BE90B682BCC
:1016D800EA0B682B6F2B83160313A30101300A163C
:1016E8008A11F6230A128A150A168A112F220A125B
:1016F8008A15831603136D03031D832B842B7D2BFF
:1017080019306E02031C892B8A2B7D2BEE01831264
:101718000313520883160313E800831203135108B6
:1017280083160313E7008312031350088316031369
:10173800E600831203134F0883160313E5000A1209
:101748008A1504200A128A15831603136608831261
:1017580003179D00831603136508831203179C0063
:10176800643083160313A4000030A5008312031706
:101778001D0883160313A700831203171C0883167A
:101788000313A6000A168A1168230A128A158316FB
:1017980003132408FF007F08831203179A000A30F6
:1017A80083160313A4000030A500831203171D0835
:1017B80083160313A300831203171C08831603134D
:1017C800A2006430A0000030A1000A168A11AE23DE
:1017D8000A128A15831603132108A7002008A600F9
:1017E8000A168A1168230A128A1583160313240815
:1017F800FF007F088312031799000A30831603132A
:10180800A0000030A100831203171D0883160313DC
:10181800A300831203171C0883160313A2000A16D9
:101828008A11AE230A128A15831603132008FF00B3
:101838007F0883120317980083160313A901003049
:101848000A168A11B8220A128A1512300A168A1143
:10185800D5250A128A1583160313A301A30A831236
:1018680003171A08303E0A168A11F6230A128A1537
:1018780083160313A301A30A2E300A168A11F6232E
:101888000A128A1583160313A301A30A83120317E6
:101898001908303E0A168A11F6230A128A15831689
:1018A8000313A301A30A831203171808303E0A166C
:1018B8008A11F6230A128A15831203135208831613
:1018C8000313B00083120313510883160313AF00E8
:1018D80083120313500883160313AE0083120313F5
:1018E8004F0883160313AD004630AC001C30AB0024
:1018F8004030AA000030A9000A128A113E200A12BC
:101908008A15831603132C08CA002B08C9002A0855
:10191800C8002908C7004230C600C830C5000030DA
:10192800C4000030C3000A128A1554210A128A150D
:1019380083160313460883120317930083160313B1
:101948004508831203179200831603134408831271
:10195800031791008316031343088312031790009B
:10196800403083160313E400A030E3000030E200A7
:101978000030E10083120313520883160313CA00D0
:1019880083120313510883160313C9008312031328
:10199800500883160313C800831203134F088316D5
:1019A8000313C7004230C600C830C5000030C40069
:1019B8000030C3000A128A1554210A128A158316A8
:1019C80003134608E0004508DF004408DE0043082A
:1019D800DD000A168A1144220A128A158316031397
:1019E8006008831203179700831603135F08831296
:1019F80003179600831603135E08831203179500D6
:101A0800831603135D0883120317940013088316C3
:101A18000313CA0083120317120883160313C9009D
:101A280083120317110883160313C80083120317C0
:101A3800100883160313C7008312031717088316A9
:101A48000313C60083120317160883160313C50071
:101A580083120317150883160313C4008312031790
:101A6800140883160313C3000A128A1554210A1294
:101A78008A15831603134608E8004508E70044085A
:101A8800E6004308E5000A128A1504200A128A159E
:101A9800831603136608EC006508EB006C08AC00BD
:101AA8006B08AB000A128A1100270A128A158316DE
:101AB8000313A901A90A00300A168A11B8220A12CA
:101AC8008A15831603136C08AA006B08A90008304E
:101AD800FF007F08AB000A168A1156270A128A15DA
:101AE8007D2B0A128A1112288316031323088039C2
:101AF800FF007F08B0002308A8002807FF007F0820
:101B0800B200A21F882D892D8A2D3214320803199C
:101B18008E2D8F2D9F2D320A031D932D942D9C2DD4
:101B28000030A3000030A2000030A1000030A00067
:101B3800A217A301A72D0030A3000030A200003097
:101B4800A1000030A00027088039FF007F08B100FD
:101B5800310830060319B12DB22DB32D30172708DF
:101B6800A8002807FF007F08B100A61FBC2DBD2DC7
:101B7800BE2D311431080319C22DC32DD32D310ABE
:101B8800031DC72DC82DD02D0030A7000030A6009A
:101B98000030A5000030A400A617A701DB2D0030F7
:101BA800A7000030A6000030A5000030A4003208CD
:101BB80031020318E02DE12D252E301FE42DE52DEF
:101BC800E92D8030FF007F08B0063208FF007F084B
:101BD800B3003108FF007F08B2003308FF007F0818
:101BE800B1002008FF007F08B3002408FF007F0829
:101BF800A0003308FF007F08A4002108FF007F0829
:101C0800B3002508FF007F08A1003308FF007F0804
:101C1800A5002208FF007F08B3002608FF007F0800
:101C2800A2003308FF007F08A6002308FF007F08F2
:101C3800B3002708FF007F08A3003308FF007F08D0
:101C4800A700B3013108A800A9012908AB00320890
:101C58002802AA00031CAB032B08803AFF0080303F
:101C68007F02031D392E1A302A02031C3C2E3D2EFA
:101C78007A2E831603132308220421042004031D4B
:101C8800462E482E0130492E0030FF007F08B30051
:101C98000030A3000030A2000030A1000030A000F6
:101CA8003108FF007F08B200822E331C5C2E5D2EA7
:101CB800662E3308A8000310280C0138FF007F089F
:101CC800B300682E0310B30C201C6B2E6C2E6D2EE7
:101CD800B3170130A800230DA30CA20CA10CA00C73
:101CE800A80B6F2E0130FF007F08B207831603137D
:101CF80031083202031C812E822E592E301B852E6C
:101D0800862ED12E3208031D8A2E8B2E942E00305B
:101D1800A3000030A2000030A1000030A000FF2F77
:101D28002408A007250803110318013E03199D2E56
:101D3800A107260803110318013E0319A42EA207C0
:101D4800270803110318013E0319AB2EA307231C10
:101D5800AE2EAF2E852F331CB22EB32EBC2E3308D9
:101D6800A8000310280C0138FF007F08B300BE2E1E
:101D78000310B30C201CC12EC22EC32EB317013082
:101D8800A800230DA30CA20CA10CA00CA80BC52E17
:101D98000130FF007F08B207852F2308803AFF0033
:101DA8002708803A7F02031DE32E26082202031D1E
:101DB800E32E25082102031DE32E24082002031820
:101DC800E62EE72E3F2FFF30A800FF30A900FF3096
:101DD800AA00FF30AB002408AC002508AD00260897
:101DE800AE002708AF002008AC022108031C210F11
:101DF800FE2EFF2EAD022208031C220F042F052FF2
:101E0800AE022308031C230F0A2F0B2FAF022C0846
:101E1800A8072D0803182D0F122F132FA9072E0816
:101E280003182E0F182F192FAA072F0803182F0A87
:101E3800AB072B08A3002A08A2002908A10028083C
:101E4800A0008030FF007F08B006B309B30A33084A
:101E5800031D2F2F302F4D2F0130A00700300318FE
:101E68000130A107003003180130A2070030031821
:101E78000130A3074D2F2408A0022508031C250FB5
:101E8800A1022608031C260FA2022708031C270FFD
:101E9800A3022308220421042004031D542F552FD4
:101EA800812F3308031D592F5A2F812F0030A3008B
:101EB8000030A2000030A1000030A000FF2F013048
:101EC800A8000310A00DA10DA20DA30DA80B652F4E
:101ED800B31F6F2F702F712F2014331C742F752F81
:101EE800782F0314B30D7A2F0310B30D320803199A
:101EF8007E2F7F2F812F0130B202A21F842F852FC2
:101F0800632FB101B31F892F8A2F982F33087F3988
:101F180003198F2F902F932FB101B10A982F201CEE
:101F2800962F972F982F902F310803199C2F9D2FAC
:101F3800D12F0130A007003003180130A10700306D
:101F480003180130A207003003180130A307231C2F
:101F5800AE2FAF2FD12F2008A8002108A9002208F2
:101F6800AA002308AB000130AC002B0DAB0CAA0C67
:101F7800A90CA80CAC0BB92F2B08A3002A08A200A7
:101F88002908A1002808A000320A0319CC2FCD2F58
:101F9800D12F0130FF007F08B207320A0319D52F6D
:101FA800D62FDB2F3208031DDA2FDB2FE92F003065
:101FB800A3000030A2000030A1000030A0003208C9
:101FC800031DE72FE82FE92FB001321CEC2FED2F6E
:101FD800EF2FA217F32F7F30FF007F08A2053208EA
:101FE800A8000310280CFF007F08A300B01FFD2FD6
:101FF800FE2FFF2FA317080010308A000408840A58
:10200800820700346C346F346134643420347234A1
:1020180065347334693473347434653472342E34EB
:102028002E342E34003447342034743472346934F6
:0A203800203455343D3420340034C8
:10240A00C430831603139F008030831203139F0086
:10241A0008002030831603139800903083120313A8
:10242A00980019308316031399008C1608007E0849
:10243A008A007F0882000A168A111C220A168A114B
:10244A008000840A04087D0603190034FF0A031970
:10245A00FE0A202A831203131014901010119011EF
:10246A0090161016831603130C14831203130C1000
:10247A000B178B17FE308F000C308E00080080304F
:10248A0083160313E0066408A3006308A200620827
:10249A00A1006108A0006008A7005F08A6005E0806
:1024AA00A5005D08A4000A128A1578250A168A1161
:1024BA00831603132308E0002208DF002108DE0048
:1024CA002008DD000800F800F401F5017008F200A8
:1024DA00F3017208F6007308F700781C752A762A49
:1024EA007C2A7608F4070318F50A7708F5070130FD
:1024FA000310F60DF70DFF3E031D7D2A0310F80C9D
:10250A007808031D892A8A2A722A7508F100740834
:10251A00F000080083160313A800A401A5012008EF
:10252A00A200A3012208A6002308A700281C9E2AAD
:10253A009F2AA52A2608A4070318A50A2708A5077B
:10254A0001300310A60DA70DFF3E031DA62A031096
:10255A00A80C2808031DB22AB32A9B2A2508A10021
:10256A002408A000080083160313AC0014302C02C0
:10257A00031CC02AC12ACE2AEC2A2C17E42A1430BA
:10258A00FF007F08AC07E42A5430FF007F08AC073D
:10259A00E42A2908AA00AB012B08003A0319D62A13
:1025AA00E42A2A08003A0319E42A013A0319C22A3A
:1025BA00033A0319C42A013A0319C92AE42AAC17AF
:1025CA00A3012C080A168A11F6230A168A11080092
:1025DA00F600FB2A831203139F111F129F120B2B63
:1025EA00831203139F151F129F120B2B7608F200FA
:1025FA00F3017308003A0319032B0B2B7208003AF4
:10260A000319EF2A013A0319F52A0B2B8312031334
:10261A001F140630F200F20B102B00008312031372
:10262A001F151F19192B1A2B162B1E08F5008316B6
:10263A0003131E08F400831203131F107508F10018
:10264A007408F00008000C34123412340C340034CC
:10265A00003400340034003404340E341F340E3491
:10266A0004340034003404340434043404341F348D
:10267A000E34043400340A34153411340A34043460
:10268A000034003400340A341F341F340E34043446
:10269A000034003400340034003400340034003490
:1026AA000034003400340034003400340034003480
:1026BA000034003400340034003400340034003470
:1026CA0000340034003483160313A901AA01240834
:1026DA0025040319712B722BA92BA801A80A802B98
:1026EA0001300310A40DA50DFF3E031D762B01300A
:1026FA00FF007F08A807A51F832B842B752B0130A9
:10270A000310A90DAA0DFF3E031D852B25082702DC
:10271A00031D912B24082602031C942B952B9C2B1A
:10272A002408A6022508031CA703A70229140130BE
:10273A000310A50CA40CFF3E031D9D2B0130A8021B
:10274A00031DA82BA92B842B2A08A5002908A4005D
:10275A00080083160313200821040319B52BB62B8E
:10276A00EF2B83120313BD01BD0AC82B01300310DE
:10277A00A00DA10DFF3E031DBC2B0130FF007F08F9
:10278A0083120313BD0783160313A11FCD2BCE2B70
:10279A00BB2B8316031321082302031DD62B200803
:1027AA002202031CD92BDA2BE02B2008A2022108D3
:1027BA00031CA303A30201300310A10CA00CFF3ECB
:1027CA00031DE12B013083120313BD02031DEE2BFF
:1027DA00EF2BCE2B831603132308A1002208A00097
:1027EA00080083160313A7002708A4000430031067
:1027FA00A40CFF3E031DFC2B2408FF007F08A50044
:10280A0027080F39FF007F08A6002308031D0E2C96
:10281A000F2C132C831203130812162C8312031382
:10282A000816172C8312031308170808F0398316A1
:10283A0003132504FF007F08A80028088312031346
:10284A008800272C282C8312031308132C2C2D2CD8
:10285A008312031308170808F03983160313260492
:10286A00FF007F08A80028088312031388003D2C64
:10287A003E2C831203130813422C432C0A168A1186
:10288A00A4240A168A11080083160313A501A31F9C
:10289A004F2C502C572CA209A309A20A0319A30AE8
:1028AA00A501A50AA11F5A2C5B2C602CA009A1091D
:1028BA00A00A0319A10A200821040319652C662C11
:1028CA00952CA401A40A742C01300310A00DA10DAB
:1028DA00FF3E031D6A2C0130FF007F08A407A11FD9
:1028EA00772C782C692C21082302031D7E2C2008C2
:1028FA002202031C812C822C882C2008A202210887
:10290A00031CA303A30201300310A10CA00CFF3E79
:10291A00031D892C0130A402031D942C952C782CBC
:10292A0025080319992C9A2C9F2CA209A309A20AFB
:10293A000319A30A2308A1002208A00008000F30E7
:10294A00FF007F0883160313880483120313881673
:10295A000812AF2C831203130817B32C8312031324
:10296A000808FF007F0883160313A20022088312B7
:10297A000313BD0003300310BD0DFF3E031DC02C21
:10298A0003103D0DFF007F0883160313A200CD2C10
:10299A00831203130813D12CD22C831203130817A2
:1029AA00D62C831203130808FF007F08831603132B
:1029BA00A1000F30FF007F08A10522082104FF00B3
:1029CA007F08A20022088039FF007F08A000ED2CB2
:1029DA00831203130813F12CF22C83160313200815
:1029EA00031DF82CF92CAF2C831203138812F03034
:1029FA00FF007F0883160313880508008316031354
:102A0A00AB009C3083160313AA00D630A900A90B89
:102A1A000C2DAA0B0C2D0000F030FF007F08831646
:102A2A0003138805081308128812F030FF007F0884
:102A3A00831203138805081388120812242D83129F
:102A4A00031308178814292D2A2D83120313081338
:102A5A002E2D2F2D0A168A11A4240A168A118316DE
:102A6A000313A30128300A168A11F6230A168A11BB
:102A7A0083160313A3012B080C380A168A11F623AE
:102A8A000A168A1183160313A30140300A168A1103
:102A9A00F6230A168A1183160313AC01A301A30AAB
:102AAA002C08903E8400831700080A168A11F62320
:102ABA000A168A110130FF007F0883160313AC0738
:102ACA0040302C02031C6A2D6B2D532D08008316EF
:102ADA000313A501A11F722D732D7A2DA009A10937
:102AEA00A00A0319A10AA501A50AA31F7D2D7E2DFF
:102AFA00872DA209A309A20A0319A30A0130FF001C
:102B0A007F08A506A601A7012008210403198E2D16
:102B1A008F2DC62DA401A40A9D2D01300310A00DEE
:102B2A00A10DFF3E031D932D0130FF007F08A4076E
:102B3A00A11FA02DA12D922D01300310A60DA70DC6
:102B4A00FF3E031DA22D21082302031DAE2D2008DE
:102B5A002202031CB12DB22DB92D2008A202210890
:102B6A00031CA303A302261401300310A10CA00C1A
:102B7A00FF3E031DBA2D0130A402031DC52DC62D2B
:102B8A00A12D25080319CA2DCB2DD02DA609A709D9
:102B9A00A60A0319A70A2708A1002608A000080008
:102BAA0083160313AA00352E2A0884000A168A11EE
:102BBA0000200A168A11253A031DE42DE52D212E3F
:102BCA000130FF007F08AA072A0884000A168A1122
:102BDA0000200A168A11D03EFF007F08A900A91B0F
:102BEA00F72DF82D082E2908803A783E0318FE2D75
:102BFA00FF2D082EA301A30A29080A168A11F62313
:102C0A000A168A112F2EA301A30A25300A168A1141
:102C1A00F6230A168A1183160313A301A30A2A08A4
:102C2A0084000A168A1100200A168A110A168A11C5
:102C3A00F6230A168A112F2EA301A30A2A08840052
:102C4A000A168A1100200A168A110A168A11F62310
:102C5A000A168A110130FF007F0883160313AA0798
:102C6A002A0884000A168A1100200A168A11003AD4
:102C7A00031D402E412ED92D0800831603130C1C68
:102C8A00472E482EBB2E831203130C1C4D2E4E2E9C
:102C9A00BB2E0130FF007F08CE0715304E02031C01
:102CAA00572E582EA82ECE010130FF007F0883161A
:102CBA000313EE0700300A168A11ED220A168A114A
:102CCA00700883120313B5007108B600B701B80182
:102CDA003808FA003708F9003608F8003508F7000E
:102CEA0000300A128A1598200A168A117A08831265
:102CFA000313D2007908D1007808D0007708CF00F2
:102D0A003E30A300F930A200FF30A100D630A00067
:102D1A005208A7005108A6005008A5004F08A400B1
:102D2A000A128A119F230A168A118312031323088F
:102D3A00D2002208D1002108D0002008CF00831633
:102D4A000313ED01ED0A03108312061C0314031882
:102D5A00AF2EB32E831203130614B62E8312031357
:102D6A000610FE308F000C308E000C1083123C08C7
:102D7A00FF003B088A003A088400390E8300FE0EE1
:102D8A007E0E090083160313A901A71FCD2ECE2E8E
:102D9A00DB2EA409A509A609A709A40A0319A50AED
:102DAA000319A60A0319A70AA901A90AA31FDE2E55
:102DBA00DF2EEA2EA009A109A209A309A00A031974
:102DCA00A10A0319A20A0319A30A23082204210447
:102DDA0020040319F12EF22E3D2FA801A80A0A2F6A
:102DEA00013083120313BD00031083160313A00DD1
:102DFA00A10DA20DA30D83120313BD0BF92E0130F1
:102E0A00FF007F0883160313A807A31F0D2F0E2F99
:102E1A00F52E23082702031D1C2F22082602031D54
:102E2A001C2F21082502031D1C2F20082402031C25
:102E3A001F2F202F2E2F2008A4022108031C210F48
:102E4A00A5022208031C220FA6022308031C230F33
:102E5A00A70201300310A30CA20CA10CA00CFF3E88
:102E6A00031D2F2F0130A802031D3C2F3D2F0E2FCB
:102E7A0029080319412F422F4D2FA409A509A60994
:102E8A00A709A40A0319A50A0319A60A0319A70A76
:102E9A002708A3002608A2002508A1002408A000EC
:102EAA000800AF3084000A30FF0083138001840ACF
:102EBA00FF0B5A2F093083160313BB000030BC00E6
:102ECA00B901BA01AA1F6A2F6B2FAB2FA301A30A5C
:102EDA002D300A168A11F6230A168A11831603134D
:102EEA00A909AA09A90A0319AA0AAB2F0A30A0003C
:102EFA000030A1002A08A3002908A2000A168A1194
:102F0A0049240A168A11831603132008FF003B0876
:102F1A00AF3E84007F08831380000A30A00000308F
:102F2A00A1002A08A3002908A2000A168A116C2502
:102F3A000A168A11831603132108AA002008A90079
:102F4A00FF30BB070318BC0AFF30BC0729082A0454
:102F5A00031DB02FB12F7B2F2B0A031DB52FB62FC0
:102F6A00C72FBD2F0130B9070318BA0A0030BA07B4
:102F7A003908AF3E8400831300080319C52FC62FF2
:102F8A00B72FD52F2B08AC00AD01AC1BAD030A300F
:102F9A00AE002C082E02B9002D090318013EBA0012
:102FAA003A08BC003908BB003C08803AFF00803070
:102FBA007F02031DE22F0A303B02031CE52FE62F96
:102FCA00E72FFF2F83160313A301A30A3B08AF3E83
:102FDA00840083130008303E0A168A11F6230A1663
:102FEA008A11013083160313BB070318BC0A003089
:062FFA00BC07D92F0800FE
:02400E00F23F7F
:00000001FF
