:020000040000FA
:100000000A128A11FC2F00308A000408840A820731
:100010000034FF3401340034F634F6340034013453
:02002000FF34AB
:100F90008316031386018801F10107307102031CD7
:100FA000D22FD32FD42FCC2F7108013E84000A12E8
:100FB0008A1103200A128A1183120313860001305A
:100FC000F000710AE52F0310F00DFF3E031DE32F23
:100FD00070088800C730F000ED2FF00BEC2FF02FD9
:100FE000F12F8312031388010130FF007F08F107FE
:100FF000CD2F0A128A11002883010A128A11C82FE4
:02400E00393F38
:00000001FF
