:020000040000FA
:060000000A128A110C280F
:10000800FE00030EF0000A08F1000A128A15172DE7
:100018000A128A110F28FA01FB0183120313E50162
:10002800E601E701E80183010A128A15A32C83126D
:10003800031329088039AE002E08B3002908AE0042
:100048002E07AF002F08B900A81F2B282C282D2811
:10005800391439080319312832284128390A031D6F
:10006800362837283F280030A9000030A800003083
:10007800A7000030A600A81749280030A9000030C2
:10008800A8000030A7000030A6002D088039AE0077
:100098002E08B3062D08AE002E07AF002F08B400B7
:1000A800AC1F5728582859283414340803195D28D8
:1000B8005E286D28340A031D622863286B280030E7
:1000C800AD000030AC000030AB000030AA00AC1727
:1000D80075280030AD000030AC000030AB000030B7
:1000E800AA003408031979287A287F283908031DBB
:1000F8007E287F2888280030A9000030A80000301A
:10010800A7000030A6007B2B2608AE002E08F200C0
:100118002C080A128A15C5240A128A117308831238
:100128000313BF007208BE003E08AE00AF01B00165
:10013800B1013108B8003008B7002F08B6002E0802
:10014800B5003F08AE00AF01B001B1013108BD00F4
:100158003008BC002F08BB002E08BA002708AE00E4
:100168002E08F2002B080A128A15C5240A128A11D1
:10017800730883120313BF007208BE003E08AE0066
:10018800AF01B001B1012E08B5072F0803110318FC
:10019800013E0319D028B607300803110318013EA1
:1001A8000319D728B707310803110318013E0319AB
:1001B800DE28B8073F08AE00AF01B001B1012E0834
:1001C800BA072F0803110318013E0319EC28BB07CF
:1001D800300803110318013E0319F328BC0731083E
:1001E80003110318013E0319FA28BD072808AE00B9
:1001F8002E08F2002A080A128A15C5240A128A1142
:10020800730883120313BF007208BE003E08AE00D5
:10021800AF01B001B1012E08B5072F08031103186B
:10022800013E03191829B607300803110318013EC7
:1002380003191F29B707310803110318013E0319D1
:100248002629B8073F08AE00AF01B001B1012E085A
:10025800BA072F0803110318013E03193429BB07F5
:10026800300803110318013E03193B29BC07310864
:1002780003110318013E03194229BD070830AE00D7
:100288000310B50DB60DB70DB80DAE0B44292708F0
:10029800AE002E08F2002A080A128A15C5240A128E
:1002A8008A11730883120313BF007208BE003E0848
:1002B800AE003F08AF00B001B1012E08B5072F0806
:1002C80003110318013E03196A29B6073008031100
:1002D8000318013E03197129B707310803110318E0
:1002E800013E03197829B8072608AE002E08F20047
:1002F8002B080A128A15C5240A128A117308831258
:100308000313BF007208BE003E08AE003F08AF00EE
:10031800B001B1012E08B5072F0803110318013EDB
:1003280003199729B607300803110318013E03196A
:100338009E29B707310803110318013E0319A5299F
:10034800B8070830AE000310B50DB60DB70DB80DDF
:10035800AE0BA7292608AE002E08F2002A080A12BA
:100368008A15C5240A128A11730883120313BF0061
:100378007208BE003E08AE003F08AF00B001B101F0
:100388002E08B5072F0803110318013E0319CD29BC
:10039800B607300803110318013E0319D429B7071B
:1003A800310803110318013E0319DB29B807270890
:1003B800AE002E08F2002C080A128A15C5240A126B
:1003C8008A11730883120313BF007208BE003E0827
:1003D800AE003F08AF00B001B1012E08BA072F08E0
:1003E80003110318013E0319FA29BB07300803114A
:1003F8000318013E0319012ABC0731080311031829
:10040800013E0319082ABD072808AE002E08F2008D
:100418002B080A128A15C5240A128A117308831236
:100428000313BF007208BE003E08AE003F08AF00CD
:10043800B001B1012E08BA072F0803110318013EB5
:100448000319272ABB07300803110318013E0319B3
:100458002E2ABC07310803110318013E0319352A57
:10046800BD072808AE002E08F2002C080A128A15CB
:10047800C5240A128A11730883120313BF00720875
:10048800BE003E08AE003F08AF00B001B101083021
:100498000310AE0DAF0DB00DB10DFF3E031D4C2A7C
:1004A8002E08BA072F0803110318013E03195D2A05
:1004B800BB07300803110318013E0319642ABC075F
:1004C800310803110318013E03196B2ABD073508CB
:1004D800AE003608AF003708B0003808B100183051
:1004E8000310B10CB00CAF0CAE0CFF3E031D742A08
:1004F8002E08BA072F0803110318013E0319852A8D
:10050800BB07300803110318013E03198C2ABC07E6
:10051800310803110318013E0319932ABD07083057
:10052800AE000310B50DB60DB70DB80DAE0B952A7C
:1005380039083407AE00AF01AF0D2E08823EBE0069
:100548002F080318013EFF3EBF00C72A0130AE0046
:100558000310BA0DBB0DBC0DBD0DAE0BAC2AB81FF8
:10056800B62AB72AB82A3A140130AE000310B50DDE
:10057800B60DB70DB80DAE0BBA2AFF30BE0703187B
:10058800BF0AFF30BF07BC1FCA2ACB2AAA2AB40158
:10059800B81FCF2AD02AEC2AFF303505AE00FF302D
:1005A8003605AF00FF303705B0007F303805B100A1
:1005B800310830042F042E040319E32AE42AE72A19
:1005C800B401B40AEC2A3A1CEA2AEB2AEC2AE42AF7
:1005D80034080319F02AF12A222B0130BA07003017
:1005E80003180130BB07003003180130BC07003086
:1005F80003180130BD073D1C022B032B222B3A08A0
:10060800AE003B08AF003C08B0003D08B100013027
:10061800B200310DB10CB00CAF0CAE0CB20B0D2BFF
:100628003108BD003008BC002F08BB002E08BA00F6
:100638000130BE070318BF0A0030BF073F08803AE1
:10064800FF0080307F02031D2B2BFF303E02031C6E
:100658002E2B2F2B3A2B7F3083120313BD008030B3
:10066800BC000030BB000030BA006F2B83120313AC
:100678003F08803AFF0080307F02031D452B013080
:100688003E020318482B492B552B003083120313C5
:10069800BD000030BC000030BB000030BA00B30120
:1006A8006F2B831203133E08AE002E08B900FF30EB
:1006B800BA05FF30BB057F30BC050030BD05391CCD
:1006C800662B672B682BBC173908AE0003102E0C5D
:1006D800AF002F08BD003308AE002E08BD043D084A
:1006E800A9003C08A8003B08A7003A08A600080093
:1006F8008312031347088039C8004808D100470807
:10070800C8004807C9004908D800C61F8C2B8D2B84
:100718008E2B581458080319922B932BA32B580A85
:10072800031D972B982BA02B0030C7000030C60064
:100738000030C5000030C400C617C701AB2B00301D
:10074800C7000030C6000030C5000030C4004308B0
:100758008039C8004808D1064308C8004807C900BE
:100768004908D900C21FB92BBA2BBB2B59145908F9
:100778000319BF2BC02BD02B590A031DC42BC52B23
:10078800CD2B0030C3000030C2000030C100003063
:10079800C000C217C301D82B0030C3000030C2000C
:1007A8000030C1000030C000430842044104400446
:1007B800031DDF2BE02BF92B0030C7000030C600EB
:1007C8000030C5000030C4008030C6047F30C70444
:1007D8005108C8004808C7044708C3004608C200B3
:1007E8004508C1004408C000582D5808031DFD2BBA
:1007F800FE2B072C0030C3000030C2000030C100BF
:100808000030C000582D5808C800C9014908CB005D
:1008180059084802CA00031CCB034A087F3ED2008D
:100828004B080318013E003ED3004708D000460895
:10083800CF004508CE004408CD000030C700003086
:10084800C6000030C5000030C4000030D7000030BA
:10085800D6000030D5000030D400D9017D2C5908CD
:100868000319372C382C582C0130C8000310CD0D33
:10087800CE0DCF0DD00DC80B3A2C0130C800031097
:10088800C40DC50DC60DC70DC80B432CD71F4D2C65
:100898004E2C4F2C44140130C8000310D40DD50D34
:1008A800D60DD70DC80B512C43085002031D662CDA
:1008B80042084F02031D662C41084E02031D662C98
:1008C80040084D02031C692C6A2C792C57174008E4
:1008D800CD024108031C410FCE024208031C420FFF
:1008E800CF024308031C430FD0020130C800480858
:1008F800D9071A305902031C822C832C332C500838
:100908004F044E044D0403198A2C8B2CAA2C541422
:10091800AA2C0130C8000310C40DC50DC60DC70DA3
:10092800C80B8F2CD71F992C9A2C9B2C4414013060
:10093800C8000310D40DD50DD60DD70DC80B9D2CAE
:10094800FF30D2070318D30AFF30D307C61FAD2CD8
:10095800AE2C8D2CD901D71FB22CB32CCF2CFF3045
:100968005405C800FF305505C900FF305605CA00B8
:100978007F305705CB004B084A0449044804031943
:10098800C62CC72CCA2CD901D90ACF2C441CCD2C73
:10099800CE2CCF2CC72C59080319D32CD42C052DB9
:1009A8000130C407003003180130C50700300318B0
:1009B8000130C607003003180130C707471CE52C73
:1009C800E62C052D4408C8004508C9004608CA0099
:1009D8004708CB000130CC004B0DCB0CCA0CC90C1E
:1009E800C80CCC0BF02C4B08C7004A08C6004908B5
:1009F800C5004808C4000130D2070318D30A0030E4
:100A0800D3075308803AFF0080307F02031D0E2D64
:100A1800FF305202031C112D122D202DFF3083129E
:100A28000313D2000030D3000030C7000030C600E6
:100A38000030C5000030C400831203135308803A05
:100A4800FF0080307F02031D2B2D01305202031856
:100A58002E2D2F2D3C2D83120313D201D3010030EC
:100A6800C7000030C6000030C5000030C400D10106
:100A7800831203135208C8004808D800581C452D93
:100A8800462D482DC6174C2D7F30C8004808C6058E
:100A98005808C8000310480CC9004908C700510885
:100AA800C8004808C704F02B0800F601F60A013010
:100AB8000A128A15AC260A128A1106300A128A15F9
:100AC800EE240A128A11E83083120313A0000330BF
:100AD800A1007B08A3007A08A2000A128A15BC2587
:100AE8000A128A11831203132108C7002008C600BE
:100AF8004708A8004608A7000A128A1580270A1284
:100B08008A11643083120313A0000030A1007B080F
:100B1800F5007A08F400E830F2000330F3000A1216
:100B28008A1547250A128A11730883120313A30032
:100B38007208A2000A128A15BC250A128A118312A9
:100B480003132108C7002008C6004708A800460864
:100B5800A7000A128A1580270A128A112E300A1253
:100B68008A1502260A128A110A3083120313A0007A
:100B78000030A1007B08F5007A08F4006430F20028
:100B88000030F3000A128A1547250A128A117308E1
:100B980083120313A3007208A2000A128A15BC2547
:100BA8000A128A11831203132108C7002008C600FD
:100BB8004708A8004608A7000A128A1580270A12C3
:100BC8008A110A30F2000030F3007B08F5007A0839
:100BD800F4000A128A1547250A128A11730883122B
:100BE8000313C5007208C4004508A8004408A700FC
:100BF8000A128A1580270A128A110F300A128A15DA
:100C0800EE240A128A11F601F60A02300A128A152F
:100C1800AC260A128A1101300A128A15EE240A1229
:100C28008A1113300A128A15EE240A128A118312C5
:100C380003136808A8006708A7000A128A15802706
:100C48000A128A110B300A128A15EE240A128A1126
:100C5800080083120313A00020080319342E352E30
:100C6800492EF51F382E392E492E7209A200730914
:100C7800A3007409A4007509A500A20A0319A30A10
:100C88000319A40A0319A50A512E7508A5007408AA
:100C9800A4007308A3007208A20075087404730402
:100CA8007204031D582E592E622E0030F5000030B4
:100CB800F4000030F3000030F200E82E9630F60021
:100CC8007608A100742E0130F6007608A1070130DD
:100CD8000310A50CA40CA30CA20CFF3E031D6C2E44
:100CE800FE302505031D792E7A2E672E962E0130AB
:100CF800F6007608A1070130A2070030031801307A
:100D0800A307003003180130A4070030031801308E
:100D1800A50701300310A50CA40CA30CA20CFF3EE0
:100D2800031D8E2EFF302505031D9B2E9C2E7B2E2A
:100D3800A82E0130A1020130F6000310A20DA30D68
:100D4800A40DA50DF60BA12EA41BAB2EAC2EB22E16
:100D5800023021020318B12EB22E9D2E2118B52E75
:100D6800B62EBE2EFF30A205FF30A3057F30A405A6
:100D7800FF30A5050310A10C2108F600F701F801C2
:100D8800F90118300310F60DF70DF80DF90DFF3EB7
:100D9800031DC62E7608A2047708A3047808A404C5
:100DA8007908A50420080319DA2EDB2EE02EF51F9A
:100DB800DE2EDF2EE02EA5172508F5002408F40006
:100DC8002308F3002208F200080000300A128A15EE
:100DD80081250A128A117308FB007208FA007A0842
:100DE800F2007B08F300F401F50100300A128A11C1
:100DF8002D260A128A11750883120313AD00740890
:100E0800AC007308AB007208AA004030A9009C30FF
:100E1800A8006A30A7007F30A6000A128A111B209A
:100E28000A128A11831203132908DD002808DC003E
:100E38002708DB002608DA000A128A1504270A1296
:100E48008A11831203135B08FB005A08FA00013069
:100E58000A128A1581250A128A117308831203134C
:100E6800E8007208E7006708F2006808F300F40178
:100E7800F50100300A128A112D260A128A11750806
:100E880083120313AD007408AC007308AB0072083A
:100E9800AA004030A9009C30A8006A30A7007F3023
:100EA800A6000A128A111B200A128A118312031340
:100EB8002908C7002808C6002708C5002608C40056
:100EC8003E30C300F030C200A330C100D730C000AC
:100ED8000A128A117C230A128A1183120313430807
:100EE800DD004208DC004108DB004008DA000A1295
:100EF8008A1504270A128A11831203135B08E80073
:100F08005A08E7000800831603138801081188119E
:100F180000300A128A1581240A128A119C30F700BF
:100F2800D730F600F60B962FF70B962F0330F70005
:100F38009730F600F60B9E2FF70B9E2FA32F03304A
:100F48000A128A1567240A128A111A30F700F83033
:100F5800F600F60BAD2FF70BAD2F000003300A1289
:100F68008A1567240A128A11C730F600F60BBA2FC1
:100F7800BD2F03300A128A1567240A128A1102301B
:100F88000A128A1567240A128A1102300A128A156F
:100F980067240A128A1108300A128A1567240A126D
:100FA8008A1100300A128A1567240A128A110C3035
:100FB8000A128A1567240A128A1100300A128A1541
:100FC80067240A128A1106300A128A1567240A123F
:100FD8008A11080083160313861006108312031360
:100FE80086148618F82FFC2F831203130614FF2F7C
:100FF800831203130610080008308A000408840AC4
:1010080082070034493420343D34203400345534C8
:1010180020343D342034003420342034413400342A
:0E102800203420345634003430342E3400345A
:10189600C430831603139F008030831203139F0006
:1018A60008008312031390161012901010151014CE
:1018B600831603130C140B178B17FC3083120313B8
:1018C6008F0018308E000800F500831203130811EC
:1018D60075080A128A1581240A128A1583120313BF
:1018E60088150330F4009730F300F30B782CF40BD3
:1018F600782C7D2C8312031388110800F200721CC9
:10190600852C862C8A2C8312031308168D2C8312A1
:1019160003130812F21C902C912C932C8816942CED
:101926008812721D972C982C9A2C08179B2C08133A
:10193600F21D9E2C9F2CA12C8817A22C8813080020
:101946000A128A154B240A128A150A128A15542479
:101956000A128A150A128A11EE270A128A150A1223
:101966008A1187270A128A150A128A11E9260A128B
:101976008A150A128A1159250A128A15B72C0A12D3
:101986008A110C2883120313A400A001A101720876
:10199600F400F5017408A2007508A300241CD42CD9
:1019A600D52CDB2C2208A0070318A10A2308A107BF
:1019B60001300310A20DA30DFF3E031DDC2C031006
:1019C600A40C2408031DE82CE92CD12C2108F300D3
:1019D6002008F200080083120313A200A001A1014F
:1019E600092D2008220784000A128A1500200A12EF
:1019F6008A150A128A1502260A128A1501308312DE
:101A06000313A0070318A10A0030A1072008220724
:101A160084000A128A1500200A128A15003A031D4C
:101A2600152D162DF42C0800831603130C1C1C2DE3
:101A36001D2D402D831203130C1C222D232D402D0A
:101A46000130E5070318E60A0030E60700306602B3
:101A5600643003196502031C312D322D342DE50146
:101A6600E6010A128A1555260A128A15D8308312FB
:101A760003138F00F0308E000C1071088A00700E70
:101A86008300FE0E7E0E09007208730403194C2DA6
:101A96004D2D7C2DF701F70A5B2D01300310F20D59
:101AA600F30DFF3E031D512D0130F6007608F707B2
:101AB600F31F5E2D5F2D502D73087502031D652DD6
:101AC60072087402031C682D692D6F2D7208F402CA
:101AD6007308031CF503F50201300310F30CF20C36
:101AE600FF3E031D702D0130F702031D7B2D7C2D5B
:101AF6005F2D7508F3007408F2000800F8008F2DBA
:101B0600831203139F111F129F129F2D831203131B
:101B16009F151F129F129F2D7808F400F501750876
:101B2600003A0319972D9F2D7408003A0319832D47
:101B3600013A0319892D9F2D831203131F140630B2
:101B4600F400F40BA42D0000831203131F151F19B4
:101B5600AD2DAE2DAA2D1E08F700831603131E0801
:101B6600F600831203131F107708F3007608F200BD
:101B7600080083120313A501A601200821040319F6
:101B8600C52DC62DFD2DA401A40AD42D01300310A8
:101B9600A00DA10DFF3E031DCA2D0130F8007808E7
:101BA600A407A11FD72DD82DC92D01300310A50DCF
:101BB600A60DFF3E031DD92D21082302031DE52D89
:101BC60020082202031CE82DE92DF02D2008A20290
:101BD6002108031CA303A302251401300310A10C42
:101BE600A00CFF3E031DF12D0130A402031DFC2DA8
:101BF600FD2DD82D2608A1002508A0000800F70015
:101C060077080F39F3007308F5007708F039F30009
:101C16007308F6008312031308157608F3000430E0
:101C26000310F30CFF3E031D132E73080A128A15C8
:101C360081240A128A158312031388150330F400CF
:101C46009730F300F30B252EF40B252E2A2E831244
:101C5600031388110330F4009730F300F30B312E91
:101C6600F40B312E362E75080A128A1581240A12B3
:101C76008A158312031388150330F4009730F30096
:101C8600F30B432EF40B432E482E831203138811B5
:101C96000330F4009730F300F30B4F2EF40B4F2E66
:101CA600542E080005307B02DC3003197A02031833
:101CB6005D2E5E2E612E83120313061405307B0201
:101CC600DC3003197A02031C692E6A2E812E00303D
:101CD6008312031366023330031965020318742E48
:101CE600752E772E0610812E0030660233300319CA
:101CF6006502031C7F2E802E812E0614023083126D
:101D060003136802EE300319670203188B2E8C2E1C
:101D16008D2E861402306802EE3003196702031C0A
:101D2600952E962EAB2E00306602333003196502CF
:101D360003189E2E9F2EA12E8610AB2E0030660213
:101D4600333003196502031CA92EAA2EAB2E861466
:101D5600080083120313A0002003031DB32EB42E24
:101D6600D92E76087F3EF7007708A3002308F700F0
:101D760004300310F70CFF3E031DBC2E7708F80055
:101D86007808A20023080F39F7007708A100220877
:101D96000A128A1567240A128A1583120313210868
:101DA6000A128A1567240A128A15032F02302006A2
:101DB600031DDE2EDF2E032F7608BF3EF7007708C1
:101DC600A3002308F70004300310F70CFF3E031DA1
:101DD600E72E7708F8007808A20023080F39F700E5
:101DE6007708A10022080A128A1567240A128A15A2
:101DF6008312031321080A128A1567240A128A1508
:101E060008000310831203135C0D5D0DDE005E08EF
:101E1600E4006408031D102F112F1A2F0030DD0077
:101E26000030DC000030DB000030DA007F2F5A087B
:101E3600DE005B08DF005C08E0005D08E1001F30A3
:101E46000310E10CE00CDF0CDE0CFF3E031D232F1C
:101E56005E08E2006208E300DC17FF30DA05FF30B7
:101E6600DB05FF30DC050030DD059630E402E41FBB
:101E76003D2F3E2F582F6408803A973E0318442F73
:101E8600452F462F112F01300310DD0CDC0CDB0C27
:101E9600DA0CFF3E031D472F0130DE005E08E40723
:101EA600031D562F572F462F6F2F20306402031C19
:101EB6005D2F5E2F6A2F112F0130DE000310DA0D21
:101EC600DB0DDC0DDD0DDE0B612F0130E402640855
:101ED600031D6E2F6F2F5F2F63080319732F742F47
:101EE6007F2FDA09DB09DC09DD09DA0A0319DB0AC7
:101EF6000319DC0A0319DD0A080083120313C00163
:101F0600C10127082804031D892F8A2F962F270829
:101F1600303EA9002908BF003F080A128A1502268A
:101F26000A128A15FF2F2708280403199B2F9C2FB6
:101F3600FF2FD02F0A30F2000030F3002808F500FA
:101F46002708F4000A128A1547250A128A158312F1
:101F560003134008A90029072B3E84007208831347
:101F66008000840A730880000A30A0000030A100B7
:101F76002808A3002708A2000A128A15BC250A12FF
:101F86008A15831203132108A8002008A700013030
:101F9600C0070318C10A0030C10727082804031D1B
:101FA600D52FD62F9D2FFF30C0070318C10AFF304B
:101FB600C1074108C3004008C200C31FE32FE42F36
:101FC600E52FFF2F4208A90029072B3E8400831323
:101FD6000008303EAA002A08BF003F080A128A15E8
:101FE60002260A128A15FF3083120313C20703184A
:0A1FF600C30AFF30C307E02F080004
:02400E00F23F7F
:00000001FF
