:020000040000FA
:060000000A128A110C280F
:10000800FE00030EF0000A08F1000A128A11A22865
:100018000A128A110F280A128A11F5200A128A1167
:10002800F6000A128A11F6200A128A11F7008301D3
:100038000A128A111F280630831603139F0088139B
:100048000A128A11F1200A128A1176087704031D10
:100058002E282F2834280A128A11CA200A128A1137
:100068005A3076067704031D3A283B2840280A129E
:100078008A1150200A128A11B43076067704031DBB
:100088004628472829280A128A117A200A128A1132
:1000980029280A128A110C28F401F5018312031386
:1000A80088170430F300E430F200F20B5928F30B00
:1000B800592800008312031388133130F3000B30E2
:1000C800F200F20B6528F30B65286A280130F40763
:1000D8000318F50A0030F5070030750232300319AD
:1000E8007402031C7828792852280800F401F501C5
:1000F8008312031388170730F3007D30F200F20BE8
:100108008328F30B83288312031388132E30F300FC
:100118007330F200F20B8E28F30B8E280130F407AF
:100128000318F50A0030F50700307502323003195C
:100138007402031CA028A1287C2808008B1DA52870
:10014800A628C3280B1CA928AA28C328831203138E
:10015800061AAF28B028B228F601F701861AB52882
:10016800B628BA285A30F6000030F700061BBD281A
:10017800BE28C228B430F6000030F7000B10710812
:100188008A00700E8300FE0E7E0E0900F401F50150
:10019800831203138817C730F200D228F20BD12834
:1001A800D528D6288312031388133330F300A530DB
:1001B800F200F20BDD28F30BDD280130F4070318F9
:1001C800F50A0030F5070030750232300319740261
:1001D800031CEF28F028CC2808008B150B108B1770
:0601E8000800FF34FF34A3
:02400E007A3FF7
:00000001FF
