:020000040000FA
:060000000A128A110E280D
:10000800FE00030EF9000408FA000A08FB000A12B1
:100018008A112B280A128A11112883133E30FD00F9
:100028000130FE00E430FF00343084000A128A11E7
:10003800D7210A128A112030840034300A128A111A
:10004800EE21FC01FD0183010A128A11C1298316E0
:1000580003138C1CED28831203138C1CED288C10C1
:100068000130A6070318A70A0030A707053026069F
:100078002704031DED28A601A7010A128A11F620FC
:100088000A128A110130F8007808FC0704307C064F
:100098000319FC01013083120313A4070318A50AEE
:1000A8000030A507FA3024062504031D5D28A401A5
:1000B800A5010130AC070318AD0A0030AD071030B8
:1000C8002C06273003192D06031D6C28AC01AD0141
:1000D800E830F0000330F1002D08F3002C08F2009E
:1000E8000A128A113E210A128A117008F80078084B
:1000F80083120313B000E830F0000330F1002D083C
:10010800F3002C08F2000A128A117A210A128A11C5
:10011800710883120313AB007008AA006430F00062
:100128000030F1002B08F3002A08F2000A128A11A5
:100138003E210A128A117008F80078088312031306
:10014800B1006430F0000030F1002B08F3002A08F9
:10015800F2000A128A117A210A128A11710883128E
:100168000313AB007008AA000A30F0000030F10059
:100178002B08F3002A08F2000A128A113E210A12FB
:100188008A117008F800780883120313B2000A3045
:10019800F0000030F1002B08F3002A08F2000A12E0
:1001A8008A117A210A128A117008F80078088312D5
:1001B8000313B3007D08031DE3280130E428003051
:1001C800F8007808FD007D080319EC280915ED28CA
:1001D80009117B088A007A088400790E8300FE0ED4
:1001E8007E0E0900FF308312031388002729871722
:1001F8000712871607173008343E84008313000857
:100208008800080007168712071787173108343E39
:100218008400831300088800080007168716071350
:1002280087173208343E84008313000888000800CA
:1002380007168716071787133308343E840083137D
:100248000008880008007C08F000F1017108003AF5
:1002580003192F293D297008003A0319FB28013A90
:1002680003190629033A03191129013A03191C290C
:100278003D290800F501F601700871040319752974
:10028800F701F70AF11B542901300310F00DF10DA5
:10029800FF3E031D49290130F4007408F707462979
:1002A80001300310F50DF60DFF3E031D55297108A9
:1002B8007302031D612970087202031C6A29700801
:1002C800F2027108031CF303F302751401300310E2
:1002D800F10CF00CFF3E031D6B290130F702031DE2
:1002E80054297608F1007508F000080070087104B8
:1002F8000319A729F501F50AF11B8E29013003100E
:10030800F00DF10DFF3E031D83290130F400740840
:10031800F507802971087302031D94297008720279
:10032800031C9C297008F2027108031CF303F302F2
:1003380001300310F10CF00CFF3E031D9D29013024
:10034800F502031D8E297308F1007208F0000800F9
:10035800831203131214921064308316031392004D
:1003680083120313921512169216921612158316FB
:1003780003138C140B178B1708008316031305152A
:100388008515051685160911071287120713871395
:1003980088010A128A11AC210A128A11D2297E0810
:1003A8008A007F088200D3210A128A118000840AF9
:1003B80004087D0603190034FF0A0319FE0AD72929
:1003C800C034F934A434B034993492348234F834D3
:1003D8008034903464008001840A040603190034D0
:0403E8000406EF29EF
:02400E00F13F80
:00000001FF
