:020000040800F2
:1000000070460020E90200089B110008AF100008AC
:100010009911000843050008411300080000000082
:10002000000000000000000000000000290200089D
:100030004505000800000000850200089D11000829
:100040000303000803030008030300080303000878
:100050000303000803030008030300080303000868
:100060000303000803030008030300080303000858
:100070000303000803030008030300080303000848
:100080000303000803030008030300080303000838
:100090000303000803030008030300080303000828
:1000A000030300086D12000803030008030300089F
:1000B0000303000803030008030300080303000808
:1000C00003030008030300080303000803030008F8
:1000D00003030008030300080303000803030008E8
:1000E00003030008030300080303000803030008D8
:1000F00003030008030300080303000803030008C8
:1001000003030008030300080303000803030008B7
:1001100003030008030300080303000803030008A7
:100120000303000803030008030300080303000897
:100130000303000803030008030300080303000887
:100140000303000803030008030300080303000877
:100150000303000803030008030300080303000867
:100160000303000803030008030300080303000857
:100170000303000803030008030300080000000055
:10018000030300080303000800F002F800F03CF845
:100190000AA090E8000C82448344AAF10107DA45E2
:1001A00001D100F031F8AFF2090EBAE80F0013F0F8
:1001B000010F18BFFB1A43F001031847D81D0000B8
:1001C000F81D0000103A24BF78C878C1FAD8520749
:1001D00024BF30C830C144BF04680C6070470000C1
:1001E0000023002400250026103A28BF78C1FBD840
:1001F000520728BF30C148BF0B6070471FB501F0E0
:100200008FFE1FBD10B510BD00F061F91146FFF75C
:10021000F5FF01F0A7F800F07FF903B4FFF7F2FF54
:1002200003BC00F087F900002C4B19680868B0E89F
:10023000F04F80F30988BFF36F8F4FF0000080F319
:10024000118870470000000008480068006880F3CB
:1002500008884FF0000080F3148862B661B6BFF3DF
:100260004F8FBFF36F8F00DF00BF00BF08ED00E0CE
:10027000DFF80C00016841F470010160704700BFB5
:1002800088ED00E0EFF30980BFF36F8F134B1A681E
:100290001EF0100F08BF20ED108A20E9F04F10600B
:1002A00009B44FF0500080F31188BFF34F8FBFF3B4
:1002B0006F8F01F04DFC4FF0000080F3118809BCF6
:1002C00019680868B0E8F04F1EF0100F08BFB0ECD6
:1002D000108A80F30988BFF36F8F704718000020E1
:1002E000EFF3058070470000094880470948004740
:1002F000FEE7FEE7FEE7FEE7FEE7FEE7FEE7FEE7D6
:10030000FEE7FEE704480549054A064B7047000032
:100310005D1200088901000870400020704600202E
:10032000704200207042002053EA020C00F0698005
:100330002DE9F04B4FF00006002B1FBFB3FA83F5F9
:1003400003FA05F424FA05F65E4012BF1643B2FA2A
:1003500082F502FA05F4C5F120051EBF22FA05FC5C
:1003600044EA0C04203556EA044C4FEA144418BF02
:10037000641C4FF000084FF00009904271EB030C31
:1003800039D3002919BFB1FA81F701FA07F6B0FA9B
:1003900080F700FA07F6C7F120071EBF20FA07FC16
:1003A00046EA0C062037B6FBF4FCA7EB0507103F26
:1003B00007F01F0BCBF120060CFA0BFB2CFA06F60C
:1003C00044BFB3460026202FA4BF5E464FF0000B6B
:1003D0005BEA060C08BF4FF0010B19EB0B09ABFBF6
:1003E000027C48EB0608C01B06FB02CC0BFB03CCCF
:1003F00071EB0C01C1E70B46024641464846BDE899
:10040000F08B13B54FF000004FF00001AFF3008008
:10041000BDE81C40704710B5203AC0F00B80B1E831
:100420001850203AA0E81850B1E81850A0E8185029
:10043000BFF4F5AF5FEA027C24BFB1E81850A0E832
:10044000185044BF18C918C0BDE810405FEA827C4C
:1004500024BF51F8043B40F8043B08BF7047D20763
:1004600028BF31F8023B48BF11F8012B28BF20F804
:10047000023B48BF00F8012B70474FF0000200B567
:10048000134694469646203922BFA0E80C50A0E8B7
:100490000C50B1F12001BFF4F7AF090728BFA0E865
:1004A0000C5048BF0CC05DF804EB890028BF40F831
:1004B000042B08BF704748BF20F8022B11F0804F73
:1004C00018BF00F8012B704770477047704775469A
:1004D00000F02CF8AE4605006946534620F00700B0
:1004E000854618B020B5FFF70DFFBDE820404FF05E
:1004F00000064FF000074FF000084FF0000B21F00E
:100500000701AC46ACE8C009ACE8C009ACE8C009DA
:10051000ACE8C0098D46704710B50446AFF30080C3
:100520002046BDE81040FFF778BE00000048704745
:100530000C40002001491820ABBEFEE72600020057
:100540007047FEE77047000070B5044600F010F9F0
:100550000546601C02D004480078044400F008F905
:10056000401BA042FAD370BD080000202DE9F84FCF
:10057000DFF8BCA1002201250AF1040B03264FF08D
:100580000F090BF1040E00BF0B6805FA02F42340BB
:10059000A34270D10F7907F00307012F01D0022F7A
:1005A00016D187684FEA420806FA08FC27EA0C07CA
:1005B000D1F80CC00CFA08FC4CEA070CC0F808C0D3
:1005C0004768A7430C79C4F3001494403C4344604B
:1005D0000C79E443A4070AD0C4684FEA420C06FA37
:1005E0000CF7BC438F6807FA0CF72743C7600C79F8
:1005F00004F00304022C12D1D40800EB840CDCF8C4
:1006000020405707FF0E09FA07F824EA0804D1F83A
:10061000108008FA07F848EA0408CCF8208004683B
:100620004FEA420C06FA0CF7BC430F7907F00307B8
:1006300007FA0CF7274307604C6814F4403F70D06A
:100640003C4C276847F480472760246822F0030762
:1006500004F480440094384C07EB040CDCF80848A0
:1006600097074FEA177809FA08F7BC43334FB842A7
:1006700002D1002724E054E0314FB84201D10127D4
:100680001EE0304FB84201D1022719E02E4FB84288
:1006900001D1032714E02D4FB84201D104270FE008
:1006A0002B4FB84201D105270AE02A4FB84201D1A9
:1006B000062705E0284FB84201D1072700E00827A8
:1006C00007FA08F72743CCF80878DAF800405746CD
:1006D000D1F804C09C435FEACC3C00D51C433C608D
:1006E000DBF800405F46D1F804C09C435FEA8C3CD5
:1006F00000D51C433C60DEF800407746D1F804C0CA
:100700009C435FEACC2C00D51C433C60084F0C375F
:100710003C68D1F804C09C435FEA8C2C00D51C4394
:100720003C60521C102AFFF42FAFBDE8F88F000088
:10073000003C0140443802400030014000000240CB
:100740000004024000080240000C02400010024079
:100750000014024000180240001C024000690840DA
:1007600000D0012070470AB1816170470904FBE79E
:100770000148806870470000080000200248816836
:100780000278114481607047080000200B4810B5C2
:10079000016841F400710160016841F48061016009
:1007A000016841F480710160032000F08DF80F2092
:1007B00000F006F800F03EF8002010BD003C0240BA
:1007C00010B5014688B00022192000F05DF819200C
:1007D00000F04CF813480024016841F00101016069
:1007E000006805A900F001000690684600F018F9BD
:1007F00000F036F90C494000B0FBF1F10C480B4A0F
:10080000491E026040F2E732C0E90324C0E9011446
:1008100000F01EFB10B1012008B010BD044800F02C
:1008200045FBF9E74438024040420F000000014018
:10083000D40200200C4882B0016841F4804101607C
:10084000006800F4804000900748001F016841F0F4
:10085000805101600068002200F0805000900F215C
:10086000901E02B000F010B844380240002809DBA6
:1008700000F01F02012191404009800000F1E020BA
:10088000C0F8001170470000F0B40E4B1B680C4616
:10089000C3F30223C3F10705042D00D90425191D54
:1008A000072901D2002300E0DB1E012606FA05F12C
:1008B000491E214099409E40761E16403143F0BCAF
:1008C00000F03FBD0CED00E0064900F007020868AB
:1008D0004FF6FF03184040EA0220034A1043086025
:1008E000704700000CED00E00000FA052DE9F0472C
:1008F0000E46050065D0DFF81481D8F80000F7B285
:1009000000F00700B04207D288F80070D8F8000065
:1009100000F00700B04254D128683D4C810712D541
:10092000400703D5206840F4E05020602878000795
:1009300003D5206840F4604020602068A96820F05A
:10094000F000084320602878C0072DD0304968683F
:100950000839012812D0022813D0032811D00968C1
:10096000890700292DDA216821F003010143216064
:10097000FFF7FEFE814641F2883A0EE009688903DE
:10098000EFE709688901ECE7FFF7F2FEA0EB090148
:10099000514502D90320BDE8F0872068696800F05E
:1009A0000C00B0EB810FEFD1D8F80010404601F0F9
:1009B0000701B14207D90770006800F00700B04294
:1009C00001D00120E7E72878400705D52068E968CD
:1009D00020F4E050084320602878000706D52068FE
:1009E000296920F4604040EAC100206000F048F826
:1009F0002168084AC1F30311515CC84006490860E8
:100A000006480068FFF7DCFE0020C4E7003C024017
:100A100008380240641F0008140000200C00002069
:100A20000F2202600C4A136803F00303436013684B
:100A300003F0F0038360136803F4E053C3601268AB
:100A40004FF4E05303EAD20202610448006800F068
:100A5000070008607047000008380240003C024070
:100A60000448054900680968044AC1F34231515CF1
:100A7000C84070471400002008380240741F000866
:100A8000154810B5006810F00C02144813D041103E
:100A9000042A0FD0082A0ED10F4C241F2268236885
:100AA00002F03F025B0207D52068C0F38810A0FB6C
:100AB000010106E0084610BD2168C1F38811A1FBC1
:100AC00000010023FFF730FC2168C1F30141491CFC
:100AD0004900B0FBF1F010BD083802400024F400DA
:100AE0002DE9F84F04006ED02078DFF84C93C00752
:100AF000A9F104054AD009F104000168C1F381019C
:100B0000012908D00068C0F3810002280AD1D9F871
:100B10000000400206D52868800337D560680028A9
:100B2000E1D033E06068B0F5803F10D0B0F5A02F81
:100B3000286810D020F480302860286820F48020B5
:100B400028606068A8B1FFF713FE06460DE028682C
:100B500040F48030F4E740F480202860F7E700BFDD
:100B6000FFF706FE801B642873D828688003F7D53A
:100B70000CE0FFF7FDFD064605E000BFFFF7F8FDBE
:100B8000801B6428F0D828688003F7D42078DFF829
:100B9000AC8280074FF0000A3ED5A748001D0168CF
:100BA00011F00C0F08D00068C0F3810002280BD1AF
:100BB000D9F80000400207D42868800716D5E068FD
:100BC000012800D112E033E1E068B8B10120C8F893
:100BD0000000FFF7CDFD064605E000BFFFF7C8FDAA
:100BE000801B0228C0D828688007F7D528682169AB
:100BF00020F0F80040EAC10028600DE0C8F800A02D
:100C0000FFF7B6FD064604E0FFF7B2FD801B0228A1
:100C10001FD828688007F7D42078000722D5864F90
:100C200087486169703771B101210160FFF7A0FD4C
:100C3000064604E0FFF79CFD801B022809D83868AF
:100C40008007F7D50EE0C0F800A0FFF791FD06463B
:100C500005E082E0FFF78CFD801B02287DD8386814
:100C60008007F7D42078400768D5DFF8CCB100279B
:100C70000BF13C0BDBF80000C0000BD4DBF80010DC
:100C800041F08051CBF80010DBF80000012700F0A4
:100C9000805000906B4E3068C00510D4306840F42E
:100CA00080703060FFF764FD009005E0FFF760FDA5
:100CB0000099401A022850D83068C005F6D55E4E1B
:100CC000A0686C3601280FD00528306810D020F0BD
:100CD00001003060306820F004003060A068B8B1D6
:100CE000FFF746FD00900FE0306840F00100F4E7A8
:100CF00040F004003060F7E7FFF73AFD0099411A31
:100D000041F28830814266D830688007F4D50EE021
:100D1000FFF72EFD009007E0FFF72AFD0099411A2A
:100D200041F28830814256D830688007F4D42FB120
:100D3000DBF8001021F08051CBF80010A069C8B397
:100D40003D49091D0968C1F3810102294AD00228E1
:100D5000504607D0C8F8600000E03CE0FFF708FD0F
:100D600004463BE04746C8F86000FFF701FD064631
:100D700005E000BFFFF7FCFC801B02282BD8286889
:100D80008001F7D4D4E907010843A16A2E4A490833
:100D900002EB0141626A41EA8211084394F82C1087
:100DA00040EA0161C9F8001001203866FFF7E0FC55
:100DB000044606E03EE000BFFFF7DAFC001B022815
:100DC00009D828688001F7D534E000BFFFF7D0FCD0
:100DD000001B022802D90320BDE8F88F2868800193
:100DE000F4D427E00128F7D0D9F80000E26900F434
:100DF000800191421CD1226A00F03F01914217D13B
:100E000047F6C071626A0140B1EB821F10D1A26A3D
:100E10004FF0FF3300F4403103EB5202B1EB024FCD
:100E200006D194F82C1000F07060B0EB016F01D087
:100E30000120D1E70020CFE70438024000004742FC
:100E4000800E4742007000400000FFFF704770476F
:100E500010B5040003D094F83D0010B107E0012064
:100E600010BD002084F83C00204600F01EF802204F
:100E700084F83D00211D206800F0FEF9012084F86F
:100E8000460084F83E0084F83F0084F8400084F86F
:100E9000410084F8420084F8430084F8440084F858
:100EA000450084F83D00002010BD704790F83D10CB
:100EB000012901D001207047022180F83D1001680E
:100EC000CA6842F00102CA6000681149884214D021
:100ED000B0F1804F11D00F4988420ED00E498842A0
:100EE0000BD00E49884208D00D49884205D00D49E3
:100EF000884202D00C49884204D1816801F0070180
:100F0000062903D0016841F001010160002070470B
:100F1000000001400004004000080040000C0040B8
:100F2000000401400040014000180040704770B5C7
:100F30000446006801694FF00005C943890715D4CC
:100F4000C168C943890711D4E91E016101202077D6
:100F5000206880698007204602D0FFF7E7FF04E0A1
:100F600000F098F8204600F096F82577206801698F
:100F7000C943490717D4C168C943490713D46FF05F
:100F800004010161022020772068806910F4407F0D
:100F9000204602D0FFF7CAFF04E000F07BF82046AD
:100FA00000F079F8257720680169C943090716D44C
:100FB000C168C943090712D46FF008010161042018
:100FC00020772068C0698007204602D0FFF7AEFF77
:100FD00004E000F05FF8204600F05DF82577206817
:100FE0000169C943C90617D4C168C943C90613D4E6
:100FF0006FF010010161082020772068C06910F4AB
:10100000407F204602D0FFF791FF04E000F042F855
:10101000204600F040F8257720680169C943C907D8
:1010200008D1C168C943C90704D1891E016120469E
:1010300000F032F820680169C943090609D4C16883
:10104000C943090605D46FF0800101612046FFF70E
:10105000FDFE20680169C943490609D4C168C94336
:10106000490605D46FF040010161204600F01EF8EA
:1010700020680169C94389060BD4C168C943890640
:1010800007D46FF0200101612046BDE87040FFF7F2
:10109000DEBE70BD7047704700680349884201D1C9
:1010A000FFF76CBB70470000000001407047FEE78F
:1010B0000B4C4FF48055012229462046FFF753FB85
:1010C0006420FFF741FA002229462046FFF74BFB38
:1010D0006420FFF739FA012000F06EF9EBE7000019
:1010E000000C02400A4C0B4E4FF4004501212046F3
:1010F000FFF734FB012808D0002229463046FFF7CD
:1011000032FB012000F058F9F0E70122F5E700007A
:1011100000000240000C0240F0B587B01421684680
:10112000FFF7ABF919480024016841F08001016024
:10113000016801F080010591016841F00101016041
:10114000016801F001010591016841F008010160A9
:1011500000680F4F00F008004FF470460590002221
:1011600031463846FFF7FFFA0125CDE900546946BC
:1011700008480294FFF7FAF90096CDE90154694650
:1011800038460394FFF7F2F907B0F0BD303802405B
:10119000000C024000000240FEE7FEE710B55020C0
:1011A00080F31188BFF34F8FBFF36F8F00F0E8FD1E
:1011B00018B104494FF080500860002080F3118876
:1011C00010BD000004ED00E030B593B0302168465A
:1011D000FFF753F914210CA8FFF74FF91D4800251C
:1011E000016841F080510160006800F0805011906A
:1011F0001948016841F4804101600068022400F44C
:101200008040119001200090000401908001CDE900
:101210000640082008904FF4A870CDE90904042086
:101220000B906846FFF75CFC08B172B6FEE70CA9AC
:101230000F2081E831004FF4A0500F90109005214D
:101240000CA8FFF753FB002801D072B6FEE713B0DD
:1012500030BD000040380240007000400248016884
:1012600041F470010160704788ED00E00148FFF72C
:101270005EBE0000D4020020F0B50268254C264D69
:10128000264E274F274B4FF0804CA04209D0604597
:1012900007D0A84205D0B04203D0B84201D098424E
:1012A00004D122F0700E4A6842EA0E02A0421BD01E
:1012B000604519D0A84217D0B04215D0B84213D01B
:1012C000984211D0184DA8420ED0184DA8420BD00C
:1012D000174DA84208D0174DA84205D0164DA84278
:1012E00002D0164DA84203D122F44075CA682A43A1
:1012F0004D6922F080022A4302608A68C2620A684D
:101300008262A04201D0984201D1096901630121A2
:101310004161F0BD000001400004004000080040B1
:10132000000C004000040140004001400044014026
:101330000048014000180040001C00400020004010
:10134000FEE70907090E002804DB00F1E02080F821
:101350000014704700F00F0000F1E02080F8141D29
:10136000704700008EB0FFF711FAFFF72DFFFFF76F
:10137000D3FE1C220B496846FFF74DF80021684652
:1013800000F027F8084C07491C2220601C3107A8F0
:10139000FFF741F8002107A800F01BF8606000F09B
:1013A00013F8FEE72C1F000800000020002184280D
:1013B00000D0C11C0846704710B5002800D101209C
:1013C00000F052FB002010BD10B500F075FB0020AE
:1013D00010BD30B585B004460D466169B4F908000A
:1013E000002910D0A16971B1FFF7E0FF6269A1691E
:1013F0000192029100902B4622692168606800F0FA
:101400008FFC049010E0FFF7D1FF04A90191009038
:10141000208A2B4682B22168606800F04BFC0128CC
:1014200002D005B0002030BD049805B030BD0000EA
:101430002DE9F04104460F46194EF5683068001D4D
:1014400000F044FA48B93068012190F82C0001FA04
:1014500000F0316921EA00003061B4F1FF3F07D1AB
:1014600037B13068BDE8F041011D0E4800F075BA93
:101470002C4430684460AC4206D23068011DB06B29
:10148000BDE8F04100F04EBA3068011D706B00F00D
:1014900049FAB06A844200D2B462BDE8F08100002B
:1014A00018000020F803002070B5044600F062FA2E
:1014B0001C4DA868401CA860286810B1686938B144
:1014C0000CE02C60A868012808D100F0EDF805E0D8
:1014D0002868E16AC06A884200D82C60686A401CAB
:1014E0006862E06A01212A698140114329610E493D
:1014F00000EB800001EB8000211D00F02EFA00F0CF
:1015000059FA686900280CD02868E16AC06A8842E4
:1015100007D206494FF080500860BFF34F8FBFF3EA
:101520006F8F70BD180000201C03002004ED00E048
:1015300070B50D4C6068002815D00C4E00F01AFAFA
:10154000F068C568281D00F0C1F9A068401EA060C1
:101550006068401E606000F02DFA284600F008F830
:1015600060680028EAD170BD18000020E403002064
:1015700010B5044694F8511000290BD0012911D060
:10158000022914D0502080F31188BFF34F8FBFF38E
:101590006F8FFEE7206B00F023FA2046BDE8104075
:1015A00000F01EBA2046BDE8104000F019BA10BD88
:1015B0004FF47051104810F0070F06D0C01D20F0F6
:1015C00007000D49411AC1F570510C4A1060002303
:1015D00053600144083921F00701183A11604B604B
:1015E0000B600B1A436001604068906050604FF0E0
:1015F00000405061704700000C0400206C00002087
:10160000074E4FF08054074DFFF792FF30680128D6
:10161000FAD92C60BFF34F8FBFF36F8FF4E7000050
:101620001C03002004ED00E02DE9F0478146099EEF
:10163000089D0A9C9A46521E206B00EB820020F007
:101640000708002700290CD0002023180A5C83F823
:1016500034200A5C12B1401C1028F6D384F8437081
:1016600001E084F83470072D00D30625E562656437
:10167000A764201D00F053F904F1180000F04FF9A1
:101680002461C5F10700A0616462E76484F85070CA
:1016900052464946404600F003F92060002E00D033
:1016A0003460BDE8F087000070B500240F4D04EBF6
:1016B000840005EB800000F027F9641C072CF6D3AA
:1016C0000B4800F021F90B4800F01EF90A4800F021
:1016D0001BF90A4800F018F9094800F015F9094803
:1016E000034941631431816370BD00001C03002075
:1016F000A8030020BC030020D0030020E403002046
:10170000F80300201800002010B4144900E011462E
:101710000A688242FBD34B6803EB010C844503D17A
:1017200040681844486008460C68D0F804C00CEBC8
:101730000003A3420CD10A4B1B689A4206D05268A0
:10174000624442600A681268026002E0036000E0DE
:101750000260814200D0086010BC70476C0000201D
:10176000540000200749486B0068002805D0486BEA
:10177000C068C0684068886270474FF0FF30886278
:1017800070470000180000200A484068B0F1FF3F91
:1017900007D0502080F31188BFF34F8FBFF36F8FB6
:1017A000FEE7502080F31188BFF34F8FBFF36F8F98
:1017B000FEE70000740000202DE9F04105460026F8
:1017C00000F0BEF9344F386808B9FFF7F1FE7869C8
:1017D000054251D19DB1083515F0070F0FD005F026
:1017E0000700C0F10800054415F0070F07D050208E
:1017F00080F31188BFF34F8FBFF36F8FFEE7002D8B
:101800003AD07868854237D824490846046801E010
:10181000214604466068A84202D220680028F7D119
:101820003868844228D0086800F1080620680860FB
:101830006068411B10290FD9601910F0070F07D0FD
:10184000502080F31188BFF34F8FBFF36F8FFEE7F7
:1018500041606560FFF758FF61687868401A7860FA
:10186000BA68904200D2B86078690843606000208E
:101870002060F868401CF86000F0ECFA16F0070FE2
:1018800007D0502080F31188BFF34F8FBFF36F8FC5
:10189000FEE73046BDE8F081540000206C000020D7
:1018A000001F4FF080730360001F21F001010160F1
:1018B000001F0549016014380260001F6FF002012B
:1018C00001602038704700008917000801694368EB
:1018D00082689A60836842685A604A68824201D18D
:1018E00082684A60002202610868401E0860086839
:1018F00070470000034B036003F154000860802030
:10190000106070478000002000F1080141604FF036
:10191000FF328260C16001610021016070470021D7
:101920000161704710B4D1F800C0BCF1FF3F02D094
:1019300000F1080202E0026904E01A4653681C68DC
:101940006445FAD953684B6099608A6051600861B8
:101950000168491C016010BC704742684A60936886
:101960008B6093685960916008610168491C01604F
:1019700070470000502080F31188BFF34F8FBFF3F2
:101980006F8F0A494868401C486001280CD10848FC
:10199000006810F0FF0F07D0502080F31188BFF3CC
:1019A0004F8FBFF36F8FFEE7704700007400002079
:1019B00004ED00E009494868002806D0401E486050
:1019C000002801D180F311887047502080F31188DE
:1019D000BFF34F8FBFF36F8FFEE70000740000204E
:1019E00070B500282AD0A0F10804154D6068696917
:1019F000084207D1502080F31188BFF34F8FBFF307
:101A00006F8FFEE722683AB1502080F31188BFF350
:101A10004F8FBFF36F8FFEE78843606000F090F850
:101A200060686968084468602046FFF76DFE2869B1
:101A3000401C2861BDE8704000F00CBA70BD000089
:101A4000540000204FF0E020002101618161054930
:101A50004FF47A720968B1FBF2F1491E4161072126
:101A6000016170471400002010B502460020002AD2
:101A700012D00F48006B38B1502080F31188BFF3AB
:101A80004F8FBFF36F8FFEE700F05AF8002110462A
:101A9000FFF7CEFC00F0DEF9002807D105494FF032
:101AA00080500860BFF34F8FBFF36F8F10BD0000F1
:101AB0001800002004ED00E010B586B00024059465
:101AC000049403AA04A905A8FFF714FF0598049934
:101AD000019102900023009415A11748039A00F089
:101AE0001FF91649C86208B1012000E00020012852
:101AF0000AD0B0F1FF3F19D1502080F31188BFF315
:101B00004F8FBFF36F8FFEE7502080F31188BFF334
:101B10004F8FBFF36F8F4FF0FF3088620120486115
:101B2000CC6006B0BDE8104000F042B806B010BD71
:101B300049444C4500000000011600081800002030
:101B40000248016B491C0163704700001800002027
:101B5000154A106B002802D00120D0617047002088
:101B6000D0611069B0FA80F0C0F11F000F4900EB9E
:101B7000800051F8203073B101EB80004168496862
:101B8000416000F10803994201D149684160406811
:101B9000C06810607047502080F31188BFF34F8FEA
:101BA000BFF36F8FFEE70000180000201C03002029
:101BB00010B582B038480168384A914207D15020A8
:101BC00080F31188BFF34F8FBFF36F8FFEE700687C
:101BD0003349884207D1502080F31188BFF34F8FDB
:101BE000BFF36F8FFEE72F4908780190FF20087040
:101BF000087800909DF800009DF8002000F0F000AB
:101C0000904207D0502080F31188BFF34F8FBFF36D
:101C10006F8FFEE79DF80000234C00F0500020700D
:101C20000720A0609DF8000010F0800F0BD0A06886
:101C3000401EA0609DF80000400000909DF800004C
:101C400010F0800FF3D1A068032807D0502080F354
:101C50001188BFF34F8FBFF36F8FFEE74FF44070D3
:101C6000A060019808701148016841F4700101609A
:101C7000016841F070410160FFF7E4FE0020606000
:101C8000FEF7F6FA0A48016841F040410160FEF7AC
:101C9000DBFA02B0002010BD00ED00E071C20F4180
:101CA00070C20F4100E400E07400002020ED00E06D
:101CB00034EF00E02DE9F04F85B081460F9F0E9E76
:101CC0008A4690469B464FEA8800FFF775FD054619
:101CD00028000AD05420FFF76FFD04460CB125639D
:101CE00004E02846FFF77CFE00E000249CB10020C1
:101CF00084F8510003905B46424651460197009696
:101D000002944846FFF790FC2046FFF7CDFB05B054
:101D10000120BDE8F08F05B04FF0FF30BDE8F08F37
:101D200070B586B00646DDF828C00C9C0B980028DC
:101D300016D0ECB1542504952063022084F851009C
:101D4000002005AD0390CDF800C001950294304607
:101D5000FFF76AFC2046FFF7A7FB059806B070BDA9
:101D6000502080F31188BFF34F8FBFF36F8FFEE7D2
:101D7000502080F31188BFF34F8FBFF36F8FFEE7C2
:101D80002DE9F0470026314F386B002805D0B8699F
:101D9000401CB8613046BDE8F087F868451CFD601E
:101DA0009DB9786B006838B1502080F31188BFF37B
:101DB0004F8FBFF36F8FFEE7786BB96B7963B863B2
:101DC000386A401C3862FFF7CDFCB86ADFF88080C3
:101DD00085420FD34FF00109786B006838B1786BFA
:101DE000C068C4686068854212D2B86202E04FF0F1
:101DF000FF30B8623868C06A00EB800058F82000F5
:101E0000012800D90126F8690028C3D00126C1E7BE
:101E1000201DFFF75BFDA06A18B104F11800FFF761
:101E200055FDE16A3A6909FA01F01043386101EBA6
:101E3000810008EB8000211DFFF78FFDE06A396803
:101E4000C96A8842C8D30126C6E7000018000020EE
:101E50001C0300202DE9F0470024A0462D4D286BDF
:101E6000002807D0FFF786FD286B401E2863286BEB
:101E700040B149E0502080F31188BFF34F8FBFF38A
:101E80006F8FFEE7A86800283ED0234F38680126F0
:101E900000B3A7F1B409F868C46804F11800FFF7AB
:101EA00015FD201DFFF712FDE06A2A6906FA00F110
:101EB0001143296100EB800009EB8000211DFFF731
:101EC0004CFDE06A2968C96A884200D3EE6138682F
:101ED0000028E0D10CB1FFF745FCAC6944B1FFF735
:101EE0004FFF00B1EE61641E002CF8D10020A86104
:101EF000E86948B14FF0010808494FF08050086088
:101F0000BFF34F8FBFF36F8FFFF754FD4046BDE81F
:101F1000F087000018000020D003002004ED00E04E
:101F20004FF04070E1EE100A704700007C1F00087F
:101F3000B110000800000000000000008000000058
:101F40000000000000000000881F0008E5100008E5
:101F50000100000000000000800000000000000000
:101F60000000000000000000000000000102030467
:101F70000607080900000000010203044C45445F05
:101F8000424C494E4B0000004C45445F425554546E
:101F90004F4E0000B41F0008000000208000000029
:101FA000C40100083420000880000020F045000033
:101FB000E001000800000000000000000100000037
:101FC00010000000000000000024F40000000000E9
:101FD0000000000000000000000000000000000001
:101FE00000000000000000000000000000000000F1
:101FF00000000000000000000000000000000000E1
:1020000000000000000000000000000000000000D0
:1020100000000000000000000000000000000000C0
:10202000000000000000000000000000AAAAAAAA08
:0420300000000000AC
:040000050800018965
:00000001FF
