:020000040800F2
:1000000060130020690200088B190008F518000829
:10001000891900085F040008E537000800000000A7
:10002000000000000000000000000000711B00083C
:10003000AD040008000000006F1B0008731B0008DF
:10004000830200088302000883020008830200087C
:10005000830200088302000883020008830200086C
:10006000830200088302000883020008830200085C
:10007000830200088302000883020008830200084C
:10008000830200088302000883020008830200083C
:10009000830200088302000883020008830200082C
:1000A000830200088302000883020008830200081C
:1000B000830200088302000883020008830200080C
:1000C00083020008830200088302000883020008FC
:1000D00083020008830200088302000883020008EC
:1000E00083020008830200088302000883020008DC
:1000F00083020008830200088302000883020008CC
:1001000083020008830200088302000883020008BB
:1001100083020008830200088302000883020008AB
:10012000830200088302000883020008830200089B
:10013000830200088302000883020008830200088B
:100140008302000883020008830200088D1900085A
:10015000830200088302000883020008830200086B
:10016000830200088302000883020008830200085B
:1001700083020008830200088302000800000000D8
:10018000830200088302000800F002F800F05CF827
:100190000AA090E8000C82448344AAF10107DA45E2
:1001A00001D100F051F8AFF2090EBAE80F0013F0D8
:1001B000010F18BFFB1A43F00103184780360000F7
:1001C000A03600000A444FF0000C10F8013B13F079
:1001D000070408BF10F8014B1D1108BF10F8015BA0
:1001E000641E05D010F8016B641E01F8016BF9D193
:1001F00013F0080F1EBF10F8014BAD1C0C1B09D1EA
:100200006D1E58BF01F801CBFAD505E014F8016B5B
:1002100001F8016B6D1EF9D59142D6D370470000ED
:100220000023002400250026103A28BF78C1FBD8FF
:10023000520728BF30C148BF0B6070471FB503F09D
:10024000EFFA1FBD10B510BD00F0CFF81146FFF753
:10025000F5FF03F0C9FA00F0EDF803B4FFF7F2FF81
:1002600003BC00F0F5F80000094880470948004742
:10027000FEE7FEE7FEE7FEE7FEE7FEE7FEE7FEE756
:10028000FEE7FEE704480549054A064B70470000B3
:100290000D1C000889010008600D0020601300207B
:1002A000600F0020600F002053EA020C00F069800C
:1002B0002DE9F04B4FF00006002B1FBFB3FA83F57A
:1002C00003FA05F424FA05F65E4012BF1643B2FAAB
:1002D00082F502FA05F4C5F120051EBF22FA05FCDD
:1002E00044EA0C04203556EA044C4FEA144418BF83
:1002F000641C4FF000084FF00009904271EB030CB2
:1003000039D3002919BFB1FA81F701FA07F6B0FA1B
:1003100080F700FA07F6C7F120071EBF20FA07FC96
:1003200046EA0C062037B6FBF4FCA7EB0507103FA6
:1003300007F01F0BCBF120060CFA0BFB2CFA06F68C
:1003400044BFB3460026202FA4BF5E464FF0000BEB
:100350005BEA060C08BF4FF0010B19EB0B09ABFB76
:10036000027C48EB0608C01B06FB02CC0BFB03CC4F
:1003700071EB0C01C1E70B46024641464846BDE819
:10038000F08B13B54FF000004FF00001AFF3008089
:10039000BDE81C4070474FF0000200B5134694467C
:1003A0009646203922BFA0E80C50A0E80C50B1F1CD
:1003B0002001BFF4F7AF090728BFA0E80C5048BFE1
:1003C0000CC05DF804EB890028BF40F8042B08BF7F
:1003D000704748BF20F8022B11F0804F18BF00F87B
:1003E000012B7047704770477047754600F02CF836
:1003F000AE4605006946534620F00700854618B012
:1004000020B5FFF73FFFBDE820404FF000064FF05A
:1004100000074FF000084FF0000B21F00701AC4639
:10042000ACE8C009ACE8C009ACE8C009ACE8C00958
:100430008D46704710B50446AFF300802046BDE8F6
:100440001040FFF70ABF000000487047000D002071
:1004500001491820ABBEFEE7260002007047FEE708
:1004600004284FF0000070470020704710B50022AC
:100470000449054801F0FFFC0449034801F0F1FC80
:10048000002010BD9806002088010020580600209A
:1004900010B50146034801F0E4FC024801F0C0FC3D
:1004A000002010BD8801002000207047704772B600
:1004B000FEE7000070B50B480168001D0568001DCF
:1004C0000068084400280CD0074C0822A11C01F049
:1004D00012FA04F112012846BDE87040042201F02E
:1004E0000ABA70BD107AFF1F3800002070B50446AC
:1004F00000F028F90546B4F1FF3F02D00448007827
:10050000044400F01FF9401BA042FAD370BD000064
:10051000680000202DE9F84F0022DFF81492DFF880
:1005200014A2DFF814B24FF0010E03274FF00F08AA
:100530000EFA02FC0B6803EA0C0363457DD10C79CB
:1005400004F00304012C01D0022C14D1856854005E
:1005500007FA04F6B543CE6806FA04F42C43846027
:10056000446824EA0C0C0C79C4F30014944044EA67
:100570000C0CC0F804C0D1F804C037EA0C0C0CD045
:10058000C4684FEA420C07FA0CF5AC438D6805FAD3
:100590000CFC4CEA040CC0F80CC091F804C00CF040
:1005A000030CBCF1020F12D14FEAD20C00EB8C0409
:1005B000256A4FEA427C4FEADC6C08FA0CF6B54338
:1005C0000E6906FA0CFC4CEA050CC4F820C004685D
:1005D0004FEA420C07FA0CF5AC430D7905F0030520
:1005E00005FA0CFC4CEA040CC0F800C0D1F804C0B9
:1005F0001CF4403F7DD0D9F800C04CF4804CC9F8C1
:1006000000C0D9F800C00CF4804CCDF800C022F036
:10061000030C0CF1804505F59835D5F808C894070A
:10062000240F08FA04F62CEA0606A0F1804CBCF56B
:10063000003C64D0A0F1804C00E05AE0BCF5013CE5
:1006400060D0A0F1804CBCF5023C5ED0A0F1804CA3
:10065000BCF5033C5CD0A0F1804CBCF5043C5AD006
:10066000A0F1804CBCF5053C58D0A0F1804CBCF505
:10067000063C56D0A0F1804CBCF5073C54D04FF05E
:10068000080C0CFA04FC4CEA060CC5F808C8DAF8A9
:1006900000C02CEA030C4C6814F4803F01D04CEAF3
:1006A000030CCAF800C0254CD4F800C02CEA030C97
:1006B0004D6815F4003F01D04CEA030CC4F800C0AB
:1006C000DBF800C02CEA030C4C6814F4801F01D046
:1006D0004CEA030CCBF800C0194CD4F800C02CEA4B
:1006E000030C4D6815F4001F01D04CEA030CC4F84C
:1006F00000C0521C102AFFF41BAFBDE8F88F4FF06A
:10070000000CBEE74FF0010CBBE74FF0020CB8E75E
:100710004FF0030CB5E74FF0040CB2E74FF0050CB7
:10072000AFE74FF0060CACE74FF0070CA9E700006D
:1007300044380240003C0140083C0140043C014078
:100740000C3C0140014880687047000068000020B0
:100750000248816802781144816070476800002077
:1007600010B50B48016841F400710160016841F463
:1007700080610160016841F480710160032000F034
:1007800085F80F2000F006F800F026F8002010BDD4
:10079000003C024070B504460D4D4FF47A71287844
:1007A000B1FBF0F00B490968B1FBF0F001F08EF8F5
:1007B00008B1012070BD102C07D200222146501E26
:1007C00000F030F86C60002070BD012070BD0000AA
:1007D00068000020000000200A4808B5016841F4C4
:1007E00080410160006800F4804000900548001FCF
:1007F000016841F080510160006800F08050009075
:1008000008BD00004438024000280ADB00F01F0148
:10081000012202FA01F14009800000F1E020C0F855
:100820000011704710B4184B1B68C3F30223C3F1C7
:10083000070CBCF1040F01D94FF0040C1C1D072C50
:1008400001D2002300E0DB1E012404FA0CFCACF111
:10085000010C0CEA0101994004FA03F35B1E1A40F3
:100860001143002806DB00F1E020090180F80014A4
:1008700010BC704700F00F0000F1E020090180F883
:10088000141D10BC704700000CED00E000F00700E4
:10089000064A11684FF6FF03194041EA002040F074
:1008A000FD7040F080601060704700000CED00E0CB
:1008B0007047006841620020704730B40368586A8E
:1008C00000291BD0D3F828C000EB1C4C00200129C4
:1008D000A1F101014FF4827408D004EB80055D5949
:1008E0000CEB154C401CC0B28842F6D304EB8101DE
:1008F0004CEA0240585030BC0020704740EA0240A9
:100900009862F8E7D0F8040401F02DBEC1EBC102F3
:1009100000EB8202D0F80404926C01F08EBDC1EBB2
:10092000C10200EB8202D0F80404D2F8082201F0E0
:10093000E2BDD0F8040401F018BE70B5044611F011
:10094000800F01F00F00C0EBC00104EB81014FF0FC
:1009500001024FF0000502D03C314A7002E001F57F
:10096000FE714D70087094F8BC03012808D084F81B
:10097000BC23206802F03CFA84F8BC53002070BD10
:10098000022070BD70B5044601F00F02606882421B
:1009900001D9012070BD01F00F00C0EBC00011F0C3
:1009A000800F04EB80004FF001034FF0000503D0EF
:1009B00000F13C014B7002E000F5FE714D708D704E
:1009C0000A7094F8BC03012808D084F8BC3320686E
:1009D00002F020FC84F8BC53002070BD022070BDE2
:1009E00001F00F01C1EBC10100EB8100D0F814024E
:1009F000704770B5044611F0800F01F00F00C0EB96
:100A0000C00104EB81014FF0010C4FF0000503D051
:100A10003C3181F801C002E001F5FE714D700870B3
:100A20008A60CB704A7802B1C880022B00D10D7168
:100A300094F8BC03012808D084F8BCC3206802F0F5
:100A400015F9284684F8BC5370BD022070BD10B55E
:100A50000C4604F00F0CCCEBCC0100EB810101F54E
:100A6000FE71CA604B6100238B614B7081F800C03E
:100A70000369012B00D10A6114F00F0F05D0027C2D
:100A8000006802F022FC002010BD027C006802F029
:100A9000FBFAF8E770B504460D46616805F00F00F3
:100AA000884201D9012070BD15F0800F4FF000067B
:100AB0004FF0010206D0C0EBC00104EB81013C31D4
:100AC0004A7006E0C5EBC50104EB810101F5FE713A
:100AD0004E708A70087094F8BC03012808D084F81E
:100AE000BC23206802F0C2FB15F00F0F02D007E014
:100AF000022070BD217C04F57172206802F05AFB5F
:100B000084F8BC63002070BD10B50C4604F00F0CD7
:100B1000CCEBCC0100EB81013C31CA604B6100237E
:100B20008B6101234B7081F800C00369012B00D158
:100B30000A6114F00F0F05D0027C006802F0C5FBBB
:100B4000002010BD027C006802F09EFAF8E72DE953
:100B5000F05F04462568284602F014FD00287DD188
:100B6000206802F03BFD002878D0206802F036FDB6
:100B700010F0020F04D02068416901F002014161C8
:100B8000206802F02BFD10F0100F36D0206881692C
:100B900021F0100181612F6A07F00F00C0EBC00047
:100BA00004EB800000F5FE76C7F34340022802D034
:100BB000062812D01CE047F6F070074218D0C7F3A1
:100BC0000A1217462846F16802F00CFDF068384416
:100BD000F060B0693844B0610AE0082204F5717130
:100BE000284602F0FFFCB069C7F30A110844B0615F
:100BF0002068816941F010018161206802F0EEFCFB
:100C000010F4002F4FF001094FF0080A4FF0100BBD
:100C100045D00026206802F0C0FC80465FEA08004C
:100C20003DD018F0010F34D0F1B2206802F0CEFCB4
:100C3000074617F0010F07D005EB4610C0F8089BD8
:100C40003146204600F0CCFE17F0080F09D005EB26
:100C50004610C0F808AB3146204600E090E100F0B5
:100C60009BFE17F0100F03D005EB4610C0F808BB31
:100C700017F0200F04D005EB46112020C1F8080B17
:100C800017F4005F05D005EB46114FF40050C1F892
:100C9000080B761C4FEA5808B8F1000FC1D1206844
:100CA00002F09CFC10F4802F63D0206802F06EFCF0
:100CB00080460026B8F1000F5BD018F0010F52D02B
:100CC000F1B2206802F070FC074617F0010F25D042
:100CD00006F00F0009FA00F0D5F8341821EA0000F8
:100CE000C5F8340805EB4610C0F8089920690128BA
:100CF00010D1C6EBC60004EB8000426C816C11443D
:100D000081643EB9206D28B904F571720121206813
:100D100002F050FAF1B22046FFF7F8FD17F0080F85
:100D200003D005EB4610C0F808A917F0100F03D048
:100D300005EB4610C0F808B917F0400F04D005EBDA
:100D400046114020C1F8080917F0020F04D005EB46
:100D500046110220C1F8080917F0800F03D0314670
:100D6000204600F0B3FE761C4FEA5808B8F1000F99
:100D7000A3D1206802F032FC10F0004F11D0D5F85A
:100D8000040820F00100C5F8040894F8F4030128D1
:100D900067D0204600F001FA2068416901F0004167
:100DA0004161206802F01AFC10F4006F0CD0D5F8F5
:100DB000080810F0010F02D0204600F033FA206836
:100DC000416901F400614161206802F007FC10F400
:100DD000805F6CD0D5F8040820F00100C5F8040845
:100DE0001021206802F0A4FB00216068002823D9AC
:100DF0004FF67F3205EB4110C0F80829D0F80039D2
:100E000023F40013C0F80039D0F8003943F0006330
:100E1000C0F80039C0F8082BD0F8003B23F40013C9
:100E2000C0F8003BD0F8003B43F00063C0F8003B43
:100E3000491C60688842DDD8D5F81C0840F00110D4
:100E4000C5F81C08206BA0B1D5F8840840F00B0051
:100E5000C5F88408D5F8440840F00B00C5F84408EC
:100E600014E0002084F8F40300212046FFF720FD61
:100E700092E7D5F8140842F22B010843C5F814088C
:100E8000D5F8100840F00B00C5F81008D5F8000898
:100E900020F4FE60C5F80008217C04F5717220681A
:100EA00002F088F92068416901F4805141612068AD
:100EB00002F094FB10F4005F16D0206801F024FFCC
:100EC000206802F04FFBE06000F082FA23680146E0
:100ED000227B184602F0F2FB204600F047F920681A
:100EE000416901F400514161206802F077FB10F084
:100EF000080F07D0204600F054F92068416901F03E
:100F000008014161206802F069FB10F4801F08D0DD
:100F10000021204600F036F82068416901F4801174
:100F20004161206802F05AFB10F4001F08D0002134
:100F3000204600F02BF82068416901F4001141615E
:100F4000206802F04BFB10F0804F07D02046FFF7DF
:100F5000D9FC2068416901F080414161206802F0BC
:100F60003DFB10F0040F0BD02068456815F0040F0E
:100F700002D02046FFF7DDFC20684168294341602C
:100F8000BDE8F09FD0F8040401F043BBD0F804049E
:100F900001F050BB2DE9F0478AB00446002C05D083
:100FA000266894F8BD03002520B108E00AB00120AE
:100FB000BDE8F08784F8BC53204600F08BF803208E
:100FC00084F8BD03F06B10F4807F00D125612068A8
:100FD00002F054F804F11000D4F82C8090E80F10BF
:100FE000A76A666A8DE80F10CDF81C8006970596F3
:100FF000616B206B0991089094E80F0001F092FE5C
:10100000022728B184F8BD730AB00120BDE8F0873B
:101010000021206802F00AFB0021606801260028F8
:1010200013D9C1EBC10004EB800080F83D6080F86B
:101030003C10A0F8421080F83F5045648564056577
:10104000481CC1B260688842EBD800216068002863
:1010500014D9C1EBC10004EB800080F8FD5180F889
:10106000FC1180F8FF51C0F80452C0F80852C0F8D3
:101070001052481CC1B260688842EAD804F11000DE
:10108000D4F82CA090E80F10D4F82890D4F824803D
:101090008DE80F10CDF81CA0CDF81890CDF8148075
:1010A000616B206B0991089094E80F0001F02AFF12
:1010B00028B184F8BD730AB00120BDE8F08784F838
:1010C000385084F8BD63206801F00EFF0AB000209C
:1010D000BDE8F08730B587B00024029403940494EF
:1010E000059406940068B0F1A04F34D11B48016804
:1010F00041F001010160006800F0010001904FF42F
:1011000000700290164D02A92846FFF703FA4FF42B
:10111000C0510291022103910494032105910A21F7
:10112000069102A92846FFF7F5F90E48016841F03B
:10113000800101600C48016841F480410160006851
:1011400000F480400190002211464320FFF76AFB23
:101150004320FFF759FB07B030BD00003038024094
:1011600000000240343802404438024070B5044662
:101170000125E06800280ED0022801D0FFF797F97A
:101180002946D4F8040401F0C4FAD4F80404BDE8F4
:10119000704001F075BA0025F2E7D0F8040401F0C0
:1011A0009DBAD0F8040401F0A3BA10B5044694F82F
:1011B000BC0301280BD0012084F8BC0384F838104C
:1011C000206802F063FA002084F8BC0310BD0220FE
:1011D00010BDD0F8042400F57171104601F0A5BAD5
:1011E00010B50446206894F8BC13012906D00121EB
:1011F00084F8BC13A16A012902D008E0022010BDC6
:10120000A169012903D0816B41F480318163206899
:1012100002F06FF9206801F059FE002084F8BC0349
:1012200010BD000010B50446D4F8040401F0C1FA62
:101230002068D0F8001E41F00101C0F8001E206AAD
:10124000002804D00248016841F00601016010BD89
:1012500010ED00E02DE9F04704460D46002C13D0B8
:10126000DFF85491D9F80000EFB200F00700A8426F
:101270000DD289F80070D9F8000000F00700A842EC
:1012800005D00120BDE8F0870120BDE8F087206887
:101290004A4E10F0020F14D010F0040F03D0306843
:1012A00040F4E0503060207810F0080F03D0306830
:1012B00040F4604030603068A16820F0F0000843DE
:1012C0003060207810F0010F3ED060683C49012862
:1012D00008D002280DD003280BD0096811F0020FA6
:1012E00028D00AE0096811F4003F06D10120BDE8CA
:1012F000F087096811F0007F19D0316821F00301EF
:1013000008433060FFF71EFA80463068616800F0DD
:101310000C00B0EB810F17D041F2883AFFF712FAB8
:10132000A0EB0800504508D90320BDE8F087012054
:10133000BDE8F0870120BDE8F0873068616800F003
:101340000C00B0EB810FE9D1D9F8000000F00700E4
:10135000A8420AD989F80070D9F8000000F0070007
:10136000A84202D00120BDE8F087207810F0040FD9
:1013700005D03068E16820F4E05008433060207800
:1013800010F0080F06D03068216920F4604040EA70
:10139000C100306000F022F831680A4AC1F303113D
:1013A000515CC8400849086008480068FFF7F2F936
:1013B0000020BDE8F0870000003C024008380240F1
:1013C000003802402A380008000000206C0000208D
:1013D00001480068704700000000002010B5174861
:1013E000006810F00C01164816D04310042912D0E2
:1013F000082911D1134C216801F03F02216811F432
:10140000800F0AD02068C0F38810A0FB03010023DE
:10141000FEF74AFF09E0184610BD21680023C1F31A
:101420008811A1FB0001FEF73FFF2168C1F30141D4
:10143000491C4900B0FBF1F010BD00000838024023
:101440000024F400043802402DE9F84F0446002C33
:1014500012D02078FB4E10F0010FA6F1040563D0E6
:10146000301D016801F00C0104290CD0006800F067
:101470000C00082803D010E00120BDE8F88F306888
:1014800010F4800F09D0286810F4003F4CD0606839
:10149000002849D10120BDE8F88F6068B0F5803F91
:1014A00014D0B0F5A02F16D0286820F48030286022
:1014B000286820F480202860606810B3FFF742F9A4
:1014C0000746286810F4003F0ED02DE0286840F44D
:1014D00080302860F0E7286840F480202860286881
:1014E00040F480302860E7E7FFF72CF9C01B642840
:1014F00002D90320BDE8F88F286810F4003FF3D02C
:1015000012E0FFF71FF90746286810F4003F0BD0E0
:10151000FFF718F9C01B642802D90320BDE8F88F33
:10152000286810F4003FF3D12078C74F10F0020F65
:101530004FF0000957D0C548016811F00C0F14D0C6
:10154000006800F00C00082803D1306810F4800F08
:101550000BD0E06880B301203860FFF7F3F88046D5
:10156000286810F0020F12D01EE0286810F0020F59
:1015700005D0E068012802D00120BDE8F88F286876
:10158000216920F0F80040EAC10028602BE0FFF755
:10159000D9F8A0EB0800022802D90320BDE8F88F93
:1015A000286810F0020FF2D02868216920F0F800B6
:1015B00040EAC100286016E0FFE7C7F80090FFF797
:1015C000C1F88046286810F0020F0CD0FFF7BAF877
:1015D000A0EB0800022802D90320BDE8F88F286894
:1015E00010F0020FF2D1207810F0080F35D0984893
:1015F000DFF860A26169C1B101210160FFF7A2F8C3
:101600008046DAF8000010F0020F26D1FFF79AF8B2
:10161000A0EB0800022802D90320BDE8F88FDAF811
:10162000000010F0020FF1D017E0C0F80090FFF7B3
:1016300089F88046DAF8000010F0020F0DD0FFF7AD
:1016400081F8A0EB0800022802D90320BDE8F88F3A
:10165000DAF8000010F0020FF1D1207810F0040F3A
:1016600071D04FF000087C48006810F0805F0AD10C
:101670007948016841F080510160006800F08050B5
:1016800000904FF00108DFF8D4B1DBF8000010F44F
:10169000807F1BD1DBF8000040F48070CBF80000A5
:1016A000FFF750F88246DBF8000010F4807F0DD180
:1016B000FFF748F8A0EB0A00022802D90320BDE892
:1016C000F88FDBF8000010F4807FF1D0A068DFF81D
:1016D00090B1012818D005281DD0DBF8000020F0BB
:1016E0000100CBF80000DBF8000020F00400CBF88C
:1016F0000000A06840B3FFF725F88246DBF8000041
:1017000010F0020F14D03EE0DBF8000040F00100C2
:10171000CBF80000EDE7DBF8000040F00400CBF868
:101720000000DBF8000040F00100CBF80000E0E72B
:10173000FFF708F8A0EB0A0141F28830814204D992
:101740000320BDE8F88F26E005E0DBF8000010F08C
:10175000020FEDD017E0FEF7F5FF8246DBF8000040
:1017600010F0020F0FD0FEF7EDFFA0EB0A0141F2DF
:101770008830814202D90320BDE8F88FDBF80000F1
:1017800010F0020FEFD1B8F1010F04D13248016817
:1017900021F080510160A069F0B32C4909684FF035
:1017A000FF3801F00C01082966D0022810D0C7F8D4
:1017B0006090FEF7C7FF0446286810F0007F2BD02A
:1017C000FEF7C0FF001B022851D90320BDE8F88FA7
:1017D000C7F86090FEF7B6FF8146286810F0007FDA
:1017E0000CD0FEF7AFFFA0EB0900022802D90320BE
:1017F000BDE8F88F286810F0007FF2D1216AE06917
:10180000A26A0843616A08EB5202890141EA024177
:10181000084394F82C1000E055E040EA0160306085
:1018200001203866FEF78EFF0446286810F0007F1E
:1018300049D1FEF787FF001B022813D90320BDE81A
:10184000F88F000004380240000047420838024088
:10185000800E474274380240403802400070004019
:1018600070380240286810F0007FE2D02BE0286832
:1018700010F0007FA4D126E0012822D03068E26970
:1018800000F4800191421AD1226A00F03F01914296
:1018900015D147F6C071626A0140B1EB821F0ED1CB
:1018A000A26A00F4403108EB5202B1EB024F06D1BC
:1018B00094F82C1000F07060B0EB016F03D00120A1
:1018C000BDE70120BBE70020B9E70000401EB0F1F2
:1018D000807F01D3012070474FF0E0214861044A26
:1018E000F0201070002088610720086100207047F8
:1018F00023ED00E0FEE7F0B40023002A18D90A2403
:10190000302537269C46B4EB107F04D905EB1077C1
:1019100001F8137003E006EB107701F81370000173
:1019200001EB430787F801C05B1CDBB29342EAD3AB
:10193000F0BC704710B500220F49104800F057FD69
:1019400008B1FEF7B4FD0E490C4800F05DFF08B188
:10195000FEF7ADFD0B49094800F07BFA08B1FEF730
:10196000A6FD064801F00EF8002803D0BDE810409F
:10197000FEF79DBD10BD000004000020880100207E
:101980005001002054000020FEE7FEE70148FFF769
:10199000DEB80000F808002070B504462068056C29
:1019A00000EB4110D0F8081B0C4EB54206D911F4DB
:1019B000004F03D04FF40041C0F8081B2046FFF74A
:1019C00008FCB54208D92069012805D104F57172D7
:1019D0000121206801F0EEFB002070BD0A30544F59
:1019E0002DE9F04104460D4623681A6C03EB4511BE
:1019F000D1F8080B276920264FF4004C012F08D09E
:101A0000304FBA424DD110F4004F40D0C1F808CB4E
:101A100055E02D4B10F0080F07D09A424FD910F423
:101A2000004F4CD0C1F808CB49E010F0200F02D095
:101A3000C1F8086B43E010F0280F40D19A4205D955
:101A400010F4004F02D0C1F808CB38E0C5EBC50058
:101A500004EB8000D1F8101BD0F80422C1F312016E
:101A6000511AC0F81412D0F808121144C0F8081224
:101A700045B9D4F8100228B904F571720121206823
:101A800001F098FBE9B22046FEF749FF17E010F09D
:101A9000200F01D0C1F8086BE9B22046FEF73FFFE6
:101AA0000DE045B9D4F8100228B904F5717200218F
:101AB000184601F07FFBE9B22046FEF730FF002018
:101AC000BDE8F0810A31544F0A30544F2DE9F84FE8
:101AD00007460E46D7F80080C6EBC60007EB80002D
:101AE00000F13C046169A069884202D90120BDE887
:101AF000F88F081AA168814200D20846C01C4FEA3C
:101B0000900A08EB461915E0151AA268AA4200D2FD
:101B10001546E81C4FEA900A387C0090ABB2F2B24E
:101B20004046E16801F044FEE0682844E060A069B6
:101B30002844A061D9F8180980B2504505D36269DC
:101B4000A069904201D2002ADED1A1696069884271
:101B50000AD806F00F00012101FA00F0D8F8341875
:101B600021EA0000C8F834080020BDE8F88F70476B
:101B70007047FEF7EDBD000030B593B030216846E8
:101B8000FEF709FC14210CA8FEF705FC1D480025F2
:101B9000016841F080510160006800F080501190B0
:101BA0001948016841F4804101600068022400F492
:101BB0008040119001200090000401908001CDE947
:101BC0000640082008904FF4A870CDE909040720CA
:101BD0000B906846FFF738FC08B172B6FEE70CA917
:101BE0000F2081E831004FF4A0500F901090052194
:101BF0000CA8FFF72FFB002801D072B6FEE713B048
:101C000030BD0000403802400070004002480168CA
:101C100041F470010160704788ED00E070B5D0F8C4
:101C2000C422D0F8BC32002B24D001EB810C00EB95
:101C30008C040026D4F818C0BCF1000F09D0C1EB09
:101C4000C10502EB8502556CBCFBF5F205FB12C227
:101C500092B1C3F81462D0F8C002D0F810C0BCF141
:101C6000000F05D00A4603F50471D3F80802E047D7
:101C7000002070BD032070BDA66100231A4600F04D
:101C8000A1FDF5E770B50546D5F8BC42002C0ED095
:101C9000284600F077FCC4F80C02D5F8C012D4F83E
:101CA0000402CA6804F503719047002070BD032048
:101CB00070BD70B504468121204600F0B5FB0025BB
:101CC00025870121204600F0AFFBA4F8785182213E
:101CD000204600F0A9FBA4F84C50A4F84E50D4F8CC
:101CE000BC0248B1D4F8C00240688047D4F8BC02B6
:101CF00000F0B7FFC4F8BC52002070BD10B5D0F89A
:101D0000BC42002C10D0D0F8C01259B194F8000297
:101D1000FF2807D08B6894F8012221469847FF20BE
:101D200084F80002002010BD032010BD0A210180AC
:101D30000048704778000020432101800048704728
:101D4000C800002043210180004870478400002023
:101D500043210180004870470C0100202DE9F0412B
:101D600004464FF4077000F07DFF05460027002D64
:101D700034D0C4F8BC52207C01264FF01008002853
:101D800031D0402302228121204600F064FC2687C6
:101D9000402302220121204600F05DFCA4F8786176
:101DA000A4F84E80082303228221204600F053FC31
:101DB000A4F84C60D4F8C00200688047C5F81472DB
:101DC000C5F81872207C10B3402301212046D5F8B5
:101DD000042200F04CFC0020BDE8F081C4F8BC7285
:101DE0000220BDE8F0814FF40073022281212046D9
:101DF00000F031FC26874FF40073022201212046B7
:101E000000F029FCA4F87861A4F84E80CAE74FF4EA
:101E1000007301212046D5F8042200F028FCDAE7FF
:101E200010B5D0F8BC12002909D0027C4AB1D1F813
:101E300004224023012100F01AFC002010BD0320E1
:101E400010BDD1F804224FF40073012100F00FFC03
:101E5000F3E7002903D0C0F8C01200207047032028
:101E60007047D0F8BC02002803D0C0F8041200204C
:101E7000704703207047D0F8BC02002805D0C0F896
:101E80000812C0F810220020704703207047F0B5F8
:101E900083B005460C46D5F8BC7200200290019034
:101EA0000026002F0DD0207810F0600134D02029BA
:101EB0000AD02146284600F093F8032603B03046A6
:101EC000F0BD03B00320F0BDE288EAB110F0800F4E
:101ED0000ED0D5F8C01260788B6839469847E288F2
:101EE000072A00D907223946284600F09FF8E5E77F
:101EF000607887F80002A07987F80102E288394605
:101F0000284600F079F8D9E7D5F8C01260780022A9
:101F10008B6821469847D1E7607858B10128CDD029
:101F20000A2817D00B2825D02146284600F058F85B
:101F30000326C3E795F89C02032805D021462846CE
:101F400000F04EF80326B9E7022201A9284600F066
:101F50006DF8B3E795F89C02032805D02146284682
:101F600000F03EF80326A9E7012202A9284600F066
:101F70005DF8A3E795F89C0203289FD021462846E8
:101F800000F02EF8032699E710B5D0F8B822002A01
:101F900001D052689047002010BD90F89C22012A81
:101FA00005D0022A03D0032A01D000F019B84988CD
:101FB000012904D10021C0F8A41200F044B87047F0
:101FC00010B513460A46002100F051FB002010BD59
:101FD00010B513460A46002100F0F4FB002010BDA6
:101FE00010B504468021204600F0D1FB2046BDE814
:101FF0001040002100F0CBBB10B50323C0F8943291
:10200000C0F85821C0F85C2113460A46002100F0B0
:102010002EFB002010BD10B50521C0F8941200233E
:102020001A46194600F023FB002010BD10B502230C
:10203000C0F894328261C26113460A46002100F062
:10204000C1FB002010BD10B50421C0F8941200237C
:102050001A46194600F0B6FB002010BD10B5002846
:1020600006D00A46054906A000F08DF9034810BDC8
:102070000A46024902A000F086F9F7E7580400205A
:1020800043444320436F6E66696700001220088056
:10209000004870472400002010B5002806D00A46EA
:1020A000054906A000F06FF9034810BD0A46024931
:1020B00002A000F068F9F7E75804002043444320E9
:1020C000496E7465726661636500000004200880D3
:1020D000004870472000002010B50A46024903A0BE
:1020E00000F051F9004810BD5804002053544D69C8
:1020F00063726F656C656374726F6E696373000001
:1021000010B5002806D00A46054906A000F03BF9A4
:10211000034810BD0A46024902A000F034F9F7E76F
:102120005804002053544D3332205669727475613F
:102130006C20436F6D506F727400000010B51A2050
:102140000880FEF7B7F9014810BD000038000020F4
:10215000CA88012A01D0FFF743BF90F89C22012AC8
:1021600005D0022A03D0032A08D0FFF739BF002187
:102170008160012200F10801FFF758BF0122011D13
:10218000FFF754BF2DE9F84304460F4600200090A6
:10219000002600257888010A082970D2DFE801F0BE
:1021A000AB040C22ABAB8B9AD4F8B412207C0A6837
:1021B000694690470646A3E0207C4FF0020840B1F4
:1021C000D4F8B802C16A68468847064686F8018096
:1021D00096E0D4F8B802816A68468847064686F8D1
:1021E00001808DE0C0B206285FD2DFE800F0031264
:1021F00021303F4FD4F8B402426822B1207C6946B6
:10220000904706467CE039462046FFF7E9FE012567
:1022100076E0D4F8B402826822B1207C6946904707
:1022200006466DE039462046FFF7DAFE012567E0F5
:10223000D4F8B402C26822B1207C694690470646B1
:102240005EE039462046FFF7CBFE012558E0D4F882
:10225000B402026922B1207C6946904706464FE0ED
:1022600039462046FFF7BCFE012549E0D4F8B40208
:1022700042692AB1207C69469047064640E03AE030
:1022800039462046FFF7ACFE012539E0D4F8B40208
:10229000826922B1207C69469047064630E0394683
:1022A0002046FFF79DFE01252AE039462046FFF72C
:1022B00097FE012524E0207C28B139462046FFF70F
:1022C0008FFE01251CE0D4F8B802416B68468847B0
:1022D000064615E0207C28B139462046FFF780FEEF
:1022E00001250DE0D4F8B802016B68468847064620
:1022F0000721717004E039462046FFF771FE012581
:10230000002D0CD1FA8892B1BDF8000048B182428C
:1023100000D90246009231462046FFF787FEBDE80D
:10232000F88339462046FFF75BFEBDE8F883204678
:10233000FFF789FEBDE8F88300210278002A05D066
:10234000491CC9B2401C0278002AF9D108467047DE
:1023500090F89C22012A05D0022A03D0032A01D03A
:10236000FFF73EBECA88022A01D0FFF739BE01211D
:10237000C160D0F8A41209B10321C160022200F1AA
:102380000C01FFF753BE70B50D46164600281BD052
:1023900004462046FFF7D0FF022101EB40003080C9
:1023A00030782870032068700222207800280BD033
:1023B00000212078A854641C501CC0B22954401C31
:1023C000C2B220780028F4D170BD01460020002957
:1023D00006D0012905D0022905D0032905D0032004
:1023E0007047032070470120704703207047002882
:1023F0000FD00023C0F8B832C0F8C032C0F8CC32D9
:1024000009B1C0F8B412012180F89C12027000F0EA
:10241000BDB80320704710B5D0F8C402FEF7B2FA79
:10242000BDE81040FFF7D1BF10B5D0F8C402FEF7E9
:1024300084FABDE81040FFF7C8BF70B504461346E4
:10244000002904D094F89C0203284AD051E004F1FA
:102450001400D4F894120025022938D18268C1688A
:102460008A420CD9521A826019462046FFF7B0FD05
:1024700000231A461946204600F0F9F827E0914259
:1024800014D14068884211D3D4F8981288420DD2F2
:10249000002211462046FFF79BFDC4F89852002306
:1024A0001A461946204600F0E2F810E094F89C0223
:1024B000032805D1D4F8B802C16809B1204688477D
:1024C0008021204600F063F92046FFF7A4FD94F830
:1024D000A00201280DD1204600F0A8F984F8A052EE
:1024E00007E0D4F8B80242691AB1204690470028A4
:1024F00000D1002070BD10B50446084611460028E2
:1025000004D094F89C12032922D02AE004F5AA7082
:10251000D4F89422032A24D18368C268934209D94B
:102520009A1A8260C068824200D302462046FFF7B2
:1025300047FD16E094F89C02032805D1D4F8B802B0
:10254000016909B1204688472046FFF77CFD08E075
:10255000D4F8B8128A6922B1014620469047002873
:1025600000D1002010BD0020704710B5012180F877
:102570009C12D0F8B822002A02D052680179904704
:10258000002010BDD0F8C402FEF72ABA10B50178B9
:10259000002928D11549C1F80404C0F8C4124FF02D
:1025A000A0400860042048600222CA600020086140
:1025B0008A61C861086248620122CA6208630846EB
:1025C000FEF7E8FC08B1FDF772FF80210748FEF72F
:1025D00070F9402200210548FEF76FF980220121A1
:1025E0000248FEF76AF9002010BD0000F80800203C
:1025F00011F0800F01F07F01D0F8C402C1EBC101DE
:1026000000EB810002D090F83E00704790F8FE0188
:10261000704710B5D0F8B822002A04D090F89C3248
:10262000032B02D004E0032010BD126A02B19047D0
:10263000002010BD10B5D0F8B822002A04D090F8C0
:102640009C32032B02D004E0032010BD526A02B179
:102650009047002010BD10B59C461346D0F8C40228
:102660006246FEF7C6F9BDE81040FFF7AEBE10B5F2
:10267000D0F8C402FEF7EBF9BDE81040FFF7A5BEA5
:1026800070B50446012584F89C520020C4F89402D9
:102690006060C4F8A402D4F8B80200281CD0D4F8B2
:1026A000BC1221B1426812B100212046904700229D
:1026B000402311462046FFF7CEFFA4F86451402680
:1026C000C4F860614023002280212046FFF7C3FF49
:1026D000A5842662002070BD032070BD90F89C1276
:1026E000042903D190F89D1280F89C1200207047B5
:1026F00010B5D0F8B812002904D090F89C22032A13
:1027000002D004E0032010BDC96901B18847002050
:1027100010BD01740020704710B5D0F8C402FEF758
:1027200044FDBDE81040FFF750BE10B5044604F26A
:10273000AA2000F050F80120C4F89402B4F8B002C6
:10274000C4F8980294F8AA1211F01F000AD00128C8
:102750000FD0022814D02046BDE8104001F08001BF
:1027600000F015B804F2AA212046BDE8104000F0A0
:102770000BB904F2AA212046BDE8104000F03ABA95
:1027800004F2AA212046BDE8104000F03FB910B580
:10279000D0F8C402FEF77EF9BDE81040FFF715BE81
:1027A00010B5D0F8C402FEF71BFDBDE81040FFF7DE
:1027B0000CBE90F89C1280F89D12042180F89C12A7
:1027C0000020704710B5D0F8C402FEF79DF9BDE8AF
:1027D0001040FFF7FABD0A780270491C0A7842706F
:1027E000491C0A784B1C1B7842EA03224280891C50
:1027F0000A784B1C1B7842EA032282808A78C978C7
:1028000042EA0121C180704738B50446002000909B
:10281000002909D0C4F8B812C96A19B168468847B6
:10282000C4F8CC02002038BD032038BD002070471A
:1028300070B504468888002821D1C888F8B948882E
:1028400080281CD200F07F0594F89C0203280DD04C
:1028500084F89E5229462046FFF75EFF2046FFF788
:10286000F2FB45B1022084F89C0270BD2046BDE811
:102870007040FFF7B5BB012084F89C0270BD204674
:10288000BDE87040FFF7ACBB03460320D3F8B82285
:10289000002A02D012681846104770472DE9F0410F
:1028A00004460E460025324FB1783970012906D909
:1028B00031462046FFF794FB0320BDE8F08194F8F1
:1028C0009C0202280DD0032823D031462046FFF772
:1028D00087FB39782046FFF757FB03252846BDE8DC
:1028E000F08191B161602046FFF7CEFF05462800D8
:1028F00004D031462046FFF773FBEFE72046FFF791
:10290000A2FB032084F89C02E8E72046FFF79BFB2C
:10291000E4E74FF00208C9B16068884224D0C1B230
:102920002046FFF731FB397861602046FFF7ACFFA6
:102930000546280014D031462046FFF751FB217987
:102940002046FFF721FB84F89C82C7E784F89C822D
:1029500061602046FFF718FB2046FFF774FBBDE7D8
:102960002046FFF770FBB9E72046FFF76CFBB5E7A1
:10297000740000204988012903D1C0F8A412FFF790
:1029800062BB7047FFF70CBF10B503460024087800
:1029900010F060020FD0202A06D0402A04D018463A
:1029A000FFF71EFB204610BDD3F8B8028268184618
:1029B00090470446F6E748780A2823D2DFE800F07B
:1029C000161E221A22090522120D1846FFF7DAFBFD
:1029D000E8E71846FFF72CFFE4E71846FFF75EFF2D
:1029E0000446DFE71846FFF7B3FBDBE71846FFF7BF
:1029F000AFFCD7E71846FFF7BDFFD3E71846FFF750
:102A0000CCFACFE71846FFF7EBFACBE72DE9F04118
:102A100004460D4600262979287810F0600012D06F
:102A2000202808D0402806D029462046FFF7D8FAAB
:102A30003046BDE8F081D4F8B802294682682046C5
:102A400090470646F4E76878002860D001282FD028
:102A5000032804D029462046FFF7C2FAE8E794F895
:102A60009C02022806D0032814D029462046FFF7EE
:102A7000B7FADDE749B1802907D02046FFF787FE86
:102A800080212046FFF783FED2E729462046FFF744
:102A9000A7FACDE7688838B931B1802904D0E88831
:102AA00010B92046FFF773FE2046FFF7CCFABFE7C8
:102AB00094F89C02022806D0032814D02946204608
:102AC000FFF78EFAB4E749B1802907D02046FFF717
:102AD0005EFE80212046FFF75AFEA9E729462046E0
:102AE000FFF77EFAA4E768880028A1D111F07F0FD4
:102AF00002D02046FFF78FFC2046FFF7A4FAD4F857
:102B0000B8022946826820469047064690E794F826
:102B10009C020027022806D0032826D029462046FA
:102B2000FFF75EFA84E731B1802904D029462046B8
:102B3000FFF756FA7CE711F0800F08D001F07F0014
:102B400000EB800004EB800000F1140107E001F0CD
:102B50007F0000EB800004EB800000F5AA710F609D
:102B600002222046FFF762FA62E711F0800F0CD0D4
:102B700001F00F0000EB800004EB8000808C68B94E
:102B800029462046FFF72CFA52E701F00F0000EB30
:102B9000800004EB8000B0F8640158B111F0800FA0
:102BA0000DD001F07F0000EB800004EB800000F10D
:102BB00014050CE029462046FFF712FA38E701F029
:102BC0007F0000EB800004EB800000F5AA7541B1A6
:102BD000802906D02046FFF70BFD20B10120286098
:102BE00002E02F6000E02F60022229462046FFF716
:102BF0001DFA1DE770B505460C460026207810F03A
:102C0000600209D0202A07D0402A05D02146284654
:102C1000FFF7E6F9304670BD95F89C22012A08D0EE
:102C2000022A06D0032A04D021462846FFF7D8F905
:102C3000F0E7207901280FD8D5F8B802214682683C
:102C4000284690470646E0880028E3D1002EE1D1CF
:102C50002846FFF7F8F9DDE721462846FFF7C0F9D7
:102C6000D8E7704700487047D806002010B40A78AB
:102C70004C784FF0010C02F00F030CFA03F3012C17
:102C80000DD0D0F81CC84CEA0343C0F81C3800EB48
:102C90004210D0F8002B12F4004F22D02EE0D0F8D2
:102CA0001CC89BB24CEA0303C0F81C3800EB42106E
:102CB000D0F8003913F4004F20D1D0F80039B1F822
:102CC00008C0C978CCF30A0C890443EA0C0341EA32
:102CD0008251194341F4004141F08051C0F800197C
:102CE0000CE0D0F8002B0B89C978C3F30A031A4310
:102CF000044B43EA81411143C0F8001B10BC002083
:102D00007047000000800010D0F800196FF30A012E
:102D1000C0F80019D0F8041841F48071C0F8041804
:102D2000002070470FB410B50446089801281AD047
:102D3000E06840F04000E060204600F033F80C9975
:102D400051B3A16B21F48031A1630699012907D108
:102D5000A16841F00601A160A16841F02001A160D5
:102D600010BC5DF814FBA06B20F48030A063E06819
:102D700020F0400020F48400E060E06820F440107F
:102D8000E0600F98012803D1E06840F48010E06013
:102D9000204600F007F8D8E7A16B41F48031A16329
:102DA000D3E7000081B000230093104A0099491C2A
:102DB0000091914202D9032001B07047016911F0DE
:102DC000004FF3D00093016941F0010101610099C6
:102DD000491C0091914202D9032001B0704701695A
:102DE00011F0010FF3D1002001B07047400D030036
:102DF00010B491F801C00A78012300EB4212BCF133
:102E0000010F2FD0D2F800CB1CF0004F0BD0D2F81E
:102E100000CB4CF0006CC2F800CBD2F800CB4CF0E9
:102E2000804CC2F800CBD0F83CC80C7804F00F04FA
:102E300003FA04F42CEA044CC0F83CC8D0F81CC8CF
:102E4000097801F00F0103FA01F12CEA0141C0F801
:102E50001C18D2F8000B1B490840C2F8000B10BC2C
:102E600000207047D2F800C91CF0004F0BD0D2F8F8
:102E700000C94CF0006CC2F800C9D2F800C94CF08F
:102E8000804CC2F800C9D0F83CC80C7804F00F049C
:102E900003FA04F4A4B22CEA040CC0F83CC8D0F83D
:102EA0001CC8097801F00F0103FA01F189B22CEA7C
:102EB0000101C0F81C18D2F8000903490840C2F803
:102EC0000009CCE70078F3EF007833ECD0F8001E6F
:102ED00021F00301C0F8001ED0F8041821F002010F
:102EE000C0F8041800207047D0F8001E21F003013C
:102EF000C0F8001ED0F8041841F00201C0F8041810
:102F0000002070470FB40346F0B5002400200025D0
:102F100003EB8001C1F80451401C0F28F8D310982E
:102F200000283AD0986B20F400119963986B40F414
:102F300000219963C3F8005ED3F80018C3F80018A5
:102F40000B9801283CD00321184600F0B0FB10215B
:102F5000184600F0EDFA00B10124184600F0D0FA4E
:102F600000B10124C3F81058C3F81458C3F81C5812
:102F7000002006994FF0006C4FF090464FF67F37D7
:102F8000002936D903EB4011D1F8002912F0004F87
:102F900025D008B3C1F8006923E0D3F8040840F055
:102FA0000201C3F80418986B40F400119963986B00
:102FB00020F400219963986B20F480219963B9E78C
:102FC000089820B10121184600F071FBBFE70021ED
:102FD000184600F06CFBBAE7C3F800C901E0C1F87D
:102FE0000059C1F81059C1F80879401C069981426E
:102FF000C8D800200699002917D903EB4011D1F851
:10300000002B12F0004F06D010B1C1F8006B04E0A5
:10301000C3F800CB01E0C1F8005BC1F8105BC1F858
:10302000087B401C06998142E7D8D3F8100820F4A9
:103030008071C3F810189D616FF080405861099845
:1030400018B9986940F01000986198690A490843D6
:1030500098610C9818B1986940F008009861109830
:10306000012805D1986940F0040040F08040986143
:103070002046F0BC5DF814FB00383C80816821F0EC
:10308000010181600020704730B491F800C04C7895
:103090000B78012C00EB431322D0D3F8100B6FF305
:1030A0001200C3F8100BD3F8100B6FF3DC40C3F819
:1030B000100B486908B188684861D3F8100B40F4D8
:1030C0000020C3F8100BD3F8100BD1F808C0CCF3D4
:1030D000120C40EA0C00C3F8100B012A5CD05FE030
:1030E0004C69B4B3D3F810496FF31204C3F8104914
:1030F000D3F810496FF3DC44C3F810494D698C686C
:10310000A54200D94C61D3F8104944F40024C3F817
:103110001049D3F810494D69C5F312052C43C3F883
:103120001049012A29D000EB4C12D2F8003943F0A3
:103130000443C2F800394A696AB3D0F834280978E0
:10314000012301F00F0103FA01F11143C0F8341813
:103150002CE0FFE7D3F810496FF3DC44C3F81049C3
:10316000D3F8104944F40024C3F81049D3F81049A7
:103170006FF31204C3F81049D3E7096919B100EBE2
:103180004C12C2F8141900EB4C10D0F8001941F0A1
:103190000441C0F8001909E0C86808B1C3F8140B6D
:1031A000D3F8000B40F00440C3F8000B30BC002003
:1031B00070470000036CDFF858C0634506D9D0F8AB
:1031C000003B13F0004F01D0002070470023C0F8EF
:1031D000103BD0F8103B43F40023C0F8103BD0F86C
:1031E000103B43F01803C0F8103BD0F8103B43F0FD
:1031F000C043C0F8103B012907D1C0F8142BD0F808
:10320000001B41F08021C0F8001B00207047000027
:103210000A30544F4A780B78012A00EB43100BD048
:10322000D0F8002B22F40012C0F8002BC978032933
:1032300014D0022912D017E0D0F8002922F400128D
:10324000C0F80029C978032901D002290CD1D0F88F
:10325000001941F08051C0F8001905E0D0F8001BBA
:1032600041F08051C0F8001B002070470A784B786D
:103270000978012B00EB411005D0D0F8001B11F0AC
:10328000004F13D019E0D0F8001911F0004F06D10B
:103290002AB1D0F8001921F08041C0F80019D0F807
:1032A000001941F40011C0F800190CE02AB1D0F85F
:1032B000001B21F08041C0F8001BD0F8001B41F436
:1032C0000011C0F8001B0020704778B591F800C0CD
:1032D0004D780B786FF0604400EB4313012D2DD037
:1032E000D3F810CB6FF3120CC3F810CBD3F810CB7C
:1032F0006FF3DC4CC3F810CBD1F814C0BCF1000F55
:103300007DD08D68AC44ACF1010CBCFBF5FC1FFA20
:103310008CFCD3F8105B04EACC442C43C3F8104B6C
:10332000D3F8104B8D6805FB0CFCCCF3120C44EA6F
:103330000C0CC3F810CB012A7DD0BDE04D6925B33C
:10334000D3F810596FF31205C3F81059D3F8105978
:103350006FF3DC45C3F810594E698D682E44761E14
:10336000B6FBF5F504EAC544D3F810592C43C3F86D
:103370001049D3F810494D69C5F312052C43C3F821
:103380001049CC78012C13D01EE0D3F810496FF30C
:10339000DC44C3F81049D3F8104944F40024C3F8BE
:1033A0001049D3F810496FF31204C3F810490BE029
:1033B000D3F8104924F0C044C3F81049D3F8104999
:1033C00044F00054C3F81049012A1DD000EB4C13FF
:1033D000D3F800C94CF0044CC3F800C991F803C0FD
:1033E000BCF1010F3AD04A69002A79D0D0F83428CC
:1033F0000978012301F00F0103FA01F100E047E031
:103400001143C0F834186BE00A691AB100EB4C1391
:10341000C3F81429C97801290CD1D0F8081811F47F
:10342000807F12D000EB4C11D1F8002942F080527D
:10343000C1F8002900E03BE000EB4C10D0F8001987
:1034400041F00441C0F800194AE000EB4C11D1F8FA
:10345000002942F00052C1F80029EBE7D0F808C873
:103460001CF4807F0DD0D3F800C94CF0805CC3F809
:1034700000C900928A8A93B20A78C96800F098F964
:103480002EE0D3F800C94CF0005CC3F800C9F0E7A7
:10349000D3F810CB8C68C4F312044CEA040CC3F8C4
:1034A00010CBD3F810CB4CF4002CC3F810CB42E770
:1034B000CA680AB1C3F8142BC97801290AD1D0F817
:1034C000080810F4807F0DD0D3F8000B40F0805036
:1034D000C3F8000BD3F8000B40F00440C3F8000B16
:1034E000002078BDD3F8000B40F00050C3F8000B6B
:1034F000F0E7816841F00101816000207047000021
:1035000081B00021009110210161084A0099491CF5
:103510000091914202D9032001B07047016911F076
:10352000100FF3D1002001B070470000400D0300E0
:1035300081B000220092202242EA81110161084AF2
:103540000099491C0091914202D9032001B07047B3
:10355000016911F0200FF3D1002001B07047000085
:10356000400D0300D0F8080800F00600002805D040
:10357000022805D0062803D00F207047002070478E
:1035800002207047406900F001007047D0F8181819
:10359000D0F81C08084080B27047D0F81818D0F84E
:1035A0001C080840000C7047D0F81028D0F83438B8
:1035B00001F00F0C23FA0CF303F0010342EAC312EB
:1035C00000EB4110D0F808091040704700EB4111A2
:1035D000D1F8081BD0F81408084070474169806989
:1035E0000840704730B484460846930802F003014F
:1035F0000022002B07D90CF5805425680560001DBA
:10360000521C9A42F9D300290ED000224FF4805365
:1036100053F80CC0D3002CFA03F30370521C401C67
:10362000491E89B20029F5D130BC704770B50546F6
:103630000024E86820F0C040E860012902D089B188
:10364000012070BDE86840F00050E8600120FCF700
:103650004DFF641C2846FFF795FF012810D0322C3F
:10366000F4D30DE0E86840F08040E8600120FCF70A
:103670003DFF641C2846FFF785FF08B1322CF5D3C7
:10368000322C01D0002070BD012070BDD0F8002880
:1036900022F4FE62C0F80028D0F800284FF4FE6340
:1036A00003EA01111143C0F8001800207047D0F858
:1036B00000281143C0F8001800207047022A0FD0DC
:1036C000002A54D00921C26822F47052C260C26834
:1036D0004FF4705303EA81211143C1600020704709
:1036E000244A254B0A449A4201D20F21EBE7234A90
:1036F000234B0A449A4201D20E21E4E7A1F5740259
:10370000204BA2F510529A4201D20D21DBE7A1F124
:1037100083721D4BA2F5E7429A4201D20C21D2E7F7
:103720001A4A1B4B0A449A4201D20B21CBE7194A91
:10373000194B0A449A4201D20A21C4E7174A184B8E
:103740000A449A4201D20921BDE7A1F1B772154B93
:10375000A2F558529A4201D20821B4E7124A114404
:10376000124A914201D20721ADE70621ABE70921B8
:10377000A9E70000405327FF00350C00401E1BFF47
:1037800040420F00804F120020D6130060B6E5FEC5
:1037900060E3160000D3CEFE40771B00C05BB3FE93
:1037A000C091210020753800E05459FEE09C410092
:1037B000DDF800C0BCF1000F12D1DB1C4FEA930C06
:1037C0000023BCF1000F0BD900EB023000F5805252
:1037D00008681060481C801C411C5B1C6345F7D3C3
:1037E00000207047FEE7000008B5FCF7B9FFFEF7C0
:1037F000C3F90A48016841F080010160016801F0E5
:1038000080010091016841F001010160006800F051
:1038100001000090FEF78EF8FEE70000303802400D
:103820004FF04070E1EE100A704700000000000009
:103830000000010203040607080900005C380008C4
:103840000000002088010000C401000820390008A1
:1038500088010020D811000020020008111324F470
:10386000138D201B08CD041AD9041301211B083D18
:10387000041A5D0C1A9904170403090412011402B6
:103880000202164083044057260201020301031A74
:103890001A03136D041B0869041A61041A91041AAF
:1038A000A904193311B210130A0632022A40181C57
:1038B000090243571125C03209041B01020B1305ED
:1038C0002416100105240110090104240202052414
:1038D00006170107058203081C1009048D320A1D12
:1038E00007050102432C070581070938442A4007D0
:1038F0002A8107112B0907440A3B0444135D1D1458
:1039000008B31C14088F1E42081AFD0C1A1D041A55
:103910008504C11A45281A39041A51041A2D0400C5
:040000050800018965
:00000001FF
