:020000040800F2
:10000000C006002029020008431100084110000822
:10001000411100081F04000823130008000000001D
:100020000000000000000000000000004711000870
:1000300021040008000000004511000849110008D3
:10004000430200084302000843020008430200087C
:10005000430200084302000843020008430200086C
:10006000430200084302000843020008430200085C
:10007000430200084302000843020008430200084C
:10008000430200084302000843020008430200083C
:10009000430200084302000843020008230400084A
:1000A000430200084302000843020008430200081C
:1000B000430200084302000843020008430200080C
:1000C00043020008430200084302000843020008FC
:1000D00043020008430200084302000843020008EC
:1000E00043020008430200084302000843020008DC
:1000F00043020008430200084302000843020008CC
:1001000043020008430200084302000843020008BB
:1001100043020008430200084302000843020008AB
:10012000430200084302000843020008430200089B
:10013000430200084302000843020008430200088B
:10014000430200084302000843020008430200087B
:10015000430200084302000843020008430200086B
:10016000430200084302000843020008430200085B
:100170004302000843020008430200080000000098
:10018000430200084302000800F002F800F03CF8C7
:100190000AA090E8000C82448344AAF10107DA45E2
:1001A00001D100F031F8AFF2090EBAE80F0013F0F8
:1001B000010F18BFFB1A43F0010318475C1400003D
:1001C0007C140000103A24BF78C878C1FAD85207CE
:1001D00024BF30C830C144BF04680C6070470000C1
:1001E0000023002400250026103A28BF78C1FBD840
:1001F000520728BF30C148BF0B6070471FB501F0E0
:10020000F9F91FBD10B510BD00F0CFF81146FFF78A
:10021000F5FF01F097F800F0EDF803B4FFF7F2FFF7
:1002200003BC00F0F5F80000094880470948004782
:10023000FEE7FEE7FEE7FEE7FEE7FEE7FEE7FEE796
:10024000FEE7FEE704480549054A064B70470000F3
:10025000E111000889010008C0000020C00600204C
:10026000C0020020C002002053EA020C00F06980A6
:100270002DE9F04B4FF00006002B1FBFB3FA83F5BA
:1002800003FA05F424FA05F65E4012BF1643B2FAEB
:1002900082F502FA05F4C5F120051EBF22FA05FC1D
:1002A00044EA0C04203556EA044C4FEA144418BFC3
:1002B000641C4FF000084FF00009904271EB030CF2
:1002C00039D3002919BFB1FA81F701FA07F6B0FA5C
:1002D00080F700FA07F6C7F120071EBF20FA07FCD7
:1002E00046EA0C062037B6FBF4FCA7EB0507103FE7
:1002F00007F01F0BCBF120060CFA0BFB2CFA06F6CD
:1003000044BFB3460026202FA4BF5E464FF0000B2B
:100310005BEA060C08BF4FF0010B19EB0B09ABFBB6
:10032000027C48EB0608C01B06FB02CC0BFB03CC8F
:1003300071EB0C01C1E70B46024641464846BDE859
:10034000F08B13B54FF000004FF00001AFF30080C9
:10035000BDE81C4070474FF0000200B513469446BC
:100360009646203922BFA0E80C50A0E80C50B1F10D
:100370002001BFF4F7AF090728BFA0E80C5048BF21
:100380000CC05DF804EB890028BF40F8042B08BFBF
:10039000704748BF20F8022B11F0804F18BF00F8BB
:1003A000012B7047704770477047754600F02CF876
:1003B000AE4605006946534620F00700854618B052
:1003C00020B5FFF73FFFBDE820404FF000064FF09B
:1003D00000074FF000084FF0000B21F00701AC467A
:1003E000ACE8C009ACE8C009ACE8C009ACE8C00999
:1003F0008D46704710B50446AFF300802046BDE837
:100400001040FFF70ABF000000487047600000205E
:1004100001491820ABBEFEE7260002007047FEE748
:100420007047802000F03EB870B5044600F048F9EF
:100430000546601C02D004480078044400F040F9EE
:10044000401BA042FAD370BD0800002070B5124CCA
:10045000002512482178012906D002290AD18021DD
:1004600000F024F988B104E0802100F01FF9012890
:1004700001D0257070BD0A480068456202202070D6
:10048000BDE87040064800F0D9BC054800F012FDF8
:100490000320207070BD000000000020001002400A
:1004A00018000020044910B50A68024202D0086012
:1004B000FFF7CCFF10BD0000143C01402DE9F84FC0
:1004C000DFF8BCA10022012503264FF00F090AF135
:1004D000040BAAF1040E00BF0B6805FA02F42340D6
:1004E000A34270D10F7907F00307012F01D0022F2B
:1004F00016D187684FEA420806FA08FC27EA0C077B
:10050000D1F80CC00CFA08FC4CEA070CC0F808C083
:100510004768A7430C79C4F3001494403C434460FB
:100520000C79E443A4070AD0C4684FEA420C06FAE7
:100530000CF7BC438F6807FA0CF72743C7600C79A8
:1005400004F00304022C12D1D40800EB840CDCF874
:1005500020405707FF0E09FA07F824EA0804D1F8EB
:10056000108008FA07F848EA0408CCF820800468EC
:100570004FEA420C06FA0CF7BC430F7907F0030769
:1005800007FA0CF7274307604C6814F4403F70D01B
:100590003C4C276847F480472760246822F0030713
:1005A00004F480440094384C07EB040CDCF8084851
:1005B00097074FEA177809FA08F7BC43334FB84258
:1005C00002D1002724E054E0314FB84201D1012785
:1005D0001EE0304FB84201D1022719E02E4FB84239
:1005E00001D1032714E02D4FB84201D104270FE0B9
:1005F0002B4FB84201D105270AE02A4FB84201D15A
:10060000062705E0284FB84201D1072700E0082758
:1006100007FA08F72743CCF80878DAF8004057467D
:10062000D1F804C09C435FEACC2C00D51C433C604D
:10063000DBF800405F46D1F804C09C435FEA8C2C95
:1006400000D51C433C60DEF800407746D1F804C07A
:100650009C435FEA8C3C00D51C433C60084F083F3C
:100660003C68D1F804C09C435FEACC3C00D51C43F5
:100670003C60521C102AFFF42FAFBDE8F88F000039
:10068000083C014044380240003001400000024074
:100690000004024000080240000C0240001002402A
:1006A0000014024000180240001C0240006908408B
:1006B00000D0012070470AB1816170470904FBE74F
:1006C00001488068704700000800002002488168E7
:1006D0000278114481607047080000200B4810B573
:1006E000016841F400710160016841F480610160BA
:1006F000016841F480710160032000F06FF80F2061
:1007000000F006F800F024F8002010BD003C024084
:1007100070B50D4D04464FF47A712878B1FBF0F0B6
:100720000A490968B1FBF0F000F0EAFA48B9102C68
:1007300007D200222146501E00F030F800206C60E5
:1007400070BD012070BD00000800002014000020D2
:100750000A4808B5016841F480410160006800F46E
:10076000804000900548001F016841F08051016001
:10077000006800F08050009008BD0000443802403E
:10078000002809DB00F01F02012191404009800090
:1007900000F1E020C0F8001170470000F0B40E4BEB
:1007A0001B680C46C3F30223C3F10705042D00D9CF
:1007B0000425191D072901D2002300E0DB1E0126B4
:1007C00006FA05F1491E214099409E40761E1640CA
:1007D0003143F0BC00F0A6BD0CED00E0064900F08E
:1007E000070208684FF6FF03184040EA0220034A58
:1007F00010430860704700000CED00E00000FA05AF
:100800002DE9F0470E46050065D0DFF81481D8F8D1
:100810000000F7B200F00700B04207D288F800707D
:10082000D8F8000000F00700B04254D128683D4CD1
:10083000810712D5400703D5206840F4E0502060BE
:100840002878000703D5206840F4604020602068C5
:10085000A96820F0F000084320602878C0072DD058
:10086000304968680839012812D0022813D00328BB
:1008700011D00968890700292DDA216821F00301C8
:1008800001432160FFF71CFF814641F2883A0EE0E8
:1008900009688903EFE709688901ECE7FFF710FFB2
:1008A000A0EB0901514502D90320BDE8F08720687B
:1008B000696800F00C00B0EB810FEFD1D8F80010A0
:1008C000404601F00701B14207D90770006800F007
:1008D0000700B04201D00120E7E72878400705D59E
:1008E0002068E96820F4E050084320602878000779
:1008F00006D52068296920F4604040EAC1002060E4
:1009000000F018F82168084AC1F30311515CC8408F
:100910000649086006480068FFF7FAFE0020C4E7B1
:10092000003C02400838024008160008140000206D
:100930000C000020154810B5006810F00C02144897
:1009400013D04110042A0FD0082A0ED10F4C241FB7
:100950002268236802F03F025B0207D52068C0F3DB
:100960008810A0FB010106E0084610BD2168C1F314
:100970008811A1FB00010023FFF776FC2168C1F379
:100980000141491C4900B0FBF1F010BD083802409C
:100990000024F4002DE9F84F04006ED02078DFF831
:1009A0004C93C007A9F104054AD009F1040001687D
:1009B000C1F38101012908D00068C0F38100022839
:1009C0000AD1D9F80000400206D52868800337D53F
:1009D00060680028E1D033E06068B0F5803F10D057
:1009E000B0F5A02F286810D020F480302860286847
:1009F00020F4802028606068A8B1FFF761FE0646F9
:100A00000DE0286840F48030F4E740F4802028604E
:100A1000F7E700BFFFF754FE801B642873D82868EF
:100A20008003F7D50CE0FFF74BFE064605E000BF5C
:100A3000FFF746FE801B6428F0D828688003F7D4AF
:100A40002078DFF8AC8280074FF0000A3ED5A74837
:100A5000001D016811F00C0F08D00068C0F3810080
:100A600002280BD1D9F80000400207D4286880077B
:100A700016D5E068012800D112E033E1E068B8B192
:100A80000120C8F80000FFF71BFE064605E000BF86
:100A9000FFF716FE801B0228C0D828688007F7D50C
:100AA0002868216920F0F80040EAC10028600DE0C4
:100AB000C8F800A0FFF704FE064604E0FFF700FEBA
:100AC000801B02281FD828688007F7D420780007E9
:100AD00022D5864F87486169703771B10121016065
:100AE000FFF7EEFD064604E0FFF7EAFD801B022853
:100AF00009D838688007F7D50EE0C0F800A0FFF7E6
:100B0000DFFD064605E082E0FFF7DAFD801B0228E4
:100B10007DD838688007F7D42078400768D5DFF89B
:100B2000CCB100270BF13C0BDBF80000C0000BD46C
:100B3000DBF8001041F08051CBF80010DBF800002A
:100B4000012700F0805000906B4E3068C00510D433
:100B5000306840F480703060FFF7B2FD009005E02F
:100B6000FFF7AEFD0099401A022850D83068C00542
:100B7000F6D55E4EA0686C3601280FD00528306887
:100B800010D020F001003060306820F004003060A8
:100B9000A068B8B1FFF794FD00900FE0306840F016
:100BA0000100F4E740F004003060F7E7FFF788FD4C
:100BB0000099411A41F28830814266D83068800736
:100BC000F4D50EE0FFF77CFD009007E0FFF778FD1D
:100BD0000099411A41F28830814256D83068800726
:100BE000F4D42FB1DBF8001021F08051CBF80010C5
:100BF000A069C8B33D49091D0968C1F381010229F3
:100C00004AD00228504607D0C8F8600000E03CE017
:100C1000FFF756FD04463BE04746C8F86000FFF783
:100C20004FFD064605E000BFFFF74AFD801B022886
:100C30002BD828688001F7D4D4E907010843A16ABA
:100C40002E4A490802EB0141626A41EA82110843D7
:100C500094F82C1040EA0161C9F8001001203866B0
:100C6000FFF72EFD044606E03EE000BFFFF728FD3B
:100C7000001B022809D828688001F7D534E000BF9E
:100C8000FFF71EFD001B022802D90320BDE8F88FE4
:100C900028688001F4D427E00128F7D0D9F80000B3
:100CA000E26900F4800191421CD1226A00F03F0108
:100CB000914217D147F6C071626A0140B1EB821FC1
:100CC00010D1A26A4FF0FF3300F4403103EB52021F
:100CD000B1EB024F06D194F82C1000F07060B0EB2D
:100CE000016F01D00120D1E70020CFE70438024096
:100CF00000004742800E4742007000400000FFFFA6
:100D000010B5401EB0F1807F01D3012010BD4FF01F
:100D1000E02460610F21601700F004FB0020A06157
:100D200007202061002010BD70B590F83C20012AFA
:100D300032D0012480F83C40022280F83D20036834
:100D40005A689D6822F070060A6832435A60134B55
:100D500002689A4214D0B2F1804F11D0104B9A42DF
:100D60000ED0104B9A420BD00F4B9A4208D00F4B2B
:100D70009A4205D00E4B9A4202D00E4B9A4204D1B1
:100D8000496825F080031943916080F83D400021B7
:100D900080F83C10084670BD022070BD0000014084
:100DA0000004004000080040000C00400004014026
:100DB000004001400018004010B5040003D094F832
:100DC0003D0010B107E0012010BD002084F83C0078
:100DD000204600F01FF8022084F83D00211D206805
:100DE00000F006FA012084F8460084F83E0084F8FA
:100DF0003F0084F8400084F8410084F8420084F801
:100E0000430084F8440084F8450084F83D00002045
:100E100010BD000008B500680649884208D10648A0
:100E2000016841F001010160006800F001000090DC
:100E300008BD0000000001404438024090F83D1019
:100E4000012901D001207047022180F83D1000687F
:100E50001149884214D0B0F1804F11D00F49884217
:100E60000ED00F4988420BD00E49884208D00E4957
:100E7000884205D00D49884202D00D49884204D1EC
:100E8000816801F00701062903D0016841F00101E2
:100E90000160002070470000000001400004004095
:100EA00000080040000C00400004014000400140E8
:100EB0000018004001680A6A41F211131A4207D172
:100EC0000A6A9B101A4203D10A6822F001020A60E2
:100ED000012180F83D100020704770B5044690F85D
:100EE0003C000025012817D0012684F83C60022030
:100EF00084F83D002068826822F0770222F47F4265
:100F000082600868502838D00DDC20284FD005DCDE
:100F100090B3102811D14AE0022070BD302846D08D
:100F200040280AD13BE060282FD070280DD0B0F5C2
:100F3000805F03D0B0F5005F12D0012584F83D60DA
:100F4000002084F83C00284670BDCB68D1E901211F
:100F5000206800F0B1F92068816841F0770109E06C
:100F6000CB68D1E90121206800F0A6F920688168EA
:100F700041F480418160E1E719E0CA68496820686E
:100F800000F0ACF95021206806E0CA684968206882
:100F900000F0B5F96021206800F098F9CEE7CA6842
:100FA0004968206800F09AF940212068F4E7226837
:100FB00001461046F0E70000014880ED010A704745
:100FC0000000002010B50C4C2078032812D10B48EB
:100FD0000068406A00F0FDF99FED091B53EC112BEE
:100FE00000F00AFA00F0C4F900EE100AFFF7E4FF7F
:100FF0000020207010BD000000000020180000201C
:101000009CC420B07268913F70B50B4C20780028CA
:1010100010D10122094E150229463046FFF74BFB3D
:101020000220FFF701FA002229463046FFF743FB72
:101030000120207070BD0000000000200010024060
:10104000FEE7000070B586B014216846FFF783F90B
:101050001F480024016841F080010160016801F02F
:1010600080010591016841F010010160016801F003
:1010700010010591016841F0010101600068154E01
:1010800000F001004FF4807505900022294630469B
:10109000FFF711FB802000904FF44410CDE90104CC
:1010A00069463046FFF70AFA01200095CDE90104B0
:1010B0000220039069463046FFF700FA0022012122
:1010C0001720FFF76BFB1720FFF75AFB06B070BD28
:1010D000303802400010024010B586B00024174896
:1010E00000940194029403940494134905940160BC
:1010F000A721C0E901144FF6FF71C0E90314446150
:101100008461FFF759FE08B172B6FEE74FF48050D4
:10111000009069460948FFF7E0FE08B172B6FEE7A5
:10112000049404A905480594FFF7FEFD002801D0AA
:1011300072B6FEE706B010BD0000014018000020A6
:10114000FEE7FEE770477047FFF7C0BA30B593B0CF
:1011500030216846FFF7FFF814210CA8FFF7FBF8D1
:101160001D480025016841F080510160006800F0D1
:10117000805011901948016841F480410160006875
:10118000022400F48040119001200090000401909E
:101190008001CDE9064008AA0420A82182E81300B6
:1011A0000B906846FFF7F6FB08B172B6FEE70CA994
:1011B0000F2081E831004FF4A0500F904FF4805081
:1011C000109005210CA8FFF71BFB002801D072B678
:1011D000FEE713B030BD0000403802400070004010
:1011E0000248016841F470010160704788ED00E039
:1011F000F0B50268254C264D264E274F274B4FF061
:10120000804CA04209D0604507D0A84205D0B0422A
:1012100003D0B84201D0984204D122F0700E4A683F
:1012200042EA0E02A0421BD0604519D0A84217D056
:10123000B04215D0B84213D0984211D0184DA842F0
:101240000ED0184DA8420BD0174DA84208D0174D0C
:10125000A84205D0164DA84202D0164DA84203D18F
:1012600022F44075CA682A434D6922F080022A435D
:1012700002608A68C2620A688262A04201D0984213
:1012800001D10969016301214161F0BD0000014004
:101290000004004000080040000C00400004014031
:1012A0000040014000440140004801400018004057
:1012B000001C00400020004010B5846842EA032270
:1012C00024F47F440A432243826010BD826822F0E6
:1012D00070020A4342F007018160704710B5036A4B
:1012E000046A24F001040462846924F0F00444EAEE
:1012F000021423F00A020A438461026210BD10B591
:10130000036A23F0100303628369046A23F47043C1
:1013100043EA023224F0A00343EA01118261016230
:1013200010BDFEE70907090E002804DB00F1E020EC
:1013300080F80014704700F00F0000F1E02080F802
:10134000141D7047FFF7CAF9FFF700FFFFF77AFE99
:10135000FFF7C2FE4FF49675FFF7B2F9001BA842E3
:1013600003D3FFF751FEFFF7ABF9FFF72BFEF3E7CF
:1013700021F00042A2F16052B2F5801F01F000435B
:1013800028BFD2F17F6C0BD95FEA001C43EAC2028E
:1013900042EB507018BF704728BF20F00100704723
:1013A000B2F5801FBCBF184670474FEA410C1CF5D0
:1013B000001F02D2084600F022B970B500F0C6F84E
:1013C00000000089FFF7F6BF4FF00040A0F5800055
:1013D0007047B0FA80F310FA03F10AD0C3F11D038D
:1013E00003F580634FEA41504FEA035202EBD121EB
:1013F00070474FF000007047DFF848C170B51CEA35
:10140000111E1EBF1CEA13159EEA0C0F95EA0C0F65
:1014100000F06F8081EA030423EA4C134EEAD47E85
:1014200021EA4C1141F4801143F48013AE44A1FB36
:10143000024CA0FB0365AEF17F7E361955EB0C051F
:10144000A1FB034C4CF10003A0FB021C16EB0C06A5
:10145000654153F10003094218BF46F0010613F439
:10146000007F0BD14FEA03314FEA0530340341EAE4
:10147000155140EA16506FF003020AE04FEAC3210B
:101480004FEAC520F40241EA555140EA56506FF048
:10149000020202EB2E4201EB025585EACE710AD020
:1014A0005FEA440C18BF24F0004450F1000041F101
:1014B000000120EAD47040F2FE7C624500D270BD8B
:1014C000A84214BF4FF080444FF04044002E08BFA4
:1014D0000024BEF1806FA8BFA1F1C041BDE87040FB
:1014E00080F282804FF0000001F1C04101F0004124
:1014F00070479EEA0C0F0CEA131518BF95EA0C0F03
:1015000006D04FF0000081EA030E0EF0004170BDDE
:1015100000F01CF88900013E00F007B800F009B89F
:101520004FEA430C5FEA5C5C08D081EA030100F0FB
:101530005BB84FEA410C5FEA5C5CF6D14FF000000B
:10154000014970470000FF070000F87F0EF1020E0E
:101550002EF0030E5EF8046B364205D4012A43EBED
:10156000030515F5001F12D8012841EB010C1CF5ED
:10157000001F0CD80ED14FEAD17C15F5001F0CEBE3
:101580004C0C0CF1020C08BF4CEBD37C04E04FF088
:10159000080C01E04FEAD37C0CEB4C0526FA05F66B
:1015A00006F00706B6F1040C06D20EEB860CBDE879
:1015B00070404CF0010C6047DFE80CF0090B0202B0
:1015C0004FF000414FF00000A1F5002170BD194619
:1015D0001046012851EB010418BFD4F5001484BF54
:1015E000002001F0004170BD0808A0F500114FEA8D
:1015F000310170474FF04070E1EE100A7047FF2153
:1016000041EAD050C0057047000000000000000013
:10161000010203040607080938160008000000202C
:1016200018000000C401000850160008180000202F
:10163000A8060000E0010008000000000000000013
:101640000100000010000000000000000024F40071
:040000050800018965
:00000001FF
