:020000040000FA
:060000000A128A110C280F
:10000800FE00030EF0000A08F1000A128A111629F0
:100018000A128A110F2883120313A801A901830168
:100028000A128A1117280A128A112C210A128A1117
:100038008316031388130A128A1135210A128A11AA
:1000480000300A128A1193200A128A11FF30831293
:100058000313A4000330A50072082402F7007308F4
:10006800031C730A2502F8000A30F9000030FA0070
:100078000A128A11C7200A128A11780883120313F8
:10008800A7007708A6002708803AFF00A5307F025E
:10009800031D50281D302602031C532854285B28B2
:1000A8001C3083120313A6002530A7006E28831284
:1000B80003132708803AFF0080307F02031D66285B
:1000C800C8302602031869286A286E288312031389
:1000D800A601A70183120313280829040319752808
:1000E80076286E2888172708A3002608A2000A1277
:1000F8008A11F2200A128A11831203138813C73057
:1001080083120313A4008828A40B87288B28831242
:100118000313A801A90124280A128A110C28F60041
:1001280008307602031C99289A289D28F201F301C9
:10013800C628C530FF007F08831203139F05760881
:10014800F40002300310F40DFF3E031DA62803102F
:10015800740DFF007F089F040D30F500FB30F4009C
:10016800F40BB428F50BB428B928831203131F1510
:100178001F19BF28C028BC281E08F30083160313C4
:100188001E08F200080083120313A001A101771CC6
:10019800CE28CF28D728790883120313A00703187D
:1001A800A10A7A08A10701300310F90DFA0DFF3EE4
:1001B800031DD82801300310F80CF70CFF3E031D6F
:1001C800DF2877087804031DEA28EB28CB28831258
:1001D80003132108F8002008F70008000530F7008D
:1001E8000030F800831203132308FA002208F900EC
:1001F8000A128A11C7200A128A1178088312031377
:10020800A3007708A2000130A2020030031CA30358
:10021800A302220A031D1429230A031D14291529E0
:10022800072908000B1E19291A2925298B1C1D29A5
:100238001E2925298B10013083120313A8000030D2
:10024800A90071088A00700E8300FE0E7E0E090058
:100258008130831203139F008030831603139F009D
:0802680008000B168B170800BB
:02400E00F23F7F
:00000001FF
