:100000000A128A11FC2F00308A000408840A820731
:10001000003444345534433420344434413454346B
:020020000034AA
:1007CE0001300A128A115E240A128A1108300A12A6
:1007DE008A115E240A128A11080001300A128A1147
:1007EE005E240A128A110C300A128A115E240A1231
:1007FE008A11080000300A128A115E240A128A1128
:10080E0001300A128A115E240A128A110D30F50087
:10081E00FB30F400F40B112CF50B112C162C0800E8
:10082E00F000701C1B2C1C2C202C8312031308169A
:10083E00232C831203130812F01C262C272C292C90
:10084E0088162A2C8812701D2D2C2E2C302C081751
:10085E00312C0813F01D342C352C372C8817382CDE
:10086E0088130800F800F601F701502C7608780777
:10087E0084000A128A1103200A128A110A128A119E
:10088E00DE240A128A110130F6070318F70A003027
:10089E00F7077608780784000A128A1103200A12D5
:1008AE008A11003A031D5C2C5D2C3D2C0800F300D0
:1008BE0083120313081173080A128A1117240A12DD
:1008CE008A11831203138815033073020318702CD8
:1008DE00712C7B2C0D30F200FB30F100F10B752CDE
:1008EE00F20B752C7A2C7F2C5330F100F10B7D2CF2
:1008FE000430F2003D30F100F10B832CF20B832C0F
:10090E00882C8312031388110800F7007703031D48
:10091E00912C922CB52C74087F3EF5007508FA00C8
:10092E007A08F50004300310F50CFF3E031D9A2CD7
:10093E007508F6007608F9007A080F39F500750883
:10094E00F80079080A128A115E240A128A117808B0
:10095E000A128A115E240A128A11DD2C02307706E1
:10096E00031DBA2CBB2CDD2C7408BF3EF500750898
:10097E00FA007A08F50004300310F50CFF3E031D53
:10098E00C32C7508F6007608F9007A080F39F500C1
:10099E007508F80079080A128A115E240A128A1163
:1009AE0078080A128A115E240A128A110800F500CC
:1009BE0075080F39F1007108F3007508F039F10070
:1009CE007108F4008312031308157408F100043043
:1009DE000310F10CFF3E031DEF2C71080A128A1151
:1009EE0017240A128A118312031388150430F20099
:1009FE003D30F100F10B012DF20B012D062D83126E
:100A0E00031388110430F2003D30F100F10B0D2D6F
:100A1E00F20B0D2D122D73080A128A1117240A12C9
:100A2E008A118312031388150430F2003D30F10051
:100A3E00F10B1F2DF20B1F2D242D83120313881182
:100A4E000430F2003D30F100F10B2B2DF20B2B2D6B
:100A5E00302D080083160313880108118811003009
:100A6E000A128A1117240A128A11C330F500CD30EA
:100A7E00F400F40B402DF50B402D0430F5003D3005
:100A8E00F400F40B482DF50B482D4D2D03300A12B2
:100A9E008A115E240A128A112130F5007630F40094
:100AAE00F40B572DF50B572D000003300A128A1147
:100ABE005E240A128A11F930F400F40B642D672DAE
:100ACE0003300A128A115E240A128A1102300A12A7
:100ADE008A115E240A128A1102300A128A115E24C9
:100AEE000A128A1108300A128A115E240A128A1119
:100AFE0000300A128A115E240A128A110C300A1270
:100B0E008A115E240A128A1100300A128A115E249A
:100B1E000A128A1106300A128A115E240A128A11EA
:100B2E000800FA01F71F9C2D9D2DAA2DF409F50939
:100B3E00F609F709F40A0319F50A0319F60A031957
:100B4E00F70AFA01FA0AF31FAD2DAE2DB92DF009F1
:100B5E00F109F209F309F00A0319F10A0319F20A6D
:100B6E000319F30A73087204710470040319C02D7B
:100B7E00C12D042EF901F90AD12D0130F800031010
:100B8E00F00DF10DF20DF30DF80BC62D0130F8003E
:100B9E007808F907F31FD42DD52DC42D73087702CD
:100BAE00031DE32D72087602031DE32D71087502F5
:100BBE00031DE32D70087402031CE62DE72DF52DA1
:100BCE007008F4027108031C710FF5027208031C01
:100BDE00720FF6027308031C730FF7020130031035
:100BEE00F30CF20CF10CF00CFF3E031DF62D013050
:100BFE00F902031D032E042ED52D7A080319082E93
:100C0E00092E142EF409F509F609F709F40A031949
:100C1E00F50A0319F60A0319F70A7708F30076089E
:100C2E00F2007508F1007408F00008008312031337
:100C3E00A101F31F232E242E312EF009F109F20902
:100C4E00F309F00A0319F10A0319F20A0319F30A58
:100C5E00A101A10AF71F342E352E442EF409F509F1
:100C6E00F609F709F40A0319F50A0319F60A031926
:100C7E00F70A0130F8007808A1060030A500003010
:100C8E00A4000030A3000030A200730872047104A7
:100C9E0070040319532E542EA12EA001A00A642E07
:100CAE000130F8000310F00DF10DF20DF30DF80BFD
:100CBE00592E0130F8007808A007F31F672E682E12
:100CCE00572E0130F8000310A20DA30DA40DA50D93
:100CDE00F80B6A2E73087702031D7F2E72087602B8
:100CEE00031D7F2E71087502031D7F2E700874027E
:100CFE00031C822E832E922E7008F4027108031CA0
:100D0E00710FF5027208031C720FF6027308031CB2
:100D1E00730FF702221401300310F30CF20CF10CD6
:100D2E00F00CFF3E031D932E0130A002031DA02EDA
:100D3E00A12E682E21080319A52EA62EB12EA209CA
:100D4E00A309A409A509A20A0319A30A0319A40A4F
:100D5E000319A50A2508F3002408F2002308F10060
:100D6E002208F00008000630831603139F000A12B3
:100D7E008A1131250A128A110A128A1101240A12C5
:100D8E008A11F401F40A01300A128A118C240A1213
:100D9E008A1101300A128A1139240A128A11F401B9
:100DAE00F40A02300A128A118C240A128A111130A6
:100DBE0083120313A900EC30A8009F30A7008130E6
:100DCE00A6000A128A1157270A128A11333083128B
:100DDE000313C500BB30C400DF30C300C30BF52EB8
:100DEE00C40BF52EC50BF52E83120313C601C701D6
:100DFE00083083120313C5009D30C4000530C300B4
:100E0E00C30B072FC40B072FC50B072F0A128A110E
:100E1E00F4230A128A11013083120313C607031832
:100E2E00C70A0030C7074708803AFF0080307F02AC
:100E3E00031D232F04304602031C262F272FFF2EBF
:100E4E0083120313C801C901083083120313C500AE
:100E5E009D30C4000530C300C30B332FC40B332F9A
:100E6E00C50B332F0A128A11E7230A128A11013099
:100E7E0083120313C8070318C90A0030C9074908AB
:100E8E00803AFF0080307F02031D4F2F043048024E
:100E9E00031C522F532F2B2FFB2E0A128A110028C0
:100EAE00FF3083120313BE00FF30BF002908280451
:100EBE0027042604031D642F652F712F2608303E4C
:100ECE00FB007B08C00040080A128A11DE240A12B9
:100EDE008A11FB2F29082804270426040319782FCA
:100EEE00792FFB2FC32F013083120313BE07031874
:100EFE00BF0A0030BF070030F3000030F2000030B0
:100F0E00F1000A30F0002908F7002808F60027083B
:100F1E00F5002608F4000A128A1198250A128A1181
:100F2E00831203133E08FB007B072A3E84007008E1
:100F3E0083138000840A710880000030F3000030B3
:100F4E00F2000030F1000A30F0002908F7002808FE
:100F5E00F6002708F5002608F4000A128A111D264D
:100F6E000A128A11730883120313A9007208A800CB
:100F7E007108A7007008A600A91BD62F2908031D0B
:100F8E00D52F2808031DD52F2708031DD52F013077
:100F9E002602031DD22F0318D52FD62F7A2F831298
:100FAE0003133F08C2003E08C100C21FDF2FE02F0F
:100FBE00E12FFB2F4108FB007B072A3E84008313A1
:100FCE000008303EFC007C08C00040080A128A115E
:100FDE00DE240A128A11FF3083120313C10703188D
:100FEE00C20AFF30C207DC2F080083010A128A11E1
:020FFE00BA2E09
:00000001FF
