:060000000A128A11E22F32
:100816007908F1007808F0000A128A1172240A1287
:100826008A110800831203134508C1004408C0005A
:100836000A128A110F270A128A1108007E088A00F6
:100846007F0882000A128A1121240A128A11800066
:10085600840A04087D0603190034FF0A0319FE0AF8
:10086600252CC034F934A434B0349934923482340B
:10087600F8348034903401340034013400340134C7
:100886000034013400340134003406308316031377
:100896009F0005148514051585158801FF30831200
:1008A600031388008316031306108610061186119B
:1008B600831203138611061186100610831603137E
:1008C6000710871007118711071287128312031367
:1008D6008712071107128710871107100800831265
:1008E600031307110710871287110716071A7C2CA6
:1008F600802C831203138714832C8312031387100F
:10090600F401F501952C0630F3003030F200F20BBD
:100916008A2CF30B8A2C00000130F4070318F50A21
:100926000030F5077508803AF2007108803A7202C5
:10093600031D9F2C70087402031CA22CA32C862C6A
:100946008312031307128710F601F701B92C06303C
:10095600F3003030F200F20BAE2CF30BAE2C00009D
:100966000130F6070318F70A0030F7077708803AD0
:10097600F2007108803A7202031DC32C70087602D9
:10098600031CC62CC72CAA2C0800F501F31FCC2C7F
:10099600CD2CD42CF209F309F20A0319F30AF50156
:1009A600F50AF11FD72CD82CDD2CF009F109F00A35
:1009B6000319F10A700871040319E22CE32C122DB5
:1009C600F401F40AF12C01300310F00DF10DFF3E95
:1009D600031DE72C0130FF007F08F407F11FF42CFC
:1009E600F52CE62C71087302031DFB2C70087202AD
:1009F600031CFE2CFF2C052D7008F2027108031C47
:100A0600F303F30201300310F10CF00CFF3E031D5B
:100A1600062D0130F402031D112D122DF52C75083B
:100A26000319162D172D1C2DF209F309F20A0319C5
:100A3600F30A7308F1007208F0000800F501F11FCF
:100A4600252D262D2D2DF009F109F00A0319F10A9D
:100A5600F501F50AF31F302D312D3A2DF209F30970
:100A6600F20A0319F30A0130FF007F08F506F601C2
:100A7600F701700871040319412D422D792DF401F7
:100A8600F40A502D01300310F00DF10DFF3E031D49
:100A9600462D0130FF007F08F407F11F532D542D1A
:100AA600452D01300310F60DF70DFF3E031D552DA4
:100AB60071087302031D612D70087202031C642DF8
:100AC600652D6C2D7008F2027108031CF303F30206
:100AD600761401300310F10CF00CFF3E031D6D2D52
:100AE6000130F402031D782D792D542D7508031954
:100AF6007D2D7E2D832DF609F709F60A0319F70ACF
:100B06007708F1007608F0000800FB01FC010A30C6
:100B1600F0000030F100831203133F08F3003E0893
:100B2600F2000A128A1121250A128A11710883120B
:100B36000313BB007008BA000A30F0000030F10061
:100B46003F08F3003E08F2000A128A11C8240A126E
:100B56008A11710883120313BD007008BC003A089D
:100B6600203E840083130008880006150230FA0030
:100B76000430F900BA30F800F80BBF2DF90BBF2D81
:100B8600FA0BBF2D00008312031306113C08203E0A
:100B9600840083130008880086150230FA000430AA
:100BA600F900BA30F800F80BD62DF90BD62DFA0B52
:100BB600D62D00008312031386110A30F000003090
:100BC600F1003908F3003808F2000A128A112125CB
:100BD6000A128A11710883120313B5007008B40053
:100BE6000A30F0000030F1003908F3003808F2004E
:100BF6000A128A11C8240A128A1171088312031371
:100C0600B7007008B6003A08203E84008313000837
:100C1600880006140230FA000430F900BA30F800F1
:100C2600F80B132EF90B132EFA0B132E000083125A
:100C3600031306103C08203E840083130008880036
:100C460086140230FA000430F900BA30F800F80BC6
:100C56002A2EF90B2A2EFA0B2A2E000083120313D2
:100C660086100130FB070318FC0A0030FC077C08DD
:100C7600803AFF0080307F02031D432E32307B0214
:100C8600031C462E472E8A2D08000A128A11482474
:100C96000A128A118312031305080139C600C70117
:100CA60033084706031D592E3208460603195C2EE3
:100CB6005D2E632E0518602E612E632EB001B101E4
:100CC60005080139C600C7014608B2004708B30047
:100CD600050C0139C600C70133084706031D752EEA
:100CE600320846060319782E792E7F2E85187C2E1B
:100CF6007D2E7F2EAA01AB01050C0139C600C70166
:100D06004608B2004708B300050CC600460C013978
:100D1600C700C80133084806031D932E320847064C
:100D26000319962E972E9D2E05199A2E9B2E9D2ED3
:100D3600AE01AF01050CC600460C0139C700C8015B
:100D46004708B2004808B300050CC600C60C460C9E
:100D56000139C700C80133084806031DB42E3208FE
:100D660047060319B72EB82EBE2E8519BB2EBC2EEC
:100D7600BE2EAC01AD01050CC600C60C460C0139F1
:100D8600C700C8014708B2004808B300300831045C
:100D9600031DCE2ECF2ED82E1E30C0000030C1002F
:100DA6000A128A110F270A128A11831203132A08BC
:100DB6002B040319DF2EE02EE92E3C30C400003050
:100DC600C5000A128A1115240A128A118312031306
:100DD6002E082F04031DF02EF12EFA2EF430F0000B
:100DE6000130F1000A128A1172240A128A11831242
:100DF60003132E082F04031D012F022F4D2EF4304E
:100E0600F8000130F9000A128A110B240A128A111D
:100E16004D2E0A128A110028053083120313C200D0
:100E26000030C3004008053EBE0041080318013EDD
:100E3600003EBF004108B9004008B800FF308800F6
:100E46008716871A272F2B2F8312031307142E2F8B
:100E560083120313071007118710871107120A124E
:100E66008A1188250A128A11FF3083120313BE07DE
:100E76000318BF0AFF30BF07FF30B8070318B90AC7
:100E8600FF30B90738083904031D4A2F4B2F212F8D
:100E96004308B9004208B8003908BF003808BE0048
:100EA6008716871A572F5B2F8312031387145E2F1B
:100EB60083120313871007100711871107120A12EE
:100EC6008A1188250A128A11FF3083120313BE077E
:100ED6000318BF0AFF30BF07FF30B8070318B90A67
:100EE600FF30B90738083904031D7A2F7B2F532F9B
:100EF6004108BF004008BE0042084007B80043084A
:100F06000318430A4107B900FF308800071507197F
:100F16008D2F912F831203138715942F831203139A
:100F2600871107108710871207120A128A1188255F
:100F36000A128A11FF3083120313BE070318BF0A71
:100F4600FF30BF07FF30B8070318B90AFF30B907EB
:100F56003E083F04031DB02FB12F872F4308B90069
:100F66004208B8003908BF003808BE00071507193F
:100F7600BD2FC12F831203130716C42F8312031329
:100F8600071207108710871187120A128A118825FF
:100F96000A128A11FF3083120313BE070318BF0A11
:100FA600FF30BF07FF30B8070318B90AFF30B9078B
:100FB6003E083F04031DE02FE12FB92F08008313DD
:100FC6003430FD000430FE003430FF002030840051
:100FD6000A128A1125240A128A11B401B501B60132
:100FE600B701B801B901BA01BB01BC01BD01BE011F
:0A0FF600BF0183010A128A11482E80
:02400E00F23F7F
:00000001FF
