:020000040000FA
:100000000A128A11E92FFF1B0D2883137F1883170B
:100010000008840A0319FF0A080000308A00040857
:10002000840A8207003443346834653463346B34A3
:10003000733475346D3420344534723472346F3413
:10004000723421340034663472346F346D342034A9
:100050007434683465342034733465346E347334E6
:100060006F34723400344E346F342034723465345B
:10007000733470346F346E347334653400345434F4
:1000800069346D34653420346F34753474342134FC
:0200900000343A
:1006760000300A128A116B230A128A1101300A12FB
:100686008A116B230A128A11080006308316031397
:100696009F0010308312031390008F018E010A12FF
:1006A6008A118F250A128A1108007E088A007F089F
:1006B60082000A128A1158230A128A118000840ABB
:1006C60004087D0603190034FF0A0319FE0A5C2B91
:1006D600F30083120313081173080A128A11C02348
:1006E6000A128A118312031388150B30F200623046
:1006F600F100F10B7C2BF20B7C2B00008312031311
:1007060088110800831603130610831203130610BC
:100716004130F100EE30F000F00B8F2BF10B8F2BF8
:1007260000008312031306141330F000F00B992B0C
:100736009C2B8316031306140800523448342034C5
:10074600203420343D342034303430342E343034A8
:1007560020342534203420340034543465346D3448
:10076600703420343D342034303430342E34303438
:1007760020344334203420340034F000701CC42B61
:10078600C52BC92B831203130816CC2B8312031314
:100796000812F01CCF2BD02BD22B8816D32B881205
:1007A600701DD62BD72BD92B0817DA2B0813F01D63
:1007B600DD2BDE2BE02B8817E12B88130800831234
:1007C60003138F018E0110140618EA2BEB2BF12B65
:1007D60064300E02031CF02BF12BE72B64300E0263
:1007E600031CF62BF72BF92B03100D2C8F018E0112
:1007F600061CFE2BFF2B052C64300E02031C042C5A
:10080600052CFB2B64300E02031C0A2C0B2C0C2C23
:10081600F72B03140800FA01FB01332C7A0875073D
:10082600F8007608F7000318F70AFA1F1B2CF703DF
:100836007708F900790883120313FF00780884000B
:100846000A128A1103200A128A110A128A1199249D
:100856000A128A110130FA070318FB0A0030FB0757
:100866007A087507F8007608F7000318F70AFA1FE2
:100876003D2CF7037708F900790883120313FF006C
:10088600780884000A128A1103200A128A11003A93
:10089600031D4E2C4F2C112C0800F2007208840008
:1008A60083138001F101831203138F018E01632CE0
:1008B60065300E02031C602C612C632C0314982CEB
:1008C600061C662C672C5B2C8F018E01712C653003
:1008D6000E02031C6F2C702C712C612C0618742CC4
:1008E600752C6A2C33300E02031C7A2C7B2C8D2C33
:1008F6000130F0007108073C013E832C0310F00D17
:10090600FF3E031D812C7008FF00720884007F08DB
:10091600831380040130FF007F08F107083071025D
:10092600031C962C972C562C03100800F400740810
:100936000F39FF007F08F2007408F039FF007F08C6
:10094600F3008312031308157308F1000430031033
:10095600F10CFF3E031DAA2C71080A128A11C0234E
:100966000A128A11831203138815C730F100BB2CB3
:10097600F10BBA2CBE2CBF2C831203138811C7307F
:10098600F100C52CF10BC42CC82CC92C72080A1214
:100996008A11C0230A128A11831203138815C730DD
:1009A600F100D52CF10BD42CD82CD92C831203139F
:1009B6008811C730F100DF2CF10BDE2CE22CE32C82
:1009C6000800F6007603031DE92CEA2C0D2D7408A9
:1009D6007F3EFF007F08F9007908F5000430031018
:1009E600F50CFF3E031DF22C7508FF007F08F8008A
:1009F60079080F39FF007F08F70078080A128A1174
:100A06006B230A128A1177080A128A116B230A12BB
:100A16008A11352D02307606031D122D132D352D24
:100A26007408BF3EFF007F08F9007908F50004301E
:100A36000310F50CFF3E031D1B2D7508FF007F08F4
:100A4600F80079080F39FF007F08F70078080A12C6
:100A56008A116B230A128A1177080A128A116B23EC
:100A66000A128A110800F501F31F3A2D3B2D422D7B
:100A7600F209F309F20A0319F30AF501F50AF11F5F
:100A8600452D462D4B2DF009F109F00A0319F10AFF
:100A9600700871040319502D512D802DF401F40AAC
:100AA6005F2D01300310F00DF10DFF3E031D552D96
:100AB6000130FF007F08F407F11F622D632D542DCE
:100AC60071087302031D692D70087202031C6C2DD8
:100AD6006D2D732D7008F2027108031CF303F302E7
:100AE60001300310F10CF00CFF3E031D742D013094
:100AF600F402031D7F2D802D632D75080319842DA7
:100B0600852D8A2DF209F309F20A0319F30A7308EF
:100B1600F1007208F000080083160313880108111B
:100B2600881100300A128A11C0230A128A11C730AE
:100B3600F4009D2DF40B9C2DA02DA12D4E30F5001B
:100B4600EB30F400F40BA52DF50BA52D03300A129E
:100B56008A116B230A128A110D30F500FB30F4005E
:100B6600F40BB32DF50BB32DB82D03300A128A11F1
:100B76006B230A128A116330F400F40BC02DC32DC7
:100B860003300A128A116B230A128A1102300A12E2
:100B96008A116B230A128A1102300A128A116B23F8
:100BA6000A128A1108300A128A116B230A128A1154
:100BB60000300A128A116B230A128A110C300A12AB
:100BC6008A116B230A128A1100300A128A116B23CA
:100BD6000A128A1106300A128A116B230A128A1126
:100BE6000800F501F11FF82DF92D002EF009F10985
:100BF600F00A0319F10AF501F50AF31F032E042E74
:100C06000D2EF209F309F20A0319F30A0130FF0067
:100C16007F08F506F601F701700871040319142E12
:100C2600152E4C2EF401F40A232E01300310F00D7C
:100C3600F10DFF3E031D192E0130FF007F08F4075A
:100C4600F11F262E272E182E01300310F60DF70D54
:100C5600FF3E031D282E71087302031D342E7008F3
:100C66007202031C372E382E3F2E7008F2027108CE
:100C7600031CF303F302761401300310F10CF00C9D
:100C8600FF3E031D402E0130F402031D4B2E4C2E59
:100C9600272E75080319502E512E562EF609F709E0
:100CA600F60A0319F70A7708F1007608F00008003B
:100CB6000A128A1148230A128A110A128A118523F6
:100CC6000A128A110A128A11E2230A128A11031CD5
:100CD6006D2E6E2EAB2F7C300A128A1150240A120A
:100CE6008A110318772E782EA02E4B300A128A11FD
:100CF60050240A128A110318812E822EA02E7D30CE
:100D06000A128A1150240A128A1103188B2E8C2E6D
:100D1600A02E4C300A128A1150240A128A11031886
:100D2600952E962EA02E4A300A128A1150240A12A7
:100D36008A11031C9F2EA02EB92E0A128A113B235C
:100D46000A128A110530FF007F08F40002300A12E9
:100D56008A11E4240A128A112D30F5008030F6003B
:100D66000A128A110E240A128A11D42F7C088312C1
:100D760003134B07C000C101C10D7D084007C20027
:100D86000030031801304107C3004C084207C40075
:100D96000030031801304307C500FF304405C60084
:100DA60000304505C7004A08C800C901470849067A
:100DB600031DDF2E46084806031DE22EE32E942F60
:100DC6000A30F0000030F1007D08C000C101400883
:100DD600F2004108F3000A128A11F4250A128A1158
:100DE6007008303EFF007F0883120313B7000A30F5
:100DF600F0000030F1007D08C000C1014008F2009B
:100E06004108F3000A128A1136250A128A1170085F
:100E1600303EFF007F0883120313B8000A30F0004B
:100E26000030F1004C08C000C1014008F200410842
:100E3600F3000A128A11F4250A128A117008303E4C
:100E4600FF007F0883120313BA000A30F000003057
:100E5600F1007C08C000C1014008F2004108F3001F
:100E66000A128A11F4250A128A117008303EFF0010
:100E76007F0883120313A7000A30F0000030F10048
:100E86007C08C000C1014008F2004108F3000A12C4
:100E96008A1136250A128A117008303EFF007F0833
:100EA60083120313A8000A30F0000030F1004B084B
:100EB600C000C1014008F2004108F3000A128A117D
:100EC600F4250A128A117008303EFF007F0883124B
:100ED6000313AA00DF30FF007F08BB00F401F40A09
:100EE60001300A128A11E4240A128A113030F50000
:100EF6000030F6000A128A110E240A128A11F40131
:100F0600F40A02300A128A11E4240A128A112030E5
:100F1600F5000030F6000A128A110E240A128A1110
:100F2600D42F0A128A113B230A128A11F401F40AF9
:100F360001300A128A11E4240A128A110130F500DE
:100F46008030F6000A128A110E240A128A11D42F52
:100F56000A128A113B230A128A110330FF007F0806
:100F6600F40001300A128A11E4240A128A1121308F
:100F7600F5008030F6000A128A110E240A128A1130
:100F8600F401F40A02300A128A11E4240A128A11C0
:100F96001130F5008030F6000A128A110E240A126A
:100FA6008A118312031310100B3083120313C2002D
:100FB6002630C1005D30C000C00BDF2FC10BDF2F14
:100FC600C20BDF2F602E0A128A11002883134030CD
:100FD600FD000330FE00A030FF00203084000A121E
:100FE6008A115C230A128A11CA01CB01CC01FC01C9
:0A0FF600FD0183010A128A115B2E2F
:02400E00F23F7F
:00000001FF
