:020000040000FA
:060000000A128A11FC2F18
:10001A00831603132408F9002508FA002608FB00B2
:10002A002708FC0002300310F90DFA0DFB0DFC0D38
:10003A00FF3E031D18287C08F3007B08F2007A08AB
:10004A00F1007908F0000030F7003D30F600093081
:10005A00F5000030F4000A128A1165210A128A1189
:10006A00710883120313A7007008A6000800031082
:10007A00831203136C0D6D0DFF007F08EF006F08EC
:10008A00031D4828492852280030ED000030EC00B2
:10009A000030EB000030EA00CF286A088316031309
:1000AA00A800831203136B0883160313A900831293
:1000BA0003136C0883160313AA00831203136D0833
:1000CA0083160313AB001F300310AB0CAA0CA90C48
:1000DA00A80CFF3E031D69282808FF007F08831229
:1000EA000313EE00EC17FF30EA05FF30EB05FF3093
:1000FA00EC050030ED059630EF02EF1F85288628C3
:10010A00A0286F08803A973E03188C288D288E28DD
:10011A00492801300310ED0CEC0CEB0CEA0CFF3E05
:10012A00031D8F280130FF007F08EF07031D9E285B
:10013A009F288E28BF2820306F02031CA528A628D6
:10014A00BA284928013083160313A8000310831222
:10015A000313EA0DEB0DEC0DED0D83160313A80B3B
:10016A00AB28013083120313EF026F08031DBE2868
:10017A00BF28A7286E080319C328C428CF28EA096C
:10018A00EB09EC09ED09EA0A0319EB0A0319EC0A6F
:10019A000319ED0A0800831603132C0883120313AC
:1001AA00A800831603132D0883120313A900AA01BA
:1001BA00AB0100300A128A1102220A128A11831232
:1001CA0003132B08BD002A08BC002908BB00280815
:1001DA00BA004230B900C830B8000030B700003069
:1001EA00B6000A128A11BE220A128A118312031356
:1001FA003908D7003808D6003708D5003608D400A1
:10020A000A128A110D200A128A1183120313260870
:10021A00A8002708A9000030A91BFF30AA00AB00DC
:10022A0001300A128A1102220A128A118312031356
:10023A002B08D3002A08D2002908D1002808D000A8
:10024A000A128A119B240A128A1183120313530871
:10025A00ED005208EC005108EB005008EA000A12BF
:10026A008A113C200A128A11831203136B0883161F
:10027A000313AD00831203136A0883160313AC0039
:10028A00831203139712831603132C184D2951292D
:10029A008312031317165429831203131712831692
:1002AA0003132D08AF002C08AE000310AF0CAE0CE0
:1002BA000310AF0CAE0C2E0883120313950008002E
:1002CA0083120313A101F31F6B296C297929F00901
:1002DA00F109F209F309F00A0319F10A0319F20AFA
:1002EA000319F30AA101A10AF71F7C297D298C2988
:1002FA00F409F509F609F709F40A0319F50A0319C5
:10030A00F60A0319F70A0130FF007F08A106003038
:10031A00A5000030A4000030A3000030A20073083A
:10032A0072047104700403199B299C29E929A0010C
:10033A00A00AAC290130F8000310F00DF10DF20DFE
:10034A00F30DF80BA1290130FF007F08A007F31F66
:10035A00AF29B0299F290130F8000310A20DA30D7F
:10036A00A40DA50DF80BB22973087702031DC7293E
:10037A0072087602031DC72971087502031DC72971
:10038A0070087402031CCA29CB29DA297008F402FE
:10039A007108031C710FF5027208031C720FF60232
:1003AA007308031C730FF702221401300310F30CB5
:1003BA00F20CF10CF00CFF3E031DDB290130A00208
:1003CA00031DE829E929B02921080319ED29EE2995
:1003DA00F929A209A309A409A509A20A0319A30ACA
:1003EA000319A40A0319A50A2508F3002408F20030
:1003FA002308F1002208F000080083120313B0005A
:10040A0030080319092A0A2A1E2AAB1F0D2A0E2AA6
:10041A001E2A2809B2002909B3002A09B4002B09A7
:10042A00B500B20A0319B30A0319B40A0319B50AC3
:10043A00262A2B08B5002A08B4002908B300280880
:10044A00B2002B082A0429042804031D2D2A2E2A67
:10045A00372A0030AB000030AA000030A900003073
:10046A00A800BD2A9630FF007F08B100492A013052
:10047A00FF007F08B10701300310B50CB40CB30CB0
:10048A00B20CFF3E031D412AFE303505031D4E2ADC
:10049A004F2A3C2A6B2A0130FF007F08B10701303E
:1004AA00B207003003180130B307003003180130D7
:1004BA00B407003003180130B50701300310B50C3A
:1004CA00B40CB30CB20CFF3E031D632AFF30350592
:1004DA00031D702A712A502A7D2A0130B102013087
:1004EA00AC000310B20DB30DB40DB50DAC0B762AEA
:1004FA00B41B802A812A872A023031020318862AED
:10050A00872A722A31188A2A8B2A932AFF30B2053F
:10051A00FF30B3057F30B405FF30B5050310B10CC9
:10052A003108AC00AD01AE01AF0118300310AC0DBB
:10053A00AD0DAE0DAF0DFF3E031D9B2A2C08B20474
:10054A002D08B3042E08B4042F08B5043008031983
:10055A00AF2AB02AB52AAB1FB32AB42AB52AB517CF
:10056A003508AB003408AA003308A9003208A800ED
:10057A000800831203133D088039FF007F08C70073
:10058A003D08BE003E07FF007F08CE00BC1FCE2AF2
:10059A00CF2AD02A4E144E080319D42AD52AE52A7E
:1005AA004E0A031DD92ADA2AE22A0030BD00003099
:1005BA00BC000030BB000030BA00BC17BD01ED2AF8
:1005CA000030BD000030BC000030BB000030BA0073
:1005DA0039088039FF007F08C7063908BE003E0780
:1005EA00FF007F08CF00B81FFB2AFC2AFD2A4F1400
:1005FA004F080319012B022B122B4F0A031D062B3E
:10060A00072B0F2B0030B9000030B8000030B700BC
:10061A000030B600B817B9011A2B0030B900003003
:10062A00B8000030B7000030B60039083804370483
:10063A003604031D212B222B3B2B0030BD0000303A
:10064A00BC000030BB000030BA008030BC047F30F0
:10065A00BD044708FF007F08BD043D08B9003C08F7
:10066A00B8003B08B7003A08B6009A2C4E08031D9A
:10067A003F2B402B492B0030B9000030B800003026
:10068A00B7000030B6009A2C4E08BE00BF013F08E2
:10069A00C1004F083E02C000031CC10340087F3E50
:1006AA00C80041080318013E003EC9003D08C600C3
:1006BA003C08C5003B08C4003A08C3000030BD002E
:1006CA000030BC000030BB000030BA000030CD0062
:1006DA000030CC000030CB000030CA00CF01BF2B65
:1006EA004F080319792B7A2B9A2B0130BE0003107D
:1006FA00C30DC40DC50DC60DBE0B7C2B0130BE004B
:10070A000310BA0DBB0DBC0DBD0DBE0B852BCD1F45
:10071A008F2B902B912B3A140130BE000310CA0D77
:10072A00CB0DCC0DCD0DBE0B932B39084602031D04
:10073A00A82B38084502031DA82B37084402031DBD
:10074A00A82B36084302031CAB2BAC2BBB2B4D1733
:10075A003608C3023708031C370FC4023808031CC3
:10076A00380FC5023908031C390FC6020130FF00D1
:10077A007F08CF071A304F02031CC42BC52B752BD9
:10078A0046084504440443040319CC2BCD2BEC2B17
:10079A004A14EC2B0130BE000310BA0DBB0DBC0D80
:1007AA00BD0DBE0BD12BCD1FDB2BDC2BDD2B3A1461
:1007BA000130BE000310CA0DCB0DCC0DCD0DBE0B02
:1007CA00DF2BFF30C8070318C90AFF30C907BC1F4F
:1007DA00EF2BF02BCF2BCF01CD1FF42BF52B112CA8
:1007EA00FF304A05BE00FF304B05BF00FF304C0505
:1007FA00C0007F304D05C100410840043F043E045B
:10080A000319082C092C0C2CCF01CF0A112C3A1CE5
:10081A000F2C102C112C092C4F080319152C162CEF
:10082A00472C0130BA07003003180130BB070030EB
:10083A0003180130BC07003003180130BD073D1C06
:10084A00272C282C472C3A08BE003B08BF003C083E
:10085A00C0003D08C1000130C200410DC10CC00CEE
:10086A00BF0CBE0CC20B322C4108BD004008BC00B4
:10087A003F08BB003E08BA000130C8070318C90A7E
:10088A000030C9074908803AFF0080307F02031D03
:10089A00502CFF304802031C532C542C622CFF307E
:1008AA0083120313C8000030C9000030BD000030B5
:1008BA00BC000030BB000030BA00831203134908A1
:1008CA00803AFF0080307F02031D6D2C0130480200
:1008DA000318702C712C7E2C83120313C801C901D2
:1008EA000030BD000030BC000030BB000030BA0050
:1008FA00C701831203134808FF007F08CE004E1C6D
:10090A00872C882C8A2CBC178E2C7F30FF007F08FE
:10091A00BC054E08BE0003103E0CFF007F08BD0058
:10092A004708FF007F08BD04322B08008312031317
:10093A0053088039FF007F08DD005308D8005807A4
:10094A00FF007F08E300D21FAB2CAC2CAD2C631444
:10095A0063080319B12CB22CC12C630A031DB62CEF
:10096A00B72CBF2C0030D3000030D2000030D100A9
:10097A000030D000D217C92C0030D3000030D2008A
:10098A000030D1000030D00057088039FF007F08BE
:10099A00DD065708D8005807FF007F08E200D61F77
:1009AA00D72CD82CD92C621462080319DD2CDE2C22
:1009BA00ED2C620A031DE22CE32CEB2C0030D7004D
:1009CA000030D6000030D5000030D400D617F52C00
:1009DA000030D7000030D6000030D5000030D400F7
:1009EA0062080319F92CFA2CFF2C6308031DFE2C4C
:1009FA00FF2C082D0030D3000030D2000030D10087
:100A0A000030D000FB2F5008FF007F08F000560886
:100A1A000A128A150D270A128A1171088312031302
:100A2A00E9007008E8006808D800D901DA01DB019A
:100A3A005B08E1005A08E0005908DF005808DE00A8
:100A4A006908D800D901DA01DB015B08E7005A0816
:100A5A00E6005908E5005808E4005108FF007F083D
:100A6A00F00055080A128A150D270A128A11710810
:100A7A0083120313E9007008E8006808D800D90156
:100A8A00DA01DB015808DE07590803110318013E91
:100A9A000319502DDF075A0803110318013E0319E1
:100AAA00572DE0075B0803110318013E03195E2D59
:100ABA00E1076908D800D901DA01DB015808E4071F
:100ACA00590803110318013E03196C2DE5075A084A
:100ADA0003110318013E0319732DE6075B0803117E
:100AEA000318013E03197A2DE7075208FF007F0811
:100AFA00F00054080A128A150D270A128A11710881
:100B0A0083120313E9007008E8006808D800D901C5
:100B1A00DA01DB015808DE07590803110318013E00
:100B2A000319982DDF075A0803110318013E031908
:100B3A009F2DE0075B0803110318013E0319A62D38
:100B4A00E1076908D800D901DA01DB015808E4078E
:100B5A00590803110318013E0319B42DE5075A0871
:100B6A0003110318013E0319BB2DE6075B080311A5
:100B7A000318013E0319C22DE7070830D8000310F5
:100B8A00DE0DDF0DE00DE10DD80BC42D5108FF007D
:100B9A007F08F00054080A128A150D270A128A11D2
:100BAA00710883120313E9007008E8006808D80086
:100BBA006908D900DA01DB015808DE075908031170
:100BCA000318013E0319EA2DDF075A080311031817
:100BDA00013E0319F12DE0075B0803110318013EDA
:100BEA000319F82DE1075008FF007F08F0005508A7
:100BFA000A128A150D270A128A1171088312031321
:100C0A00E9007008E8006808D8006908D900DA0124
:100C1A00DB015808DE07590803110318013E0319BE
:100C2A00172EDF075A0803110318013E03191E2E57
:100C3A00E0075B0803110318013E0319252EE1079B
:100C4A000830D8000310DE0DDF0DE00DE10DD80BE2
:100C5A00272E5008FF007F08F00054080A128A1550
:100C6A000D270A128A11710883120313E90070080A
:100C7A00E8006808D8006908D900DA01DB015808D9
:100C8A00DE07590803110318013E03194D2EDF0729
:100C9A005A0803110318013E0319542EE0075B0892
:100CAA0003110318013E03195B2EE1075108FF00E7
:100CBA007F08F00056080A128A150D270A128A11AF
:100CCA00710883120313E9007008E8006808D80065
:100CDA006908D900DA01DB015808E4075908031149
:100CEA000318013E03197A2EE5075A08031103185F
:100CFA00013E0319812EE6075B0803110318013E22
:100D0A000319882EE7075208FF007F08F0005508EC
:100D1A000A128A150D270A128A11710883120313FF
:100D2A00E9007008E8006808D8006908D900DA0103
:100D3A00DB015808E407590803110318013E031997
:100D4A00A72EE5075A0803110318013E0319AE2E10
:100D5A00E6075B0803110318013E0319B52EE707DE
:100D6A005208FF007F08F00056080A128A150D275C
:100D7A000A128A11710883120313E9007008E80045
:100D8A006808D8006908D900DA01DB0108300310C5
:100D9A00D80DD90DDA0DDB0DFF3E031DCC2E5808F8
:100DAA00E407590803110318013E0319DD2EE5076C
:100DBA005A0803110318013E0319E42EE6075B08DB
:100DCA0003110318013E0319EB2EE7075E08D8004A
:100DDA005F08D9006008DA006108DB0018300310E8
:100DEA00DB0CDA0CD90CD80CFF3E031DF42E580884
:100DFA00E407590803110318013E0319052FE507F3
:100E0A005A0803110318013E03190C2FE6075B0861
:100E1A0003110318013E0319132FE7070830D800FE
:100E2A000310DE0DDF0DE00DE10DD80B152F630861
:100E3A006207D800D901D90D5808823EE80059083E
:100E4A000318013EFF3EE900472F0130D800031086
:100E5A00E40DE50DE60DE70DD80B2C2FE11F362F1B
:100E6A00372F382F64140130D8000310DE0DDF0D40
:100E7A00E00DE10DD80B3A2FFF30E8070318E90A15
:100E8A00FF30E907E61F4A2F4B2F2A2FE201E11F05
:100E9A004F2F502F6C2FFF305E05D800FF305F05B3
:100EAA00D900FF306005DA007F306105DB005B089E
:100EBA005A04590458040319632F642F672FE20157
:100ECA00E20A6C2F641C6A2F6B2F6C2F642F620846
:100EDA000319702F712FA22F0130E4070030031875
:100EEA000130E507003003180130E6070030031827
:100EFA000130E707671C822F832FA22F6408D800CE
:100F0A006508D9006608DA006708DB000130DC00F2
:100F1A005B0DDB0CDA0CD90CD80CDC0B8D2F5B08C3
:100F2A00E7005A08E6005908E5005808E4000130CD
:100F3A00E8070318E90A0030E9076908803AFF0060
:100F4A0080307F02031DAB2FFF306802031CAE2FD7
:100F5A00AF2FBA2F7F3083120313E7008030E600E9
:100F6A000030E5000030E400EF2F83120313690814
:100F7A00803AFF0080307F02031DC52F01306802CE
:100F8A000318C82FC92FD52F003083120313E70087
:100F9A000030E6000030E5000030E400DD01EF2F0C
:100FAA00831203136808FF007F08E300FF30E4059B
:100FBA00FF30E5057F30E6050030E705631CE62FC4
:100FCA00E72FE82FE6176308D8000310580CFF0034
:100FDA007F08E7005D08FF007F08E7046708D30081
:100FEA006608D2006508D1006408D00008008301B1
:060FFA000A128A15832F84
:101D76008312031397151715121492101215831652
:101D8600031307110800831203131F151F19CC2E06
:101D9600CD2EC92E1E08F300831603131E08F2006B
:101DA6007308F1007208F0000800831603131F136E
:101DB600831203139F131F179F121F129F1183165F
:101DC60003139F179F151F159F141F1083120313CC
:101DD6001F140800003083120313A9000030A80066
:101DE6000330A700E830A6000A128A1534270A1223
:101DF6008A15831603132108AD002008AC000A12C9
:101E06008A11D0200A128A150A128A15BB260A12CE
:101E16008A150800F800F401F5017008F200F301D4
:101E26007208F6007308F700781C1A2F1B2F212F53
:101E36007608F4070318F50A7708F507013003104A
:101E4600F60DF70DFF3E031D222F0310F80C780840
:101E5600031D2E2F2F2F172F7508F1007408F00081
:101E66000800831603132408F9002508FA0026083B
:101E7600FB002708FC0002300310F90DFA0DFB0DDC
:101E8600FC0DFF3E031D3F2F02300310F90DFA0D26
:101E9600FB0DFC0DFF3E031D482F7C08F3007B085D
:101EA600F2007A08F1007908F0000030F7003D30C2
:101EB600F6000930F5000030F4000A128A11652197
:101EC6000A128A157008FF3E8316031392008312C6
:101ED6000313290883160313A70083120313280884
:101EE60083160313A600831203132708831603130E
:101EF600A50083120313260883160313A400080003
:101F06000A128A15D8260A128A150A128A15ED2689
:101F16000A128A150A128A15C6260A128A15710825
:101F260083160313A3007008A2002208831203136A
:101F3600A80083160313230883120313A900AA011A
:101F4600AB0100300A128A1102220A128A15831284
:101F560003132B08BD002A08BC002908BB0028086B
:101F6600BA004430B9007F30B800C030B700003046
:101F7600B6000A128A11BE220A128A1583120313A8
:101F86003908D7003808D6003708D5003608D400F7
:101F96004230D300C830D2000030D1000030D0002B
:101FA6000A128A119B240A128A15831203135308F4
:101FB600ED005208EC005108EB005008EA000A1246
:101FC6008A113C200A128A15831203136B088316A2
:101FD6000313A100831203136A0883160313A000D8
:101FE6002108AD002008AC000A128A11D0200A127E
:0A1FF6008A158D2F0A128A110028A7
:02400E003A3F37
:00000001FF
