:020000040000FA
:060000000A128A110C280F
:10000800FE00030EF0000A08F1000A128A110B29FB
:100018000A128A110F2883135230FD000330FE00A4
:100028006F30FF00483084000A128A1150230A12E8
:100038008A112030840038300A128A1179230A1272
:100048008A11FA01FB0183010A128A112B28063052
:10005800831603139F0083120313C601C701831677
:1000680003138801FF3083120313880083160313D8
:100078008713831203138713831603130510851040
:1000880005110910891083120313891489184D2842
:1000980051288312031309145428831203130910D7
:1000A800091857285B288312031305155E28831245
:1000B8000313051105196128652883120313851494
:1000C800682883120313851085186B286F288312FC
:1000D8000313051472288312031305100A128A11D8
:1000E80081230A128A110A128A115F230A128A11BD
:1000F800831203132708B9002608B8003630C20057
:100108004208BA003430C3004308BB003230C40090
:100118004408BC003030C5004508BD000A128A11E9
:10012800D0210A128A11831203132508B900240862
:10013800B8002E30C2004208BA002C30C300430871
:10014800BB002A30C4004408BC002830C50045085C
:10015800BD000A128A11D0210A128A1101308312B5
:100168000313C6070318C70A0030C70764304606DA
:100178004704031DC028C128C328C601C701470872
:10018800803AFF0080307F02031DCC2832304602BF
:100198000318CF28D028EC28831203133708B90096
:1001A8003608B8003508BB003408BA003308BD006B
:1001B8003208BC003108BF003008BE000130C00062
:1001C8000030C1000A128A1155220A128A117C28AD
:1001D800831203132F08B9002E08B8002D08BB009E
:1001E8002C08BA002B08BD002A08BC002908BF004B
:1001F8002808BE000230C0000030C1000A128A116F
:1002080055220A128A117C280A128A110C288B1D81
:100218000E290F294C290B1C122913294C2983124A
:100228000313061A182919292A290130A6070318C1
:10023800A70A0030A7072730270210300319260223
:10024800031C272928292A29A601A701861A2D294E
:100258002E293F290130A4070318A50A0030A50755
:1002680027302502103003192402031C3C293D299C
:100278003F29A401A501061B422943294529A601B6
:10028800A701861B482949294B29A401A5010B1060
:100298008B1E4F295029C9290B1D53295429C929B7
:1002A8008312031325082706031D5C292408260644
:1002B800031D5F296029672924082504031D652972
:1002C80066296729871325082706031D6D29240831
:1002D8002606031D70297129782924082504031985
:1002E80076297729782987170130FA070318FB0A36
:1002F8000030FB0703307B02E83003197A02031C45
:10030800862987298929FA01FB0125082702031D67
:100318008F29240826020318922993299F2901303E
:100328007B02F43003197A0203189B299C299E2921
:1003380087179F2987130130A2070318A30A0030E3
:10034800A30707302302D03003192202031CAD296A
:10035800AE29B029A201A30127082502031DB62949
:10036800260824020318B929BA29C629013023020C
:10037800F430031922020318C229C329C529871793
:10038800C6298713643081000B1171088A00700E2A
:100398008300FE0E7E0E0900E830F2000330F30001
:1003A800831203133908F5003808F4000A128A1179
:1003B800CE220A128A11831203133A0884007208A3
:1003C80083138000840A73088000E830F200033049
:1003D800F3003908F5003808F4000A128A111223CC
:1003E8000A128A11730883120313BF007208BE0031
:1003F8006430F2000030F3003F08F5003E08F400D6
:100408000A128A11CE220A128A11831203133B0898
:100418008400720883138000840A730880006430A3
:10042800F2000030F3003F08F5003E08F4000A121D
:100438008A1112230A128A11730883120313BF0048
:100448007208BE000A30F2000030F3003F08F500E1
:100458003E08F4000A128A11CE220A128A11831267
:1004680003133C088400720883138000840A73080D
:1004780080000A30F2000030F3003F08F5003E0823
:10048800F4000A128A1112230A128A118312031322
:100498003D088400720883138000840A7308800072
:1004A8000800FF308312031388008910051485148F
:1004B800051509144008483E840083130008880085
:1004C8000D30F300FB30F200F20B682AF30B682AB8
:1004D8006D2AFF30831203138800891405108514D0
:1004E800051509143808483E84008313000888005D
:1004F8000D30F300FB30F200F20B802AF30B802A58
:10050800852AFF3083120313880089140514851087
:10051800051509143A08483E84008313000888002A
:100528000D30F300FB30F200F20B982AF30B982AF7
:100538009D2AFF308312031388008914051485143B
:10054800051109143C08483E8400831300088800FC
:100558000D30F300FB30F200F20BB02AF30BB02A97
:10056800B52AFF30831203138800891405148514F3
:10057800051509103E08483E8400831300088800CA
:100588000D30F300FB30F200F20BC82AF30BC82A37
:10059800CD2A0800F801F901720873040319D52A55
:1005A800D62A0D2BF701F70AE42A01300310F20DC1
:1005B800F30DFF3E031DDA2A0130F6007608F7072F
:1005C800F31FE72AE82AD92A01300310F80DF90D9C
:1005D800FF3E031DE92A73087502031DF52A7208F8
:1005E8007402031CF82AF92A002B7208F402730813
:1005F800031CF503F502781401300310F30CF20C18
:10060800FF3E031D012B0130F702031D0C2B0D2BA0
:10061800E82A7908F3007808F200080072087304E1
:100628000319172B182B472BF701F70A262B013034
:100638000310F20DF30DFF3E031D1C2B0130F600D5
:100648007608F707F31F292B2A2B1B2B7308750233
:10065800031D302B72087402031C332B342B3A2BE6
:100668007208F4027308031CF503F5020130031045
:10067800F30CF20CFF3E031D3B2B0130F702031D68
:10068800462B472B2A2B7508F3007408F200080044
:100698007E088A007F0882000A128A114C230A12F7
:1006A8008A118000840A04087D0603190034FF0AB1
:1006B8000319FE0A502B831603130115811001102C
:1006C8008111011281128B17643083120313810088
:1006D8008B160B110800C034F934A434B0349934A3
:1006E80092348234F8348034903464008001840A6F
:1006F80004060319003404067A2B8B150B108B178C
:020708000800E7
:02400E00F23F7F
:00000001FF
