:020000040000FA
:100000000A128A11FC2F00308A000408840A820731
:1000100000345334613476346534643420344134EC
:08002000443443343A34003447
:1007F0004130831203139F00C030831603139F0000
:10080000080000300A128A111F240A128A110130CE
:100810000A128A111F240A128A110800F0007008B7
:10082000831203178D00831603178C130C14831285
:1008300003170C08FF007F08F10071080800F3009F
:1008400083120313081173080A128A1154240A121E
:100850008A118312031388151A30F200F830F10060
:10086000F10B302CF20B302C000083120313881193
:100870000800F100831603178C183F2C402C3A2CEB
:100880007108831203178D0070088C0083160317FC
:100890008C130C158B1355308D00AA308D008C14E1
:1008A0008B170C118C100800F000701C582C592C60
:1008B0005D2C831203130816602C83120313081295
:1008C000F01C632C642C662C8816672C8812701D13
:1008D0006A2C6B2C6D2C08176E2C0813F01D712CD4
:1008E000722C742C8817752C88130800831203133C
:1008F000A200A001A101912C2008220784000A1265
:100900008A1103200A128A110A128A11CA240A12B1
:100910008A11013083120313A0070318A10A0030C3
:10092000A1072008220784000A128A1103200A1254
:100930008A11003A031D9D2C9E2C7C2C0800F4008B
:10094000C530FF007F08831203139F057408F2006F
:1009500002300310F20DFF3E031DA92C0310720D8F
:10096000FF007F089F040D30F300FB30F200F20B14
:10097000B72CF30BB72CBC2C831203131F151F19B4
:10098000C22CC32CBF2C1E08F100831603131E08B3
:10099000F0000800F40074080F39FF007F08F2002F
:1009A0007408F039FF007F08F30083120313081561
:1009B0007308F10004300310F10CFF3E031DDB2C23
:1009C00071080A128A1154240A128A11831203131D
:1009D0008815881172080A128A1154240A128A1181
:1009E00083120313881588110800F6007603031D8F
:1009F000FA2CFB2C1E2D74087F3EFF007F08F900A7
:100A00007908F50004300310F50CFF3E031D032D9B
:100A10007508FF007F08F70079080F39FF007F088D
:100A2000F80077080A128A111F240A128A1178081E
:100A30000A128A111F240A128A11462D02307606E4
:100A4000031D232D242D462D7408BF3EFF007F0873
:100A5000F9007908F50004300310F50CFF3E031D82
:100A60002C2D7508FF007F08F70079080F39FF006B
:100A70007F08F80077080A128A111F240A128A11C7
:100A800078080A128A111F240A128A1108000030FD
:100A90000A128A1154240A128A1103300A128A1186
:100AA0001F240A128A112130F5007630F400F40B6D
:100AB000572DF50B572D000003300A128A111F2401
:100AC0000A128A114830F5006C30F400F40B662DE0
:100AD000F50B662D000003300A128A111F240A123A
:100AE0008A1102300A128A111F240A128A11023056
:100AF0000A128A111F240A128A1108300A128A1156
:100B00001F240A128A1100300A128A111F240A12A5
:100B10008A110C300A128A111F240A128A1100301D
:100B20000A128A111F240A128A1106300A128A1127
:100B30001F240A128A110800FD01FB1FA02DA12D00
:100B4000A82DFA09FB09FA0A0319FB0AFD01FD0A9F
:100B5000F91FAB2DAC2DB12DF809F909F80A0319CD
:100B6000F90A780879040319B62DB72DE62DFC0192
:100B7000FC0AC52D01300310F80DF90DFF3E031DD1
:100B8000BB2D0130FF007F08FC07F91FC82DC92DC0
:100B9000BA2D79087B02031DCF2D78087A02031C39
:100BA000D22DD32DD92D7808FA027908031CFB0326
:100BB000FB0201300310F90CF80CFF3E031DDA2D87
:100BC0000130FC02031DE52DE62DC92D7D0803191A
:100BD000EA2DEB2DF02DFA09FB09FA0A0319FB0A9D
:100BE0007B08F9007A08F8000800F501F11FF92DDB
:100BF000FA2D012EF009F109F00A0319F10AF501A5
:100C0000F50AF31F042E052E0E2EF209F309F20A3F
:100C10000319F30A0130FF007F08F506F601F7011A
:100C2000700871040319152E162E4D2EF401F40AC6
:100C3000242E01300310F00DF10DFF3E031D1A2E7E
:100C40000130FF007F08F407F11F272E282E192EF0
:100C500001300310F60DF70DFF3E031D292E71081C
:100C60007302031D352E70087202031C382E392EB4
:100C7000402E7008F2027108031CF303F30276148D
:100C800001300310F10CF00CFF3E031D412E01302A
:100C9000F402031D4C2E4D2E282E75080319512EDB
:100CA000522E572EF609F709F60A0319F70A7708A4
:100CB000F1007608F000080083120313B501B601B5
:100CC000831603138801051606140A128A11F823E5
:100CD0000A128A110A128A1147250A128A110A1267
:100CE0008A1101240A128A1104300A128A119F24DF
:100CF0000A128A11710883120313B8007008B70032
:100D00000A30F8000030F900E830F0000330F1005C
:100D10003808F3003708F2000A128A11F5250A1282
:100D20008A117108FB007008FA000A128A119C25CA
:100D30000A128A11790883120313A6007808A50005
:100D40000A30F8000030F9006430F0000030F100A3
:100D50003808F3003708F2000A128A11F5250A1242
:100D60008A117108FB007008FA000A128A119C258A
:100D70000A128A11790883120313A8007808A700C1
:100D80000A30F8000030F9000A30F0000030F100BD
:100D90003808F3003708F2000A128A11F5250A1202
:100DA0008A117108FB007008FA000A128A119C254A
:100DB0000A128A11790883120313AA007808A9007D
:100DC0000A30F8000030F9003808FB003708FA0054
:100DD0000A128A119C250A128A11790883120313B8
:100DE000AC007808AB00F401F40A01300A128A1151
:100DF000F5240A128A1107300A128A1176240A127F
:100E00008A11831203132508303E0A128A11CA245C
:100E10000A128A11831203132708303E0A128A111C
:100E2000CA240A128A11831203132908303E0A12B7
:100E30008A11CA240A128A11831203132B08303E26
:100E40000A128A11CA240A128A110A30F8000030E4
:100E5000F900E830F0000330F10083120313360884
:100E6000F3003508F2000A128A11F5250A128A11D8
:100E70007108FB007008FA000A128A119C250A12F8
:100E80008A11790883120313AE007808AD000A3086
:100E9000F8000030F9006430F0000030F10036084E
:100EA000F3003508F2000A128A11F5250A128A1198
:100EB0007108FB007008FA000A128A119C250A12B8
:100EC0008A11790883120313B0007808AF000A3042
:100ED000F8000030F9000A30F0000030F100360868
:100EE000F3003508F2000A128A11F5250A128A1158
:100EF0007108FB007008FA000A128A119C250A1278
:100F00008A11790883120313B2007808B1000A30FD
:100F1000F8000030F9003608FB003508FA000A1224
:100F20008A119C250A128A11790883120313B400CE
:100F30007808B300F401F40A02300A128A11F52489
:100F40000A128A1101300A128A1176240A128A11B1
:100F5000831203132D08303E0A128A11CA240A1282
:100F60008A11831203132F08303E0A128A11CA24F1
:100F70000A128A11831203133108303E0A128A11B1
:100F8000CA240A128A11831203133308303E0A124C
:100F90008A11CA240A128A11831203130618D12F48
:100FA000D22FDC2F3708FF007F08F00000300A1234
:100FB0008A1139240A128A1100300A128A110E2469
:100FC0000A128A1183120313A300A4012308B50097
:100FD0002408B600F401F40A01300A128A11F5243B
:100FE0000A128A1107300A128A1176240A128A110B
:100FF000742E0A128A11002883010A128A115C2EAB
:02400E00723FFF
:00000001FF
