:020000040000FA
:060000000A128A110C280F
:10000800FE00030EF0000A08F1000A128A111328F4
:100018000A128A110F2883010A128A1169288B1D76
:100028001628172862280B1C1A281B2862288312F6
:100038000313061E202821282E280310081C031449
:10004800031827282B288312031308142E28831239
:1000580003130810861E312832283F280310881CF5
:100068000314031838283C288312031388143F28E4
:10007800831203138810061F4228432850280310B0
:10008800081D0314031849284D2883120313081563
:100098005028831203130811861F532854286128F7
:1000A8000310881D031403185A285E2883120313AB
:1000B800881561288312031388110B1071088A00B0
:1000C800700E8300FE0E7E0E0900073083160313A0
:1000D8009F000810881008118811831203138811D3
:1000E8000811881008100A128A11A0200A128A1111
:1000F8008312031388111530F4004B30F300BE301F
:10010800F200F20B8528F30B8528F40B85280000F4
:100118008312031388151530F4004B30F300BE30FA
:10012800F200F20B9528F30B9528F40B95280000A4
:0E0138007C280A128A110C288B158B170800E0
:02400E00723FFF
:00000001FF
